:020000040800F2
:1000000000000120BD6B00081D1700081F17000825
:10001000211700082317000825170008000000001A
:10002000000000000000000000000000F16800086F
:10003000271700080000000091690008F569000812
:100040000D6C00080D6C00080D6C00080D6C0008AC
:100050000D6C00080D6C0008291700080D6C0008D5
:100060000D6C00080D6C00080D6C00080D6C00088C
:100070000D6C00080D6C00080D6C00080D6C00087C
:100080000D6C0008351700080D6C0008000000001A
:100090000000000000000000000000000D6C0008DF
:1000A0000D6C0008451700080D6C00080D6C000869
:1000B0000D6C00080D6C00080D6C00085517000849
:1000C0000D6C00080D6C00080D6C00086517000829
:1000D0000D6C00080D6C00080D6C0008000000009D
:1000E0000D6C00080D6C00080D6C0008000000008D
:1000F0000000000000000000000000000D6C00087F
:10010000000000000D6C00080D6C00080D6C00086C
:1001100000000000000000000000000000000000DF
:10012000751700080D6C00080D6C00088517000895
:100130000D6C00080000000000000000000000003E
:100140000000000000000000000000000D6C00082E
:100150000D6C00080D6C00080D6C00080D6C00089B
:100160000D6C00080D6C000800000000000000008D
:10017000000000000000000000000000000000007F
:10018000000000000D6C00080000000000000000EE
:040190000D6C0008EA
:1001A00001F0FF01102A2BDB10F0070F08D010F828
:1001B000013B013A8B422DD010F0070F42B3F6D12C
:1001C000F0B441EA012141EA014122F007047FF045
:1001D00000070023F0E80256083C85EA010586EA9C
:1001E000010685FA47F5A3FA87F586FA47F6A5FAD8
:1001F00087F68EB9EED1F0BC01F0FF0102F00702E4
:1002000032B110F8013B013A83EA010313B1F8D18E
:100210000020704701387047002D06BF354603386F
:10022000073815F0010F07D1013015F4807F02BFA8
:10023000013015F4C03F0130F0BC0138704700BFF9
:1002400053B94AB9002908BF00281CBF4FF0FF313D
:100250004FF0FF3000F00CB8ADF1080C6DE904CEA2
:1002600007F012FADDF804E0DDE9022304B070477C
:10027000704700BF0348044B834202D0034B03B1D5
:10028000184770478C0000208C0000200000000000
:100290000548064B1B1AD90F01EBA301491002D0E8
:1002A000034B03B1184770478C0000208C000020DE
:1002B0000000000010B5064C237843B9FFF7DAFFC1
:1002C000044B13B10448AFF300800123237010BD29
:1002D0008C000020000000005079000808B5054B94
:1002E0001BB105490548AFF30080BDE80840FFF7A2
:1002F000CFBF00BF00000000900000205079000830
:10030000014B00221A707047C7020020704700009E
:1003100008B52D4B1B78012B18D02C4B1B78012BCB
:100320002AD02B4B1B7833B12A4A13780133DBB226
:100330001370182B36D8284B1B7833B1274A137803
:100340000133DBB21370182B35D808BD244A13884B
:100350000A339BB2138042F20F729342DDD9204BD5
:1003600042F210721A800023174A1370174A137052
:100370001C4B07221A70D0E71B4A13880A339BB222
:10038000138042F20F729342CBD9174B42F2107294
:100390001A8000230C4A13700C4A1370114B06226A
:1003A0001A70BEE70A4B00221A70012204210F487E
:1003B00001F07DFFBFE7084B00221A7001220221E5
:1003C0000A4801F074FFC0E702030020C6020020C3
:1003D000C1020020FE020020C0020020C202002054
:1003E00000030020D8020020C402002000040240C4
:1003F0002DE9F0418AB000240594069407940894EE
:1004000009940194384B1A6B42F004021A631A6B78
:1004100002F004020192019A02941A6B42F08002E7
:100420001A631A6B02F080020292029A03941A6B0A
:1004300042F001021A631A6B02F001020392039A5E
:1004400004941A6B42F002021A631B6B03F002035E
:100450000493049BDFF89C8001220621404601F0B2
:1004600026FF224F01224FF4C061384601F01FFFE2
:100470004FF40053059306940125079505A91C48E0
:1004800001F02AFE05954FF404130693079505A97C
:10049000404601F021FE062605960695079408942D
:1004A00005A9404601F018FE4FF4807305934FF400
:1004B00088130693079405A9384601F00DFE4FF402
:1004C000C063059306950794089405A9384601F082
:1004D00003FE22460521304602F0E6F8304602F0DF
:1004E0001BF90AB0BDE8F08100380240000002406C
:1004F000000802400004024010B582B000240094BD
:10050000164B1A6B42F400121A631A6B02F40012B3
:100510000092009A01941A6B42F480021A631B6BDA
:1005200003F480030193019B22460521112002F070
:10053000BBF8112002F0F0F822460521382002F025
:10054000B3F8382002F0E8F8224605213B2002F0FB
:10055000ABF83B2002F0E0F802B010BD00380240DA
:1005600000B58FB0504C0DF11C0CA646BEE80F0034
:10057000ACE80F009EE807008CE80700002107A800
:1005800005F046FF494B1860EE4604F11C0CBCE830
:100590000F00AEE80F009CE807008EE8070000217E
:1005A000684605F035FF424B18604FF40051414852
:1005B00001F076FE002864D13F4B04221A703F4BB5
:1005C00002221A703E4C01220421204601F06FFEE7
:1005D00001220221204601F06AFE00F00DFC0021FC
:1005E000084600F0E9FB374C012394E80600364842
:1005F00000F0CAFB00F032FB4FF4FA7005F03BFF4D
:10060000002000F01DFB0021402000F0D5FB01235D
:1006100094E806002D4800F0B7FB00F01FFB4FF4F4
:10062000FA7005F028FF002000F00AFB08210020E6
:1006300000F0C2FB012394E80600254800F0A4FB6B
:1006400000F00CFB4FF4FA7005F015FF002000F0ED
:10065000F7FA0821402000F0AFFB012394E80600E0
:100660001C4800F091FB00F0F9FA4FF47A7005F0A5
:1006700002FF00F0AFFE0A21174B186805F024FFB7
:100680000DE00D4B02221A700C4B04221A7099E7F0
:1006900000F0CAFE00F050FF322005F0ECFE0F4BD8
:1006A0001B78002BF4D1F5E768790008840200205C
:1006B000B400002000080240BE020020BC0200205E
:1006C0000004024008000020BC790008C47900083A
:1006D000C8790008CC7900088C020020BD020020F7
:1006E00070B51FE0002000F0ABFA0021084600F0D2
:1006F00063FB634B1B78022B2AD0624A012306CA94
:10070000614800F041FB1521192000F055FB5F4ABC
:10071000012306CA5E4800F037FB00F09FFA9620DE
:1007200005F0A9FE5B4B1B78023B062BF7D801A214
:1007300052F823F05F0700081F070008A30700080E
:100740001F07000835080008E7070008E50600084D
:100750004C4A012306CA504800F016FBD3E700209C
:1007600000F06EFA0021084600F026FB474C0123FA
:1007700094E80600494800F007FB0C21002000F037
:100780001BFB474D474B1A884749284606F07AFA23
:10079000012394E80600284600F0F6FA00F05EFA1D
:1007A000BDE7002000F04CFA0021084600F004FBF1
:1007B000364C012394E806003C4800F0E5FA0C2191
:1007C000002000F0F9FA364D394B1A88394928468D
:1007D00006F058FA012394E80600284600F0D4FAFF
:1007E00000F03CFA9BE7002000F02AFA00210846BE
:1007F00000F0E2FA254D012395E806002E4800F0AE
:10080000C3FA284B1C882A4B1B88E41AA4B20C217B
:10081000002000F0D1FA294E22462949304606F040
:1008200031FA012395E80600304600F0ADFA00F0F9
:1008300015FA74E7002000F003FA0021084600F0E2
:10084000BBFA124C012394E806001E4800F09CFA03
:100850000C21002000F0B0FA154B1A88114B1B88B0
:10086000D21A164D92B21649284606F00BFA012309
:1008700094E80600284600F087FA00F0EFF94EE70A
:10088000BE02002000000020D879000810000020DF
:10089000E0790008D8020020D4790008F079000837
:1008A0000803002000030020007A0008087A0008EE
:1008B000C4020020187A0008207A0008C80200202C
:1008C0002C7A0008387A000870B58CB03C4E684627
:1008D00000F0F6FA35466C460FCC0FC50FCC0FC5AD
:1008E00094E8070085E80700364B33604FF48062D8
:1008F000B280B3604FF40072B28133614FF4807301
:10090000B382314BB361304600F0E9FC04460A2261
:100910002E492F4806F0B6F9C82C08D0284800F018
:1009200099FC00232B4A13802B4A138010E0642388
:100930000C222749304600F049FCEFE7274B1B7893
:100940005BBB274B186805F02FFE962005F093FD42
:100950000A2224491A4800F082FC234B18704FF0F9
:10096000FF311F4B186805F0EFFD0028EDD11E4B3D
:100970001B78002BE2D01D4B01221A70194B1A78FC
:100980001B4B1B789A42D9D0194B164A10685168F4
:100990001860596012891A81D0E7104B00221A7032
:1009A0000B4D074C64230C222946204600F00EFC18
:1009B00064230C222946204600F008FCC1E700BF52
:1009C00090020020000002402C020020447A00081F
:1009D000E8020020040300201A030020BF020020C8
:1009E00088020020DC020020F2020020BD0200206C
:1009F000F402002008B50268034B9A4200D008BDFB
:100A000001F0B2FEFBE700BF0000014072B6FEE756
:100A100008B50D480D4B03604FF48273436000230B
:100A20008360C360036143614FF4007282611822E6
:100A3000C2610362436283620A23C36203F0E2F984
:100A400000B908BDFFF7E2FF2C0200200030014092
:100A500008B50B480B4B03600B4B436000238360CE
:100A60004E22C2604FF48042026143618361C361E0
:100A7000036202F0E3F900B908BDFFF7C7FF00BF4A
:100A8000D801002000540040A086010000B595B0B8
:100A90003022002108A806F0EDF800230393049308
:100AA0000593069307930193214A116C41F08051FD
:100AB0001164126C02F080520192019A02931D4A55
:100AC000136823F4404343F400431360136803F4B2
:100AD00040430293029B012308934FF48033099310
:100AE00002230E934FF480030F93192310934FF4B6
:100AF000A8731193042312930723139308A800F0FB
:100B0000A7FF80B90F2303930221049100230593CB
:100B10004FF480520692079303A801F0E9F920B937
:100B200015B05DF804FBFFF771FFFFF76FFF00BF23
:100B3000003802400070004000B591B001F0FAFDAD
:100B4000FFF7A4FFFFF754FCFFF7D6FCFFF760FFA9
:100B5000FFF77EFF00240E940F940EA805F0E9FC29
:100B6000194B1860194B0C930D94224601210CA8C7
:100B700005F088FC164B1860164B0A930B9422461E
:100B800021460AA805F07EFC134B1860134B08930E
:100B900009942246214608A805F074FC104B186001
:100BA0000DF1040C0F4D0FCDACE80F0095E80700D8
:100BB0008CE80700214601A805F02AFC0A4B1860C2
:100BC00005F021FCFEE700BF8802002011030008A9
:100BD0008C02002001030008AC0000200D03000877
:100BE000A8000020A0790008B000002000B587B060
:100BF0008DF817004FF0FF330293012301930DF19D
:100C00001702009200227821024802F0F5F907B09D
:100C10005DF804FBD801002000B585B04FF0FF332C
:100C2000029389B201910090012340227821034868
:100C300002F0E2F905B05DF804FB00BFD801002026
:100C400008B530B900214FF40072034806F012F8DD
:100C500008BDFF21F7E700BF3803002010B50024CE
:100C600012E0A4F15000C0B2FFF7C0FF0020FFF770
:100C7000BDFF1020FFF7BAFF8021054800EBC4102C
:100C8000FFF7CAFF0134E4B2032CEAD910BD00BF5C
:100C90003803002010F0800F10D11F290ED8012A30
:100CA0000DD0CB0800EBC31001F0070101238B40EE
:100CB000DB435BB207490A5C13400B547047CB0817
:100CC00000EBC31001F007018A4002490B5C13439B
:100CD0000B547047380300202DE9F04782B081465D
:100CE00002A800E906001F46A9F12003DBB25E2B33
:100CF00040D8244B1B889DF800603344802B3DDC9A
:100D0000204B5B889DF801A05344202B38DC002544
:100D10001FE01C4B1888598829442044B7FA87F2F1
:100D20005209C9B2C0B2FFF7B5FF0134A6420FD9CC
:100D300008FA04F313F4004FEBD0124B18885988CB
:100D4000294420443A46C9B2C0B2FFF7A3FFECE7FA
:100D50000135AA4508D9A9F1200303FB0A53019ADA
:100D600032F813800024E1E7064B1A8816441E80EF
:100D7000484600E0002002B0BDE8F0870020FAE716
:100D80000020F8E73003002030B583B0044602A805
:100D900000E906001D4600E00134207848B12B46EA
:100DA00002AA12E90600FFF797FF02462078824266
:100DB000F2D003B030BD0000014B1880598070475D
:100DC0003003002010B504468120FFF70FFF2046B6
:100DD000FFF70CFF10BD000008B530B1054B012234
:100DE0005A71AF20FFF702FF08BD024B00225A7173
:100DF000AE20F7E73003002008B5642001F0C6FC00
:100E00000020FFF7E9FF2020FFF7F0FE0020FFF7AA
:100E1000EDFEB020FFF7EAFEC820FFF7E7FE002056
:100E2000FFF7E4FE1020FFF7E1FE4020FFF7DEFEB3
:100E3000FF20FFF7C7FFA120FFF7D8FEA620FFF78E
:100E4000D5FEA820FFF7D2FE1F20FFF7CFFEA4207B
:100E5000FFF7CCFED320FFF7C9FE0020FFF7C6FE48
:100E6000D520FFF7C3FEF020FFF7C0FED920FFF723
:100E7000BDFE2220FFF7BAFEDA20FFF7B7FE022000
:100E8000FFF7B4FEDB20FFF7B1FE2020FFF7AEFE38
:100E90008D20FFF7ABFE1420FFF7A8FE0120FFF71F
:100EA0009BFF0020FFF7CCFEFFF7D8FE034B00228C
:100EB0001A805A8001221A7108BD00BF3003002039
:100EC00040F2B1120262072280F8242080F8252027
:100ED000012280F82620FF2280F82A20642280F850
:100EE0002B20082202857047F8B504460E461746A7
:100EF0001D4600228188006801F0D9F94FF4FA6399
:100F00003A463146A06902F0DCFFA06903F026FBF7
:100F10000128FAD14FF4FA63BDF818202946A069D8
:100F200003F0C7F9A06903F019FB0128FAD10122E7
:100F3000A188206801F0BBF9F8BDF8B504460E465B
:100F400017461D4600228188006801F0B0F94FF471
:100F5000FA633A463146A06902F0B3FFA06903F094
:100F6000FDFA0128FAD14FF4FA63BDF8182029469A
:100F7000A06902F0A6FFA06903F0F0FA0128FAD1F7
:100F80000122A188206801F092F9F8BD00B585B072
:100F900001F07F018DF80E10012200920DF10F0378
:100FA0000DF10E01FFF7A0FF9DF80F0005B05DF8F1
:100FB00004FB00B585B061F07F018DF80E108DF84F
:100FC0000F20012200920DF10F030DF10E01FFF72A
:100FD000B4FF05B05DF804FB38B504460D460121A9
:100FE000FFF7D4FF024645B900F0F8020023E361A1
:100FF00001212046FFF7DDFF38BD013D052DF7D863
:1010000001A353F825F000BF21100008F10F0008DC
:1010100033100008F10F00084510000857100008B1
:1010200020F0070252B242F00102D2B20123E36182
:10103000DEE720F0070252B242F00302D2B20323ED
:10104000E361D5E720F0070252B242F00502D2B2C6
:101050000523E361CCE720F0070252B242F006021A
:10106000D2B20623E361C3E738B50446CA0455117A
:10107000C2F347520621FFF79CFF052001F086FBD3
:101080002A0AD2B207212046FFF793FF052001F07C
:101090007DFB002208212046FFF78BFF052001F091
:1010A00075FB38BD70B506460C2904DC0C460629D4
:1010B00002DC072400E00C241E213046FFF766FF07
:1010C00005460A2001F062FB2201D2B205F00F05AD
:1010D0002A44D2B21E213046FFF76BFF0A2001F0EE
:1010E00055FB70BD08B50A460921FFF762FF0A20CB
:1010F00001F04CFB08BD000008B52C290DD9F029E2
:101100000CD9F021F0291CD81E310F4B83FB012391
:10111000CA17C2EBA302D2B20AE02D217829F1D876
:101120002D39094B83FB0123CA17C2EB6302D2B2EC
:101130002032D2B20B21FFF73CFF0A2001F026FB40
:1011400008BD0022F4E700BF6766666610B5044676
:101150001E21FFF71BFF40F00702D2B21E212046DE
:10116000FFF727FF0A2001F011FB10BD70B582B018
:10117000044615461E4661F07F018DF807100022D7
:101180008188006801F093F84FF4FA6301220DF1B1
:101190000701A06902F095FEA06903F0DFF90128BC
:1011A000FAD14FF4FA6332462946A06902F089FE6B
:1011B000A06903F0D3F90128FAD10122A18820689F
:1011C00001F075F802B070BD012070472DE9F041C3
:1011D00006460F4615461C46D0F81C800121FFF735
:1011E000FBFE0E213046FFF7D1FE02460D213046B0
:1011F000FFF7DFFE2A4622213046FFF7DAFE2B46B4
:101200003A4600213046FFF7B1FF03213046FFF791
:10121000E3FE0FE0FF2212213046FFF7CAFE4146EF
:101220003046FFF7D9FE01252846BDE8F0810120B0
:1012300001F0ACFA12213046FFF7A8FE10F00805C5
:10124000E8D1013CA4B2002CF1D141463046FFF771
:10125000C3FEE9E708B50521FFF7BEFE08BDF8B5F6
:1012600006460C461546002304E04FF0000C04F837
:1012700003C001339D42F8DC01213046FFF7ACFE8C
:1012800012213046FFF782FE10F0400705D10521FC
:101290003046FFF7A1FE3846F8BDFF221221304646
:1012A000FFF787FE13213046FFF770FE0746102137
:1012B0003046FFF76BFE02460D213046FFF779FE00
:1012C000BD4228BF3D46EFB2002505E00021304673
:1012D000FFF75CFE60550135AF42F7DCD7E738B564
:1012E0000446FFF771FF10B940F2F71038BD002136
:1012F0002046FFF771FE0A2001F048FA012120463E
:10130000FFF744FE05460A2001F040FA65F07F022F
:10131000D2B201212046FFF74CFE642001F036FADC
:10132000216A2046FFF7A0FE94F82A102046FFF716
:10133000D9FE94F82B102046FFF7DEFE23220C2165
:101340002046FFF736FE2046FFF700FF94F82410F2
:101350002046FFF7A7FEFF221F212046FFF729FEA8
:1013600094F825201201D2B294F826305B00DBB24B
:101370001A4402F0FE021D212046FFF71AFE228DBC
:10138000120A20212046FFF714FE94F8282021217C
:101390002046FFF70EFE40212046FFF7F7FD40F004
:1013A0003F02D2B240212046FFF703FE0121204632
:1013B000FFF712FE0123E3610A2001F0E7F9422161
:1013C0002046FFF7E3FD122802D04FF4CA708DE7E4
:1013D000C8208BE710B50D4C01220421204600F0F7
:1013E00066FF01220221204600F061FF0023084A27
:1013F0001370084A1370084A1380084A1380084B78
:1014000008221A70074B01221A7010BD0004024016
:1014100002030020C602002000030020C4020020B6
:10142000D80200201803002010B58AB012491348D2
:1014300005F048FC48B10A226946104805F0DAFC7C
:1014400004460F4B1B78834201D10AB010BD4FF008
:10145000FF310C4B186805F077F80028F5D1E4B29D
:10146000094B1C70064B1C70084B01221A70054B6F
:10147000186805F099F8E8E778A10008F402002060
:10148000D802002088020020E60200201803002075
:1014900038B5184B1C78184B1D78A31E062B11D895
:1014A000DFE803F0041004100E0E2200134B1B782B
:1014B000022B02D00125052404E00125032401E0CC
:1014C000012508244FF0FF310D4B186805F03CF85A
:1014D00048B9084B1C70084B1D70082C07D0084BEE
:1014E000186805F061F838BD01252C46EAE7FFF7DA
:1014F00071FFF4E7D802002018030020BE0200208C
:101500008802002010B504460748002303604360AA
:1015100003812246054905F0B5FB054B1B681A59A6
:10152000044B1A6010BD00BFE802002080A1000833
:10153000B87A00081C0300202DE9F047614B1C78A5
:10154000614B1A78614B93F80090614B1E78614BA8
:1015500093F80080604B1F7866B3604B1D786B1E5C
:10156000062B05D8DFE803F008191419311C1C00FC
:101570009246254600261FE0594B1B78022B03D0CC
:10158000AA460026022517E0AA460026042513E0F5
:1015900000264FF0010A02250EE00026B2460BE0BD
:1015A000A54203D000264FF0010A05E092462546E9
:1015B000002601E092462546631E072B62D8DFE82D
:1015C00003F05C0E5C235C4A380900264FF0010AE8
:1015D0000425F1E7002A55D04FF0000A52E022B16D
:1015E00025464FF001094FF0000A3E4C002204212D
:1015F000204600F05CFE01220221204600F057FE4A
:1016000001274FF000083DE022B125464FF00109C7
:101610004FF0000A334C01220421204600F047FE1F
:1016200000220221204600F042FE00274FF0010870
:1016300028E03AB32B4D00220421284600F037FE63
:1016400001220221284600F032FE25464FF0010912
:101650004FF0000A16E0AAB1224D012204212846CB
:1016600000F025FE00220221284600F020FE25463B
:101670004FF001094FF0000A04E00027B8464FF090
:101680000109BA464FF0FF31174B186804F05CFFB0
:1016900008B1BDE8F0870B4B1D702846FFF732FFFD
:1016A000094B83F800A00A4B1E70084B83F800908A
:1016B000094B1F70074B83F800800B4B186804F030
:1016C00073FFE6E7D802002018030020BF020020C5
:1016D000BD020020C602002002030020E602002016
:1016E000BE0200200004024088020020034B036079
:1016F000034B0B6080231360704700BF3807002046
:1017000038050020034B0360034B0B604FF48073DC
:10171000136070478C0B00208C070020FEE7FEE76B
:10172000FEE7FEE7FEE7704708B5012000F0C6FDC2
:1017300008BD000008B5024800F0B2FE08BD00BFB9
:10174000B800002008B5024802F04CFF08BD00BFF9
:10175000E00B002008B5024802F0A2F908BD00BF66
:10176000D801002008B5024802F064FE08BD00BFA1
:101770002C02002008B5024800F092FE08BD00BF10
:101780001801002008B5024800F08AFE08BD00BF1D
:101790007801002008B5094B1B780BB9012800D04F
:1017A00008BD064B01221A70FFF772FE4FF4C87194
:1017B000034B186804F088FEF2E700BFC702002060
:1017C000AC00002000B583B0002200920D4B596C94
:1017D00041F480415964596C01F4804100910099B1
:1017E0000192196C41F0805119641B6C03F0805315
:1017F0000193019B0F216FF0010000F055FF03B032
:101800005DF804FB0038024070B588B000230393F4
:1018100004930593069307930268254B9A4201D0DF
:1018200008B070BD044600250195224E336B43F08D
:1018300002033363336B03F002030193019BC02364
:10184000039312230493032306930423079303A90A
:10185000194800F041FC0295336C43F400133364E3
:10186000336C03F400130293029B1448144B03607F
:101870004FF00073436040238360C5604FF4806382
:10188000036145618561C5610562456200F08EFDB9
:1018900058B90A4B63639C63002205211F2000F0A6
:1018A00003FF1F2000F038FFBAE7FFF7AFF8F0E7BB
:1018B000005400400038024000040240B8000020FC
:1018C000A060024030B589B00023039304930593D0
:1018D000069307930268334B9A4201D009B030BD9A
:1018E00004460025019503F584335A6C42F4805276
:1018F0005A645A6C02F480520192019A02951A6B52
:1019000042F001021A631B6B03F001030293029B76
:10191000E0230393022304930323069305230793F1
:1019200003A9214800F0D8FB2048214B03604FF069
:10193000C063436040238360C5604FF480630361EC
:1019400045618561C5610562456200F02FFD10BBF0
:10195000164BA3649C631748174B03604FF0C0639A
:10196000436000238360C3604FF48062026143617F
:101970008361C3610362436200F018FD70B90D4BCF
:10198000E3649C6300220521232000F08DFE2320C8
:1019900000F0C2FEA2E7FFF739F8D9E7FFF736F803
:1019A000EDE700BF00300140000002407801002058
:1019B00058640240180100201064024030B589B01C
:1019C0000546002401941D4B5A6C42F001025A64F2
:1019D0005B6C03F001030193019B02A903A800F0D3
:1019E0005DFB00F04BFB164AA2FB00239B0C013B66
:1019F0001448154A026040F2E732C2604360046155
:101A00008460846102F0FAFE044610B1204609B0F9
:101A100030BD0C4802F0A6FD04460028F6D119207E
:101A200000F07AFE0F2D01D90124EFE700222946AC
:101A3000192000F039FE054B1D60E7E70038024031
:101A400083DE1B43E00B0020000001401C0000204F
:101A5000002800F0E08170B582B00446036813F0FE
:101A6000010F3BD09F4B9B6803F00C03042B2CD041
:101A70009C4B9B6803F00C03082B21D06368B3F5E3
:101A8000803F4FD0B3F5A02F52D0964B1A6822F466
:101A900080321A601A6822F480221A606368002B70
:101AA00050D000F06DFE05468E4B1B6813F4003FCE
:101AB00014D100F065FE401B6428F5D90320B1E184
:101AC000884B5B6813F4800FD8D0864B1B6813F4E7
:101AD000003F03D06368002B00F09F81236813F060
:101AE000020F54D07F4B9B6813F00C0F3ED07D4B00
:101AF0009B6803F00C03082B33D0E368002B68D0FD
:101B0000794B01221A6000F03BFE0546754B1B68BD
:101B100013F0020F54D100F033FE401B0228F5D918
:101B200003207FE16F4A136843F480331360B5E705
:101B30006C4B1A6842F480221A601A6842F48032B0
:101B40001A60ABE700F01CFE0546664B1B6813F4F9
:101B5000003FC3D000F014FE401B6428F5D90320D9
:101B600060E1604B5B6813F4800FC6D15D4B1B686E
:101B700013F0020F03D0E368012B40F05081594A63
:101B8000136823F0F803216943EAC1031360236853
:101B900013F0080F42D063696BB3534B0122C3F8B3
:101BA000802E00F0EDFD05464E4B5B6F13F0020FEB
:101BB00034D100F0E5FD401B0228F5D9032031E1C6
:101BC000484A136823F0F803216943EAC10313600C
:101BD000DDE7454B00221A6000F0D2FD0546414B7F
:101BE0001B6813F0020FD2D000F0CAFD401B022880
:101BF000F5D9032016E13C4B0022C3F8802E00F0FB
:101C0000BFFD0546374B5B6F13F0020F06D000F0A7
:101C1000B7FD401B0228F5D9032003E1236813F028
:101C2000040F77D02F4B1B6C13F0805F33D1002350
:101C300001932C4B1A6C42F080521A641B6C03F017
:101C400080530193019B0125284B1B6813F4807F6F
:101C500023D0A368012B34D0052B38D0214B1A6F29
:101C600022F001021A671A6F22F004021A67A368B1
:101C7000002B3DD000F084FD06461A4B1B6F13F07D
:101C8000020F46D100F07CFD801B41F28833984260
:101C9000F3D90320C6E00025D6E7144A136843F4BD
:101CA0008073136000F06CFD0646104B1B6813F444
:101CB000807FCED100F064FD801B0228F5D903207F
:101CC000B0E0084A136F43F001031367CFE7054BF9
:101CD0001A6F42F004021A671A6F42F001021A6783
:101CE000C5E700BF003802400000474200700040D6
:101CF00000F046FD0646524B1B6F13F0020F08D052
:101D000000F03EFD801B41F288339842F3D9032056
:101D100088E0EDB9A369002B00F08380484A9268FF
:101D200002F00C02082A51D0022B17D0454B00229A
:101D30001A6600F025FD0446414B1B6813F0007F36
:101D400042D000F01DFD001B0228F5D9032069E0F8
:101D50003B4A136C23F080531364DBE7394B0022BA
:101D60001A6600F00DFD0546354B1B6813F0007F29
:101D700006D000F005FD401B0228F5D9032051E0F4
:101D8000E369226A1343626A43EA8213A26A520831
:101D9000013A43EA0243E26A43EA0263284A536093
:101DA000284B01221A6600F0EBFC0446244B1B680A
:101DB00013F0007F06D100F0E3FC001B0228F5D9E8
:101DC00003202FE000202DE000202BE0012B2BD062
:101DD0001B4B5B6803F48001E269914226D103F05A
:101DE0003F02216A8A4223D1616A47F6C0721A40D3
:101DF000B2EB811F1ED103F44031A26A5208013AAE
:101E0000B1EB024F18D103F07063E26AB3EB026FDB
:101E100014D1002006E001207047012002E00120DB
:101E200000E0002002B070BD0120FBE70120F9E7CF
:101E30000120F7E70120F5E70120F3E70120F1E7B2
:101E4000003802400000474208B5264B9B6803F06B
:101E50000C03042B41D0082B41D1224B5A6802F0CD
:101E60003F025B6813F4800F12D01E4B5968C1F318
:101E700088111D480023A1FB0001FEF7E1F9194B71
:101E80005B68C3F3014301335B00B0FBF3F027E071
:101E9000144B5868C0F388104FEA401CBCEB000C90
:101EA0006EEB0E0E4FEA8E1343EA9C634FEA8C11E1
:101EB000B1EB0C0163EB0E03DB0043EA5173C90085
:101EC00011EB000C43F10003990200234FEA8C2030
:101ED00041EA9C51FEF7B4F9D1E7034800E003481A
:101EE00008BD00BF0038024040787D010024F400A6
:101EF000002800F09B8070B50D4604464F4B1B68D0
:101F000003F007038B4208D2CBB24C4A137013681C
:101F100003F007038B4240F08B80236813F0020F1D
:101F200017D013F0040F04D0454A936843F4E053EC
:101F30009360236813F0080F04D0414A936843F478
:101F4000604393603E4A936823F0F003A1680B431B
:101F50009360236813F0010F32D06368012B21D006
:101F60009A1E012A25D9364A126812F0020F61D052
:101F700033498A6822F0030213438B6000F000FCAF
:101F800006462F4B9B6803F00C036268B3EB820F8D
:101F900016D000F0F5FB801B41F288339842F0D94F
:101FA000032042E0264A126812F4003FE0D10120EB
:101FB0003BE0234A126812F0007FD9D1012034E0BF
:101FC0001E4B1B6803F00703AB4207D9EAB21B4B59
:101FD0001A701B6803F00703AB422DD1236813F07E
:101FE000040F06D0164A936823F4E053E1680B43CC
:101FF0009360236813F0080F07D0114A936823F405
:102000006043216943EAC1039360FFF71DFF0C4B56
:102010009B68C3F303130B4AD35CD8400A4B186088
:102020000A4B1868FFF7CAFC002070BD01207047FA
:102030000120FAE70120F8E70120F6E7003C024022
:102040000038024090A10008200000201C00002061
:10205000014B1868704700BF2000002008B5FFF74B
:10206000F7FF044B9B68C3F38223034AD35CD84039
:1020700008BD00BF00380240A0A1000808B5FFF766
:10208000E7FF044B9B68C3F34233034AD35CD84059
:1020900008BD00BF00380240A0A100080F23036064
:1020A0000B4B9A6802F0030242609A6802F0F00259
:1020B00082609A6802F4E052C2609B68DB0803F415
:1020C000E0530361034B1B6803F007030B60704789
:1020D00000380240003C024000230F2B00F2D78062
:1020E00070B582B065E085684FEA430E032404FAB8
:1020F0000EF425EA0405CC6804FA0EF42C4384603F
:10210000446824EA02044A68C2F300129A40224357
:1021100042605CE0DC08083450F8242003F0070536
:10212000AD004FF00F0E0EFA05FE22EA0E0E0A6900
:10213000AA4042EA0E0240F824205CE0042200E0BB
:10214000002202FA0EF22A430234514D45F82420AF
:10215000504A94686FEA0C0224EA0C054E6816F4A3
:10216000801F01D04CEA04054A4CA560E46802EAED
:1021700004054E6816F4001F01D04CEA0405454CD6
:10218000E560646802EA04054E6816F4003F01D079
:102190004CEA04053F4C6560246822404D6815F404
:1021A000803F01D04CEA04023A4C226001330F2BED
:1021B0006BD801229A400C6804EA020C32EA04044B
:1021C000F4D14C6804F00304013C012C8BD94A681B
:1021D00002F00302032A09D0C4685D000322AA406A
:1021E00024EA02048A68AA402243C2604A6802F0D4
:1021F0000302022A8ED004684FEA430E032202FA39
:102200000EF224EA02044A6802F0030202FA0EF215
:10221000224302604A6812F4403FC7D00022019274
:102220001D4A546C44F480445464526C02F480425D
:102230000192019A9C08A51C154A52F8255003F0FA
:10224000030E4FEA8E0E0F2202FA0EF225EA020565
:10225000124A90423FF474AF02F5806290420ED071
:1022600002F5806290420CD002F5806290420AD062
:1022700002F5806290423FF461AF072261E70122DC
:102280005FE702225DE703225BE702B070BD7047A3
:1022900000380140003C014000380240000002408C
:1022A0000369194201D001207047002070470AB12C
:1022B00081617047090481617047000008B5054BD2
:1022C0005B69034200D108BD024B5861FFF762FA17
:1022D000F9E700BF003C014010B40368D9B21039DF
:1022E0000C4AA2FB014212090B4CA25CC2655F2999
:1022F00009D923F47F7323F0030304338365806DCE
:102300005DF8044B704723F47F7323F00303836568
:10231000F5E700BFABAAAAAA88A10008836A826970
:1023200092B9012B0AD0022B02D00BB100207047CA
:10233000C36A13F0807F28D100207047C36AB3F1CD
:10234000C07F24D000207047B2F5005F09D0022B77
:1023500025D9032B25D1C36A13F0807F23D1002018
:102360007047032B03D8DFE803F01404140A00209D
:102370007047C36A13F0807F0DD100207047C36A95
:10238000B3F1C07F09D000207047012070470120C1
:1023900070470120704701207047012070470120DD
:1023A00070470020704701207047000070B5044658
:1023B00000F0E6F9002C5BD00546022384F83530A6
:1023C000002384F834302268136823F0010313607B
:1023D00023681A6812F0010F0AD000F0D1F9431BEC
:1023E000052BF5D920236365032084F8350070BDE3
:1023F0001A68204911406268A0680243E0680243FD
:102400002069024360690243A0690243E069024314
:10241000206A02430A43616A04291ED01A602668B2
:10242000756925F00705636A1D43042B07D1A36A6C
:102430001D43E36A1BB12046FFF770FF90B9756139
:102440002046FFF749FFE26D3F2393408360002061
:102450006065012384F83530C9E7E16A206B0143E8
:102460000A43DBE740236365012084F83500BEE7BB
:102470000120BCE73F8010F090F83530DBB2022B32
:1024800003D08023436501207047052380F8353051
:102490000268136823F001031360002070470000F6
:1024A000F0B583B0044600230193724B1D68724B54
:1024B000A3FB0535AD0A876D3E68C26D08239340C6
:1024C000334210D003681A6812F0040F0BD01A6858
:1024D00022F004021A60C26D08239340BB60436D72
:1024E00043F001034365E26D01239340334209D079
:1024F0002268526912F0800F04D0BB60636D43F014
:1025000002036365E26D04239340334209D02268DD
:10251000126812F0020F04D0BB60636D43F0040335
:102520006365E26D10239340334224D02268126821
:1025300012F0080F1FD0BB6023681A6812F4802FB6
:102540000DD01B6813F4002F04D1236C9BB12046DF
:10255000984710E0A36C73B1204698470BE01A68C7
:1025600012F4807F03D11A6822F008021A60236CEB
:102570000BB120469847E26D20239340334255D05B
:102580002268126812F0100F50D0BB6094F83530FA
:10259000DBB2052B0ED023681A6812F4802F33D0DB
:1025A0001B6813F4002F2AD1636C002B3ED0204609
:1025B00098473BE02268136823F0160313602268F3
:1025C000536923F080035361236CA3B1226813681D
:1025D00023F008031360E26D3F239340BB600123A7
:1025E00084F83530002384F83430236D002B3FD03D
:1025F000204698473CE0A36C002BE7D1EBE7E36B68
:10260000A3B12046984711E01A6812F4807F09D1DF
:102610001A6822F010021A60012384F83530002372
:1026200084F83430E36B0BB120469847636DFBB1FF
:10263000636D13F0010F17D0052384F8353022683D
:10264000136823F001031360019B01330193AB4234
:1026500004D823681B6813F0010FF5D1012384F817
:102660003530002384F83430E36C0BB120469847B2
:1026700003B0F0BD20000020B5814E1B90F835005E
:1026800070470000074AD36823F4E0631B041B0C67
:10269000000200F4E060034343F0BF6343F40033FF
:1026A000D360704700ED00E000B5194BDB68C3F361
:1026B0000223C3F1070CBCF1040F28BF4FF0040C38
:1026C00003F1040EBEF1060F18D9033B4FF0FF3E95
:1026D0000EFA0CFC21EA0C0199400EFA03FE22EAE4
:1026E0000E020A4300280BDB1201D2B200F1604057
:1026F00000F5614080F800235DF804FB0023E5E766
:1027000000F00F001201D2B2024B1A54F4E700BFDE
:1027100000ED00E014ED00E0002807DB00F01F02F0
:10272000400901239340024A42F82030704700BF1D
:1027300000E100E008B50B4B1A6842F400721A6021
:102740001A6842F480621A601A6842F480721A6051
:102750000320FFF797FF0F20FFF730F9FFF732F85C
:10276000002008BD003C0240034A1168034B1B785F
:102770000B441360704700BF280C00201800002095
:10278000014B1868704700BF280C002038B504467C
:10279000FFF7F6FF0546B4F1FF3F02D0044B1B786C
:1027A0001C44FFF7EDFF401BA042FAD338BD00BF29
:1027B0001800002090F83E30DBB2402B10D00369A7
:1027C000B3F5804F1BD0036D002B39D1436CC3F39D
:1027D000C813026803F0060343F0F0031361704767
:1027E000036D2BB9436C026803F0FE03136170475D
:1027F000436C026843F00103DBB21361704790F849
:102800003D30DBB2212B0FD0436C026843F0010353
:10281000DBB21361436B6BB1DB6B5BB10268536876
:1028200043F4006353607047436C026803F0FE0397
:102830001361EFE7836B33B1DB6B002BEED102E06A
:10284000036D012B00D07047436CC3F3C8130268BB
:1028500003F0060343F0F1031361F4E7436C0268ED
:10286000DBB21361436B3BB1DB6B2BB10268536886
:1028700043F4006353607047836B002BFBD0DB6B2A
:10288000002BF3D1F7E7000010B48BB090F83E3086
:10289000DAB2C16A046B90F83D30DBB2222B0BD068
:1028A0000023099303685A6909929B690993099B5C
:1028B0000BB05DF8044B7047036D0BB9402A17D07D
:1028C000036D1BB90369B3F5404F19D0438D9BB21B
:1028D000002B25D1029303685A6902929A690292E9
:1028E000029A1A6842F400721A6000230365DFE757
:1028F000009303685A6900929B690093009BD7E795
:102900000023019303685A6901929A690192019A1E
:102910001A6842F480721A60036D01330365C7E7D9
:10292000438D9BB2012B1CD0438D9BB2022B73D0E5
:102930000268136843F48063136003685A6812F4F2
:10294000006F00F0AA80202900F2B080082980F0F2
:102950009D80012940F0A1805A6842F480525A605B
:102960009BE011F5803F1AD008293DD020293BD0AB
:10297000122C37D0102904D84E4BCB4013F0010F46
:1029800044D10268136823F4806313600023059325
:1029900003685A6905929B690593059BA5E7026840
:1029A000136823F48063136003685A6812F4006F9D
:1029B0000CD01A6822F480621A6000230393036823
:1029C0005A6903929B690393039B8EE7002204924A
:1029D0005A6904929A690492049A1A6842F400723D
:1029E0001A6082E70129C5D00268136823F4806366
:1029F00013600023069303685A6906929A69069247
:102A0000069A1A6842F400721A606EE70268136848
:102A100043F480631360B9E7102904D8254BCB40F9
:102A200013F0010F19D10268136823F48063136057
:102A30000268136843F40063136003685A6812F471
:102A4000006F16D020291DD808290CD2012910D1D9
:102A50005A6842F480525A600BE00268136843F4EB
:102A600080631360E9E70839134ACA4012F0010F86
:102A7000EED10023079303685A6907929B69079375
:102A8000079B32E711F5803FF3D1E1E708390A4AA5
:102A9000CA4012F0010F7FF45FAF00230893036870
:102AA0005A6908929B690893089B1EE711F5803FBD
:102AB000F3D151E71400010001010001438D9BB2E5
:102AC0005BB1426A036812781A61436A0133436258
:102AD000438D9BB2013B9BB243857047438D9BB2B4
:102AE0005BB103681A69436A1A70436A013343622F
:102AF000438D9BB2013B9BB24385704782B000235C
:102B000001930E4B1B68DB080D4AA2FB03231B0A33
:102B100003EB83030193019B013B0193019B33B1C1
:102B200003681B6813F4007FF5D1002004E0036CF8
:102B300043F020030364012002B07047200000200E
:102B400089B5F81403685A6912F4806F01D1002026
:102B500070476FF480625A6100230363202280F87B
:102B60003D2080F83E30026C42F00402026480F89E
:102B70003C3001207047C36AB3F52A0F04D0C36A02
:102B8000B3F12A4F03D070470123C3627047082373
:102B9000C362F8E72DE9F04107460D4690461E4610
:102BA00024E0FFF7EDFD069BC01AB04200D8EEB955
:102BB00000233B63202287F83D2087F83E303A6CA3
:102BC00042F020023A6487F83C3001201EE03B6866
:102BD0009C6925EA040C1FFA8CFCBCFA8CFC4FEAB9
:102BE0005C1CE04511D1B6F1FF3FDAD1C5F30743D4
:102BF000012BECD13B685B6925EA030C1FFA8CFCC6
:102C0000BCFA8CFC4FEA5C1CEBE70020BDE8F081CD
:102C10002DE9F04105460E46174698463DE01A68F4
:102C200042F400721A602B686FF480625A610023CC
:102C30002B63202285F83D2085F83E302A6C42F037
:102C400004022A6485F83C30012034E0FFF798FD47
:102C5000A0EB0800B84200D8FFB900232B63202264
:102C600085F83D2085F83E302A6C42F020022A6427
:102C700085F83C3001201EE02B689C6926EA04049C
:102C8000A4B2003C18BF0124A4B12B685A6912F405
:102C9000806FC4D1B7F1FF3FD8D1C6F30743012BF2
:102CA000EAD12B685C6926EA0404A4B2003C18BF90
:102CB0000124E9E70020BDE8F08170B504460D4627
:102CC000164623685B6913F0800F1CD12046FFF77E
:102CD00039FFD0B9B5F1FF3FF3D0FFF751FD801BAD
:102CE000A84201D8002DECD100232363202284F8D0
:102CF0003D2084F83E30226C42F02002226484F8A9
:102D00003C30012000E0002070BD0120FCE7000005
:102D10002DE9F04385B004460D4691461F46DDF887
:102D200030800D9E0368196841F480711960009627
:102D3000434600224FF00111FFF72CFF60B92368D2
:102D400005F0FE051D613346424626492046FFF741
:102D50005FFF68B1012008E023681B6813F4807FDF
:102D600002D04FF400732364032005B0BDE8F08364
:102D70000023039323685A6903929B690393039B7F
:102D8000324641462046FFF798FF30B9012F0FD158
:102D900023685FFA89F61E61E7E7236C042B01D0F4
:102DA0000120E2E72268136843F400731360F7E739
:102DB00023684FEA19221A61324641462046FFF73E
:102DC0007CFF20B923685FFA89F61E61CDE7236C8A
:102DD000042B01D00120C8E72268136843F4007374
:102DE0001360F7E70200010070B504460D46164671
:102DF00023685B6913F0040F1CD12046FFF7A2FE85
:102E0000D0B9B5F1FF3FF3D0FFF7BAFC801BA84261
:102E100001D8002DECD100232363202284F83D202B
:102E200084F83E30226C42F02002226484F83C3068
:102E3000012000E0002070BD0120FCE7002800F028
:102E4000CC8070B5044690F83D30002B77D0242319
:102E500084F83D302268136823F001031360226870
:102E6000136843F4004313602268136823F400439B
:102E70001360FFF7F3F862685A4B9A4264D85A4BD2
:102E800098428CBF00230123002B40F0A8805749B3
:102E9000A1FB00318B0C25686A6822F03F0242EAF0
:102EA00091426A6021680A6A22F03F0266684D4DCD
:102EB000AE424FD8013313430B622168CA6922F432
:102EC0004F4222F0FF026568464B9D424CD8431E9C
:102ED0006D00B3FBF5F3013340F6FC70034278D08C
:102EE000C3F30B031A43CA6121680B6823F0C003C4
:102EF000E269206A024313430B6021688B6823F464
:102F0000034323F0FF032269E068024313438B600D
:102F10002168CB6823F0FF036269A0690243134371
:102F2000CB602268136843F0010313600020206423
:102F3000202384F83D30206384F83E0070BD80F883
:102F40003C30FEF761FC82E7294B98428CBF00239E
:102F5000012399E74FF4967505FB03F3254DA5FB77
:102F600003539B090133A6E7A668BEB9431E05EBD0
:102F7000450CB3FBFCF30133C3F30B03B3FA83F348
:102F80005B0943BBC6B9431E05EB4505B3FBF5F32F
:102F90000133C3F30B0343F40043A3E7431E05EBE4
:102FA000850C0CEB8C0CB3FBFCF30133C3F30B036C
:102FB000B3FA83F35B09E4E7431E05EB850505EBF4
:102FC0008505B3FBF5F30133C3F30B0343F440432F
:102FD00088E7042386E7012384E701207047012066
:102FE000ACE700BFA08601007F841E0083DE1B4388
:102FF000FF083D00D34D62102DE9F04383B0044635
:103000000F46904699460C9EFFF7BAFB054694F88A
:103010003D00C0B2202803D0022003B0BDE8F083F9
:103020000095192301224B492046FFF7B3FD0028E4
:1030300040F0898094F83C30012B00F08680012319
:1030400084F83C3023681A6812F0010F03D11A6823
:1030500042F001021A602268136823F400631360CF
:10306000212384F83D30402384F83E30002323643C
:103070000A9B6362BDF82C306385638D2385364BD4
:10308000E362019500964B46424639462046FFF7DB
:103090003FFE00285BD1238D002B35D02A463146D8
:1030A0002046FFF70AFE20BB626A236812781A6185
:1030B000626A531C6362218D013989B22185638D57
:1030C0009BB2013B9BB263852368586910F0040FE3
:1030D000E1D00029DFD052781A61636A013363625C
:1030E000238D013B2385638D9BB2013B9BB263859E
:1030F000D1E7236C042B01D001208EE722681368EE
:1031000043F400731360F7E72A4631462046FFF781
:103110006BFE50B1236C042B01D001207DE72268A7
:10312000136843F400731360F7E72268136843F4ED
:1031300000731360202384F83D30002384F83E3070
:1031400084F83C3069E7022067E7022065E7012048
:1031500063E700BF020010000000FFFF70477047E8
:10316000704708B590F83D30DAB2438D9BB283B119
:10317000416A036809781961436A01334362438DE8
:103180009BB2013B9BB24385438D9BB20BB9292A6D
:1031900000D008BD0268536823F480635360212384
:1031A0000363282380F83D30FFF7DAFFF1E770472B
:1031B00008B590F83D30DAB2438D9BB283B1036815
:1031C0001969436A1970436A01334362438D9BB2A4
:1031D000013B9BB24385438D9BB20BB92A2A00D099
:1031E00008BD0268536823F480635360222303639D
:1031F000282380F83D30FFF7DAFFF1E7704700B58C
:1032000083B090F83D3003F02803282B0CD0002326
:10321000019302685169019192690192019A80F8C3
:103220003C3003B05DF804FB0268536823F480630C
:10323000536011F0040F0BD0002311F0800F09D15F
:103240008289002180F83C101946FFF7D7FFE8E794
:103250000123F2E7028BF4E77047704708B5C26AB2
:1032600090F83D30DBB2212B00D008BD438D9BB2DE
:1032700063B1426A036812781A61436A0133436298
:10328000438D9BB2013B9BB24385EEE7082A04D0F5
:10329000202A02D012F5803F19D10268536823F426
:1032A000E06353600268136843F400731360002303
:1032B0000363202380F83D3090F83E30DBB2402B92
:1032C00015D0002380F83E30FFF748FFCDE70268B5
:1032D000536823F4E063536011230363002380F8F1
:1032E0003E30202380F83D30FFF738FFBDE7002354
:1032F00080F83E30FFF7B1FFB7E708B590F83D30F2
:10330000026D9AB9C36C012B08D0836CC3F30723F9
:1033100002681361036D0133036508BD836C0268A5
:10332000DBB21361036D02330365F6E7DBB2026DB6
:10333000012A23D0026D022AEFD1222B26D0428D02
:1033400092B20AB1212B2AD0428D92B2002AE4D146
:10335000212BE2D10268536823F4E06353600268D2
:10336000136843F40073136000230363202280F882
:103370003D2080F83E30FFF770FFCEE7836C026897
:10338000DBB21361036D01330365C6E7026813689E
:1033900043F480731360036D01330365BDE7426A34
:1033A000036812781A61436A01334362438D9BB20A
:1033B000013B9BB24385B0E710B590F83D30DBB2DE
:1033C00090F83E20D2B2C46A018D09B9212B04D0F5
:1033D000212B3BD0402A37D010BD082C04D0202C04
:1033E00002D014F5803F19D10268536823F4E063DA
:1033F00053600268136843F400731360002303638F
:10340000202380F83D3090F83E30DBB2402B15D0C1
:10341000002380F83E30FFF7A1FEDDE70268536825
:1034200023F4E063536011230363002380F83E30EC
:10343000202380F83D30FFF791FECDE7002380F890
:103440003E30FFF70AFFC7E7222BC5D1438D9BB261
:103450002BB90268536823F480635360BCE790F88B
:103460003E30DBB2402B0CD0426A036812781A61FE
:10347000436A01334362438D9BB2013B9BB2438558
:10348000AAE7FFF73AFFA7E7704708B5C26A438D7E
:103490009BB2042B14D0438D9BB2032B22D0438DBF
:1034A0009BB2022B39D003681A69436A1A70436AC7
:1034B00001334362438D9BB2013B9BB2438510E0D5
:1034C0000268536823F48063536003681A69436A8F
:1034D0001A70436A01334362438D9BB2013B9BB236
:1034E000438508BD01684B6823F480634B60042A60
:1034F00006D0022A04D00268136823F480631360A4
:1035000003681A69436A1A70436A01334362438D40
:103510009BB2013B9BB24385E3E7013A0F2A40D8B7
:10352000DFE802F008393F393F3F3F3F3F3F3F3F31
:103530003F3F3F080268136823F480631360036809
:103540001A69436A1A70426A531C4362438D9BB2E4
:10355000013B9BB2438503681B695370436A013387
:103560004362438D9BB2013B9BB243850268536823
:1035700023F440735360202380F83D3090F83E30B0
:10358000DBB2402B13D0002380F83E3012230363BC
:10359000FFF7E5FDA5E70268136843F48063136055
:1035A000CDE70268136843F400731360C7E7002394
:1035B00080F83E300363FFF767FF92E7704790F8AB
:1035C0003D30DBB2222B00D0704710B50446438D4E
:1035D0009BB2032B15D903681A69436A1A70436AB0
:1035E00001334362438D9BB2013B9BB24385438DC4
:1035F0009BB2032B0FD10268536823F4806353609E
:1036000009E0C26A022A01D0012B05D92268536859
:1036100023F48063536010BDFFF770FA00282ED1A9
:103620002268136823F4806313602268536823F4CC
:10363000E063536023681A69636A1A70636A01332E
:103640006362638D9BB2013B9BB26385202384F848
:103650003D3094F83E30DBB2402B08D0002384F894
:103660003E30122323632046FFF779FDD3E7002382
:1036700084F83E3023632046FFF706FFCBE722683D
:10368000536823F4E063536023681A69636A1A700D
:10369000636A01336362638D9BB2013B9BB26385B6
:1036A000202384F83D30002384F83E302046FFF785
:1036B00085FFB0E77047000000B583B00023019399
:1036C000806B90F83D20D2B2324B1B68DB08324948
:1036D000A1FB03131B0A03EB8303C3EBC303019397
:1036E000019B43B1019B013B019303681B6813F4E9
:1036F000007FF5D103E0036C43F020030364436BC8
:103700000BB10021D963836B0BB10021D963016830
:103710000B6823F480630B6000234385436B0BB17C
:1037200000211965836B0BB10021196501680B68D5
:1037300023F001030B6090F83D30DBB2602B0ED01C
:1037400002F02802282A14D0202380F83D300023DC
:1037500080F83E30FFF732FF03B05DF804FB202312
:1037600080F83D30002380F83E300364FFF7A2FF6D
:10377000F2E70268136843F00103136002681368FC
:1037800043F48063136000230363282380F83D30F3
:10379000E0E700BF2000002089B5F81410B504460A
:1037A00090F83D30DBB290F83E20D2B2102A36D0ED
:1037B000402A34D003F02802282A38D022685268E0
:1037C00012F4006F07D1602B05D0202384F83D3020
:1037D000002384F83E300023236323685A6812F4E0
:1037E000006F48D05A6822F400625A60626B92F807
:1037F0003530DBB2012B20D0444B1365606BFEF7F4
:103800003BFE002849D02268136823F001031360AF
:10381000202384F83D30606B036D98473DE0222BF8
:10382000C8D121680A6822F400620A60C2E7002356
:103830002363282384F83D30CFE7A36B334A1A650E
:10384000A06BFEF719FE40B323685A6912F0400FCF
:1038500005D01A69636A1A70636A01336362226869
:10386000136823F001031360202384F83D30A06B1C
:10387000036D984711E094F83D20D2B2602A1FD022
:103880005A6912F0400F05D01A69636A1A70636AA8
:10389000013363622046FFF791FE236C13F00F0F94
:1038A00004D02268536823F4E063536094F83D30F9
:1038B000DBB2226C12F0040F01D0282B18D010BDFF
:1038C000202284F83D20002222645A6912F0400F21
:1038D00005D01A69636A1A70636A013363622268E9
:1038E000136823F0010313602046FFF7E3FED4E7DB
:1038F000074BE36200232363202284F83D2084F8F1
:103900003E302046FFF7A8FCD9E700BFB9360008D3
:103910000000FFFF30B583B0044690F83D50EDB293
:103920000268536823F4E063536000230193036843
:103930005A6901921A6842F001021A60019B0268FA
:10394000136823F48063136003685A6812F4006FED
:1039500038D0222D21D02A2D1FD0426B12685268F8
:1039600092B24285428D92B21AB1026C42F00402C8
:1039700002645A6822F400625A60606BFEF77EFEB1
:1039800001281FD0636B444A1A65606BFEF774FD13
:10399000C0B1606B036D984714E0A26B1268526867
:1039A00092B26285628D92B21AB1226C42F0040228
:1039B00022645A6822F400625A60A06BFEF75EFE31
:1039C000012842D1638D9BB233B323685A6912F048
:1039D000040F0AD01A69636A1A70636A013363625A
:1039E000638D9BB2013B9BB2638523685A6912F0D9
:1039F000400F0AD01A69636A1A70636A01336362FE
:103A0000638D9BB2013B9BB26385638D9BB21BB1FF
:103A1000236C43F004032364236C13BB2A2D25D0AD
:103A200094F83D30DBB2282B29D0236B222B01D018
:103A3000222D19D100232363202284F83D2084F80D
:103A40003E302046FFF7B3FB0EE0A36B124A1A6527
:103A5000A06BFEF711FD0028B4D0A06B036D984752
:103A6000B0E72046FFF79AFE03B030BD0023236382
:103A7000282384F83D302046FFF799FBD0E7074B19
:103A8000E36200232363202284F83D2084F83E3043
:103A90002046FFF7E1FBE7E7B93600080000FFFF2B
:103AA000F8B5044602685568C66A90F83E30DBB245
:103AB00090F83D10C8B2102B13D0402B11D0236CBE
:103AC000002B7AD05369002113F0020F78D015F43F
:103AD000007F75D0236C03B191692046FFF78FFBFF
:103AE000F8BDD2F818C0516911F0010705D1B6F53B
:103AF0002A0FF5D0B6F12A4FF2D017B115F4007F96
:103B000029D111F0080F02D015F4007F2AD111F04D
:103B1000020F02D015F4007F28D11CF0040F31D021
:103B2000526812F4006FDBD111F0800F05D015F44C
:103B3000806F02D011F0040F1CD011F0040FCFD011
:103B400015F4007FCCD0212818D0402BC8D12046B6
:103B5000FFF7D3FBC4E72046FFF70DF82046FEF73A
:103B600029FEBDE72046FEF779FEB9E72046FEF7BD
:103B70008BFEB5E72046FFF71FFCB1E72046FFF7B5
:103B80006DFBADE7536813F4006FA9D111F0400F3E
:103B900005D015F4806F02D011F0040F09D011F098
:103BA000040F9DD015F4007F9AD02046FFF76DFCDE
:103BB00096E72046FFF703FD92E79169536983E793
:103BC00013F0100F02D015F4007F18D121281AD05D
:103BD000292818D013F0400F05D015F4806F02D0BB
:103BE00013F0040F28D013F0040F3FF479AF15F44D
:103BF000007F3FF475AF2046FEF770FF70E7204668
:103C0000FFF788FE6CE713F0800F05D015F4806F86
:103C100002D013F0040F0BD013F0040F3FF460AF89
:103C200015F4007F3FF45CAF2046FEF747FF57E7EF
:103C30002046FFF796FA53E72046FFF7B9FA4FE719
:103C40002DE9F04782B00546884617461E46FEF726
:103C500097FD0A9B1B1A03EB0609FEF791FD8246AE
:103C60002A4B1B68C3F3CB3309FB03F301932B6887
:103C70009C6838EA04040CBF01230023BB4240D0F7
:103C8000B6F1FF3FF3D0FEF77BFDA0EB0A004845FD
:103C90000AD2B9F1000F07D0019A02B14A46019B3E
:103CA000013B01939146E2E72A68536823F0E00361
:103CB00053606B68B3F5827F0BD0AB6AB3F5005FDE
:103CC00014D0012385F85130002385F850300320AB
:103CD00018E0AB68B3F5004F02D0B3F5806FECD1BC
:103CE0002A68136823F040031360E6E72A68136824
:103CF00023F4005313602A68136843F400531360DD
:103D0000DFE7002002B0BDE8F08700BF2000002000
:103D100010B584B00446164B1868164BA3FB003050
:103D2000400D4FF47A7303FB00F003906368B3F522
:103D3000827F0BD0039BBBB1039B013B03932368A2
:103D40009B6813F0800FF5D100200EE000920B4627
:103D5000002280212046FFF773FF30B1636D43F0EE
:103D600020036365032000E0002004B010BD00BF05
:103D700020000020819F5E1610B582B004460B46DD
:103D80004168B1F5827F14D06168B1F5827F2AD194
:103D9000A168B1F5806F19D00092002280212046E1
:103DA000FFF74EFF30B3636D43F0200363650320DC
:103DB00020E08168B1F5004F02D0B1F5806FE3D10A
:103DC0002068016821F040010160DDE700920022D7
:103DD00001212046FFF734FF60B1636D43F02003FB
:103DE0006365032006E00092002201212046FFF7D0
:103DF00027FF08B902B010BD636D43F0200363656F
:103E00000320F7E700285AD010B50446436A33B9B7
:103E10004368B3F5827F05D00023C36102E000232D
:103E2000036143610023A36294F85130002B40D01A
:103E3000022384F851302268136823F04003136092
:103E4000636803F48273A26802F404421343E268D5
:103E500002F400621343226902F002021343626912
:103E600002F001021343A26902F400721343E269F3
:103E700002F038021343226A02F080021343A26A5E
:103E800002F40052216813430B60638B03F00403B8
:103E9000626A02F01002216813434B602268D36902
:103EA00023F40063D36100206065012384F851305E
:103EB00010BD84F850302046FDF704FDB8E701201E
:103EC00070472DE9F04383B01D4690F85030012B28
:103ED00000F0D180044688469146012380F8503096
:103EE000FEF74EFC074694F85160F6B2012E40F002
:103EF000AF80B8F1000F00F0AC80B9F1000F00F016
:103F0000A880032384F8513000236365C4F830800F
:103F1000A4F83490A4F83690A363A387E38763647E
:103F20002364A368B3F5004F1ED023681A6812F00B
:103F3000400F03D11A6842F040021A60E368B3F5FB
:103F4000006F1CD0636813B1B9F1010F52D1226B1D
:103F5000236812781A73236B01332363E38E9BB2B9
:103F6000013B9BB2E38645E02268136823F04003DF
:103F700013602268136843F480431360D5E76368D5
:103F800013B1B9F1010F16D1226B23681288DA60E0
:103F9000236B02332363E38E9BB2013B9BB2E38628
:103FA00009E0FEF7EDFBC01BA84202D3B5F1FF3FCD
:103FB00059D1002D59D0E38E9BB2002B33D023680A
:103FC0009A6812F0020FECD0226B1288DA60236B31
:103FD00002332363E38E9BB2013B9BB2E386EAE7A5
:103FE000FEF7CEFBC01BA84202D3B5F1FF3F3ED186
:103FF000002D3ED0E38E9BB2ABB123689A6812F0DD
:10400000020FEDD0226B12781A73236B01332363F6
:10401000B4F836C01FFA8CFC0CF1FF3C1FFA8CFC84
:10402000A4F836C0E6E73A4629462046FFF770FE78
:1040300008B120236365A36833B901932368DA6864
:1040400001929B680193019B636D13B9002600E008
:104050000226012384F85130002384F85030304682
:1040600003B0BDE8F0830326F3E70326F1E7032658
:10407000EFE70326EDE70226F1E72DE9F04383B0F1
:104080001F460A9D90F85030012B00F01081044625
:1040900088469146012380F85030FEF771FB0646B2
:1040A00094F85130DBB26268012B0AD0B2F5827FFE
:1040B00040F0E380A268002A40F0E980042B40F041
:1040C000E880B8F1000F00F0E680B9F1000F00F0D1
:1040D000E480002F00F0E38094F85130DBB2042B31
:1040E00002D0052384F8513000236365C4F838906A
:1040F000E787A787C4F83080E786A78623646364D0
:1041000023681A6812F0400F03D11A6842F0400287
:104110001A60E368B3F5006F11D063680BB1012F2B
:104120000BD1226B236812781A73236B013323633C
:10413000E38E9BB2013B9BB2E38601276BE0636891
:104140000BB1012F0BD1226B23681288DA60236B2D
:1041500002332363E38E9BB2013B9BB2E3860127CC
:104160001CE023689A6812F0010F0ED0E28F92B221
:104170005AB1DA68A36B1A80A36B0233A363E38F8F
:104180009BB2013B9BB2E3870127FEF7F9FA801B44
:10419000A84203D3B5F1FF3F40F08380E38E9BB28A
:1041A0001BB9E38F9BB2002B53D023689A6812F09F
:1041B000020FD6D0E28E92B2002AD2D0002FD0D0F9
:1041C000226B1288DA60236B02332363E38E9BB287
:1041D000013B9BB2E3860027C3E723689A6812F08D
:1041E000010F0ED0E28F92B25AB1DA68A36B1A7047
:1041F000A36B0133A363E38F9BB2013B9BB2E387C5
:104200000127FEF7BDFA831BAB4202D3B5F1FF3F96
:1042100049D1002D49D0E38E9BB213B9E38F9BB2F5
:10422000BBB123689A6812F0020FD6D0E28E92B228
:10423000002AD2D0002FD0D0226B12781A73236BB1
:1042400001332363E38E9BB2013B9BB2E3860027DD
:10425000C3E7324629462046FFF75AFD48B9A3680E
:1042600063B901932368DA6801929B680193019B0B
:1042700004E020236365012000E00220012384F88C
:104280005130002384F8503003B0BDE8F0830220A1
:10429000F4E70220F2E70120F0E70120EEE7012039
:1042A000ECE70320EAE70320E8E70320E6E7022043
:1042B000EAE72DE9F04383B00446884691461D465F
:1042C0004068B0F5827F38D094F85030012B00F070
:1042D000AE80012384F85030FEF752FA074694F876
:1042E0005160F6B2012E40F08F80B8F1000F00F05F
:1042F0008C80B9F1000F00F08880042384F85130DD
:1043000000236365C4F83880A4F83C90A4F83E907C
:104310002363A386E38623646364A368B3F5004F35
:1043200019D023681A6812F0400F03D11A6842F0BE
:1043300040021A60E3681BB341E0A368002BC3D1BD
:10434000042384F85130009513460A462046FFF7AF
:1043500094FE06465FE02268136823F04003136072
:104360002268136823F480431360DAE7FEF708FA43
:10437000C01BA84202D3B5F1FF3F50D1002D50D051
:10438000E38F9BB2002B33D023689A6812F0010FA1
:10439000ECD0A26B1B7B1370A36B0133A363E38F81
:1043A0009BB2013B9BB2E387EAE7FEF7E9F9C01B4A
:1043B000A84202D3B5F1FF3F35D1002D35D0E38FB0
:1043C0009BB2ABB123689A6812F0010FEDD0DA68A6
:1043D000A36B1A80A36B0233A363B4F83EC01FFA29
:1043E0008CFC0CF1FF3C1FFA8CFCA4F83EC0E6E705
:1043F0003A4629462046FFF7BFFC08B120236365F3
:10440000636D13B9002600E00226012384F85130C1
:10441000002384F85030304603B0BDE8F083032613
:10442000F3E70326F1E70326EFE70326EDE702268D
:10443000F1E7704710B584B004460268516893688C
:1044400003F04100012867D013F0020F02D011F0F1
:10445000800F68D113F4B07F68D011F0200F65D0C1
:1044600013F0400F0FD094F85100C0B203285FD072
:10447000606D40F00400606500200090D0680090FE
:1044800090680090009813F0200F0CD0606D40F001
:10449000010060650020029090680290106820F092
:1044A00040001060029A13F4807F09D0636D43F0DE
:1044B000080363650023039323689B680393039BAE
:1044C000636D002B32D02268536823F0E003536001
:1044D000012384F8513011F0030F31D02268536862
:1044E00023F003035360E36C4BB1174A1A65E06C89
:1044F000FDF7C2FF18B1636D43F040036365A36C21
:10450000A3B1114A1A65A06CFDF7B6FF70B1636DD7
:1045100043F04003636509E011F0400F94D0236C31
:104520002046984702E0636C2046984704B010BDCF
:1045300000230193D368019393680193019BF5E7EE
:104540002046FFF776FFF1E74D45000808B5806B80
:104550000023C387C386FFF76CFF08BD90F85100A6
:104560007047704790F83D30DBB2012B2FD102230A
:1045700080F83D300268D36843F00103D3600368DC
:10458000154A934218D0B3F1804F15D0A2F57C4262
:10459000934211D002F5806293420DD002F5806201
:1045A000934209D002F59A32934205D01A6842F03C
:1045B00001021A60002070479A6802F00702062A7A
:1045C00007D01A6842F001021A60002070470120EB
:1045D00070470020704700BF0000014070477047DF
:1045E0007047704710B5044603681A6912F0020F4D
:1045F00011D0DA6812F0020F0DD06FF002021A61CA
:104600000123037703689B6913F0030F70D0FFF752
:10461000E6FF0023237723681A6912F0040F12D0F3
:10462000DA6812F0040F0ED06FF004021A61022350
:10463000237723689B6913F4407F5FD02046FFF700
:10464000CEFF0023237723681A6912F0080F12D0D7
:10465000DA6812F0080F0ED06FF008021A61042316
:1046600023772368DB6913F0030F4ED02046FFF752
:10467000B6FF0023237723681A6912F0100F12D0B7
:10468000DA6812F0100F0ED06FF010021A610823D2
:1046900023772368DB6913F4407F3DD02046FFF782
:1046A0009EFF0023237723681A6912F0010F03D0BD
:1046B000DA6812F0010F36D123681A6912F0800F00
:1046C00003D0DA6812F0800F34D123681A6912F02F
:1046D000400F03D0DA6812F0400F32D123681A6914
:1046E00012F0200F03D0DA6812F0200F30D110BD85
:1046F000FFF774FF2046FFF773FF8AE72046FFF7B6
:104700006DFF2046FFF76CFF9BE72046FFF766FF33
:104710002046FFF765FFACE72046FFF75FFF204626
:10472000FFF75EFFBDE76FF001021A612046FCF75C
:1047300061F9C1E76FF080021A61204600F08BF842
:10474000C3E76FF040021A612046FFF74AFFC5E752
:104750006FF020021A61204600F07CF8C7E70000E5
:104760000368254A90420ED0B0F1804F0BD0A2F5DD
:104770007C42904207D002F58062904203D002F55D
:104780008062904203D123F070034A6813431A4AAF
:1047900090421AD0B0F1804F17D0A2F57C429042DF
:1047A00013D002F5806290420FD002F580629042F1
:1047B0000BD002F59A32904207D002F58062904207
:1047C00003D002F58062904203D123F44073CA689B
:1047D000134323F080034A69134303608B68C36269
:1047E0000B688362044B984202D0012343617047F7
:1047F0000B690363F9E700BF0000014040B310B547
:10480000044690F83D30F3B1022384F83D30214650
:1048100051F8040BFFF7A4FF012384F8463084F815
:104820003E3084F83F3084F8403084F8413084F8DA
:10483000423084F8433084F8443084F8453084F8BA
:104840003D30002010BD80F83C30FFF78AFEDBE7EA
:104850000120704770477047034AD2F8883043F40C
:104860007003C2F88830704700ED00E000F10803E3
:1048700043604FF0FF328260C36003610023036036
:10488000704700230361704743684B609A688A60F1
:10489000516099600861036801330360704730B468
:1048A0000D68B5F1FF3F11D000F108031C465B68AD
:1048B0001A68AA42FAD963684B6099608C6061609B
:1048C000086103680133036030BC70470469F2E794
:1048D0000369416882688A60416851605A6882420F
:1048E00006D0002202611A68013A1A6018687047FF
:1048F00082685A60F5E70346406A18B11B6B186876
:10490000C0F10700704710B5044602F003F8A26B2F
:10491000E36B9A4204D0002402F01EF8204610BD3A
:104920000124F9E710B5044601F0F4FFA36B23B9A5
:10493000012402F011F8204610BD0024F9E770B5FB
:1049400004461546866B026C5AB903681BB10020F9
:104950000136A66370BD806801F0FCF90023A360F6
:10496000F6E76DB9406802F077F9226C636813448A
:104970006360A268934219D3236863602846E7E71F
:10498000C06802F069F9226C5142E3689B1AE36047
:104990002268934202D2A3680B44E360022D01D047
:1049A0000020D5E726B1013E0020D1E72846CFE719
:1049B0000020CDE70346026C6AB110B50846D968FD
:1049C0001144D9609C68A14201D31968D960D968A3
:1049D00002F042F910BD704738B5054601F09AFF64
:1049E00095F8454064B201E0013C64B2002C0ADD58
:1049F0006B6A43B105F1240001F0ACF80028F3D054
:104A000001F03CF9F0E7FF2385F8453001F0A4FF01
:104A100001F080FF95F8444064B201E0013C64B2CB
:104A2000002C0ADD2B6943B105F1100001F092F86A
:104A30000028F3D001F022F9F0E7FF2385F8443095
:104A400001F08AFF38BD38B5E0B10D46044601F0EB
:104A500061FF2368E26B216C01FB0230A060002043
:104A6000A0636360013A02FB0133E360FF2384F833
:104A7000443084F84530FDB9236963B901F06CFF17
:104A8000012038BD4FF0500383F31188BFF36F8FBF
:104A9000BFF34F8FFEE704F1100001F05BF8002830
:104AA000ECD04FF0E0234FF08052C3F8042DBFF359
:104AB0004F8FBFF36F8FE1E704F11000FFF7D6FED1
:104AC00004F12400FFF7D2FED8E710B503460298A0
:104AD0000C4631B90060C36304640121FFF7B3FFE2
:104AE00010BD0260F7E740B94FF0500383F311881F
:104AF000BFF36F8FBFF34F8FFEE710B584B01C4636
:104B0000844653B192B189B94FF0500383F31188B1
:104B1000BFF36F8FBFF34F8FFEE74FF0500383F368
:104B20001188BFF36F8FBFF34F8FFEE76AB1482341
:104B30000393039B482B13D04FF0500383F311884A
:104B4000BFF36F8FBFF34F8FFEE70029EFD04FF019
:104B5000500383F31188BFF36F8FBFF34F8FFEE7CE
:104B6000039B012384F8463000949DF8183060467A
:104B7000FFF7ABFF204604B010BD40B94FF0500323
:104B800083F31188BFF36F8FBFF34F8FFEE7F0B54C
:104B900083B00D461446064601FB00F0483001F094
:104BA00095FD074650B1002380F84630009023461B
:104BB00000F1480229463046FFF787FF384603B028
:104BC000F0BDF0B585B0019288B10F461D46044690
:104BD000B1B1022D20D1E36B012B1DD04FF050035A
:104BE00083F31188BFF36F8FBFF34F8FFEE74FF052
:104BF000500383F31188BFF36F8FBFF34F8FFEE72E
:104C0000036C002BE5D04FF0500383F31188BFF302
:104C10006F8FBFF34F8FFEE701F036F8064658B9A5
:104C2000019B002B48D04FF0500383F31188BFF352
:104C30006F8FBFF34F8FFEE700263DE02A463946CF
:104C40002046FFF77CFE636A7BB948B14FF0E02352
:104C50004FF08052C3F8042DBFF34F8FBFF36F8F17
:104C600001F07AFE012005B0F0BD04F1240000F04F
:104C700071FF0028F4D04FF0E0234FF08052C3F8CA
:104C8000042DBFF34F8FBFF36F8FE9E701F064FE90
:104C90000020E8E702A800F0A3FF012619E00023A6
:104CA00084F8443021E0002384F8453023E0204696
:104CB000FFF792FE00F02CFE01F02CFEA26BE36BDE
:104CC0009A42BBD3022DB9D0019B002BDED0002E1F
:104CD000E0D001F041FE00F081FD01F01BFE94F8F0
:104CE000442052B2B2F1FF3FD9D094F8452052B2DD
:104CF000B2F1FF3FD7D001F02FFE01A902A800F0CA
:104D00007BFFD8B92046FFF7FEFD0028CFD00199E0
:104D100004F1100000F0EAFE2046FFF75DFE00F00F
:104D2000F7FD0028C8D14FF0E0234FF08052C3F8C0
:104D3000042DBFF34F8FBFF36F8FBDE72046FFF702
:104D40004BFE00F0E5FD00208DE748B108B50021DD
:104D500081600160C1600B460A46FFF732FF08BD63
:104D6000704710B5024600210120FFF706FF0446F8
:104D7000FFF7EBFF204610BD10B582B00B46009048
:104D8000002211460120FFF7AEFE0446FFF7DDFFCB
:104D9000204602B010BD2DE9F84390B10F461646EB
:104DA0001C460546B1B1022C20D1EB6B012B1DD066
:104DB0004FF0500383F31188BFF36F8FBFF34F8F12
:104DC000FEE74FF0500383F31188BFF36F8FBFF3FB
:104DD0004F8FFEE7036C002BE5D04FF0500383F3B9
:104DE0001188BFF36F8FBFF34F8FFEE701F0B8FE5E
:104DF000EFF311884FF0500383F31188BFF36F8FE7
:104E0000BFF34F8FAA6BEB6B9A4206D3022C04D0F0
:104E1000002088F31188BDE8F88395F845904FFA93
:104E200089F9AB6B224639462846FFF788FDB9F170
:104E3000FF3F06D009F101035BB285F84530012040
:104E4000E7E76B6A0BB90120E3E705F1240000F006
:104E500081FE18B126B101203060DAE70120D8E7E1
:104E60000120D6E768B170B50C460546036C8BB1DE
:104E70004FF0500383F31188BFF36F8FBFF34F8F51
:104E8000FEE74FF0500383F31188BFF36F8FBFF33A
:104E90004F8FFEE70368EBB101F062FEEFF311867E
:104EA0004FF0500383F31188BFF36F8FBFF34F8F21
:104EB000AA6BEB6B934226D995F845305BB2013271
:104EC000AA63B3F1FF3F11D001335BB285F84530DF
:104ED000012019E08368002BDED04FF0500383F3EC
:104EE0001188BFF36F8FBFF34F8FFEE76B6A0BB96B
:104EF000012009E005F1240000F02CFE38B144B196
:104F00000120206000E0002086F3118870BD0120A0
:104F1000FAE70120F8E7F0B585B0019290B10F46AD
:104F20000446C1B100F0B0FE064600BB019B002B59
:104F30005ED04FF0500383F31188BFF36F8FBFF340
:104F40004F8FFEE74FF0500383F31188BFF36F8F4D
:104F5000BFF34F8FFEE7036C002BE3D04FF05003FD
:104F600083F31188BFF36F8FBFF34F8FFEE70026E7
:104F70003EE039462046FFF71DFD013DA56323694C
:104F800023B901F0E9FC012005B0F0BD04F11000E7
:104F900000F0E0FD0028F4D04FF0E0234FF0805205
:104FA000C3F8042DBFF34F8FBFF36F8FE9E701F014
:104FB000D3FC0020E8E702A800F012FE012621E061
:104FC000002384F8443029E0002384F845302BE0A6
:104FD0002046FFF701FD00F09BFC09E02046FFF7AB
:104FE000FBFC00F095FC2046FFF79CFC00283FD11D
:104FF00001F090FCA56B002DBBD1019B002BD6D0FE
:10500000002ED8D001F0A8FC00F0E8FB01F082FCF3
:1050100094F844305BB2B3F1FF3FD1D094F84530FF
:105020005BB2B3F1FF3FCFD001F096FC01A902A81B
:1050300000F0E2FD0028D1D12046FFF773FC0028E4
:10504000C6D0019904F1240000F050FD2046FFF77E
:10505000C3FC00F05DFC0028CAD14FF0E0234FF004
:105060008052C3F8042DBFF34F8FBFF36F8FBFE79C
:10507000002089E770B584B0019158B10446036CF3
:105080008BB14FF0500383F31188BFF36F8FBFF3E1
:105090004F8FFEE74FF0500383F31188BFF36F8FFC
:1050A000BFF34F8FFEE700F0EFFD054650B9019BBF
:1050B0005BB14FF0500383F31188BFF36F8FBFF3E1
:1050C0004F8FFEE70026354655E0064653E0013B8C
:1050D000A36323683BB123694BB901F03DFC012672
:1050E000304604B070BD00F0E7FEA060F3E704F1C5
:1050F000100000F02FFD0028EFD04FF0E0234FF01C
:105100008052C3F8042DBFF34F8FBFF36F8FE4E7D6
:1051100046B14FF0500383F31188BFF36F8FBFF395
:105120004F8FFEE701F018FCDAE702A800F058FD07
:1051300001252AE0002384F8443032E0002384F87B
:10514000453034E001F0E6FBA06800F0ADFD064616
:1051500001F002FC3BE02046FFF73EFC00F0D8FBEC
:1051600009E02046FFF738FC00F0D2FB2046FFF7AD
:10517000D9FB002842D101F0CDFBA36B002BA6D1B7
:10518000019B002BC4D0002DCFD001F0E5FB00F037
:1051900025FB01F0BFFB94F844305BB2B3F1FF3F55
:1051A000C8D094F845305BB2B3F1FF3FC6D001F0F0
:1051B000D3FB01A902A800F01FFD0028D1D1204691
:1051C000FFF7B0FB0028C6D02368002BBAD00199A6
:1051D00004F1240000F08AFC2046FFF7FDFB00F0FC
:1051E00097FB0028C7D14FF0E0234FF08052C3F85F
:1051F000042DBFF34F8FBFF36F8FBCE70EB90026AE
:105200006EE701F087FB2046FFF775FB0146A068BB
:1052100000F0F8FD01F0A0FBF1E72DE9F843B0B193
:105220000D4690460446D9B101F09AFCEFF3118780
:105230004FF0500383F31188BFF36F8FBFF34F8F8D
:10524000A66BCEB9002087F31188BDE8F8834FF034
:10525000500383F31188BFF36F8FBFF34F8FFEE7C7
:10526000036C002BE0D04FF0500383F31188BFF3A1
:105270006F8FBFF34F8FFEE794F844904FFA89F990
:1052800029462046FFF796FB731EA363B9F1FF3F43
:1052900006D009F101035BB284F844300120D2E763
:1052A00023690BB90120CEE704F1100000F052FC95
:1052B00030B1B8F1000F05D00120C8F80000C2E7F6
:1052C0000120C0E70120BEE70023072B0CD8074AC6
:1052D00052F833200AB10133F7E7044A42F8331099
:1052E00002EBC30250607047704700BF2C0C0020D7
:1052F00070B504460D46164601F00CFB94F8443098
:105300005BB2B3F1FF3F0DD094F845305BB2B3F11F
:10531000FF3F0BD001F020FBA36B5BB12046FFF7F2
:105320005BFB70BD002384F84430EDE7002384F874
:105330004530EFE73246294604F1240000F0EEFB49
:10534000ECE70000084B1B681B6823B9074B4FF0C4
:10535000FF321A607047044B1B68DB68DB685A68D1
:10536000024B1A60704700BF700C0020440D0020F3
:105370002DE9F04707469846089DDDF824900A9CE1
:10538000266B02F18042013A06EB820626F0070600
:10539000C1B308464FF0000CBCF10F0F09D810F84C
:1053A0000C2004EB0C0383F8342012B10CF1010C37
:1053B000F2E7002384F84330062D00D90625E56284
:1053C00065644FF0000AC4F848A0201DFFF759FAA1
:1053D00004F11800FFF755FA2461C5F10705A5612E
:1053E0006462C4F84CA084F850A042463946304666
:1053F00001F066FA2060B9F1000F01D0C9F8004051
:10540000BDE8F087002384F83430D5E738B50024B0
:1054100007E004EB840293000E481844FFF726FAD5
:105420000134062CF5D90C4D2846FFF71FFA0B4C1A
:105430002046FFF71BFA0A48FFF718FA0948FFF75A
:1054400015FA0948FFF712FA084B1D60084B1C605B
:1054500038BD00BF780C0020180D00202C0D002056
:10546000500D00207C0D0020680D0020700C0020E5
:10547000740C002010B5044601F04CFA214A136860
:1054800001331360204B1B685BB1204B1B686BB969
:105490001D4B1B68DA6AE36A9A4207D81A4B1C60F4
:1054A00004E0194B1C601368012B28D0184A1368BC
:1054B00001331360E06A01238340164A11680B43ED
:1054C000136000EB8000211D134B03EB8000FFF7FE
:1054D000DBF901F041FA0D4B1B687BB10A4B1B68ED
:1054E000DA6AE36A9A4209D24FF0E0234FF0805221
:1054F000C3F8042DBFF34F8FBFF36F8F10BDFFF7BD
:1055000085FFD3E7040D00206C0C0020640D002003
:10551000100D0020140D0020780C002010B504465A
:1055200090F8513063B1012B11D0022B0ED04FF007
:10553000500383F31188BFF36F8FBFF34F8FFEE7E4
:10554000006B01F041F9204601F03EF910BD01F079
:105550003BF9FBE70F4B1B68D3B110B501F0DAF94B
:105560000D4BDB68DC68201DFFF7B2F90B4A1368AE
:10557000013B1360074A1368013B136001F0ECF92B
:105580002046FFF7CBFF034B1B68002BE6D110BD75
:10559000704700BF080D00207C0D0020040D002086
:1055A00008B5FFF7D7FF074B1B68012BF9D94FF060
:1055B000E0234FF08052C3F8042DBFF34F8FBFF3A9
:1055C0006F8FEEE7780C002070B504460D461D4B3A
:1055D0001E681D4B18680430FFF77AF948B91A4B5A
:1055E0001B68DB6A01229A4018490B6823EA020310
:1055F0000B60B4F1FF3F0DD03444134B1B685C606B
:10560000A64210D9124B18680F4B19680431FFF7E6
:1056100046F970BD002DEFD00B4B196804310D48D1
:10562000FFF732F9F5E70C4B1868074B196804319E
:10563000FFF735F9094B1B68A342EAD9074B1C60F9
:10564000E7E700BF900D00206C0C0020140D002037
:10565000740C0020680D0020700C0020440D002008
:1056600030B587B00B9C7CB10C9DB5B15425049529
:10567000049D542D1AD04FF0500383F31188BFF3CB
:105680006F8FBFF34F8FFEE74FF0500383F3118806
:10569000BFF36F8FBFF34F8FFEE74FF0500383F3DD
:1056A0001188BFF36F8FBFF34F8FFEE7049D0C9DF2
:1056B0002C63022485F8514000240394029505AC24
:1056C00001940A9C0094FFF753FE0C98FFF7D2FE5A
:1056D000059807B030BD2DE9F04385B007468846F0
:1056E00014461E46900000F0F1FF00B3814654209E
:1056F00000F0ECFF0546B0B1C0F83090E5B10023F2
:1057000085F85130039302950D9B01930C9B0093F8
:105710003346224641463846FFF72AFE2846FFF721
:10572000A9FE012005E0484601F04EF8E6E74FF0FB
:10573000FF3005B0BDE8F0834FF0FF30F9E700001F
:1057400010B588B000240594069407AA06A905A8F8
:10575000FBF7CCFF059B0293069B01930094234625
:10576000079A18491848FFF77BFF184B186040B19B
:1057700000F042FC012806D0B0F1FF3F18D008B07D
:1057800010BD0020F6E74FF0500383F31188BFF3FC
:105790006F8FBFF34F8F0E4B4FF0FF321A600D4BE0
:1057A00001221A600C4B00221A6001F04DF9E6E765
:1057B0004FF0500383F31188BFF36F8FBFF34F8F08
:1057C000FEE700BFA8A10008A1550008400D002079
:1057D000440D0020640D0020900D0020024A136843
:1057E00001331360704700BF0C0D0020014B186897
:1057F000704700BF900D0020F8B53A4B1B68002B96
:1058000069D1394B1D6801351D60C5B9374B1B681F
:105810001B6843B14FF0500383F31188BFF36F8FC0
:10582000BFF34F8FFEE7314A1168314B18681060A3
:105830001960304A136801331360FFF783FD2E4B64
:105840001B68AB423DD900272C4B1B68DB6A03EB7E
:1058500083039A002A4B9B58012B00D90127294B1F
:105860001B68002B3CD001273AE001271F4B1B6827
:105870001B6843B31D4B1B68DB68DC6863689D4293
:1058800026D3261D3046FFF723F8A36A1BB104F187
:105890001800FFF71DF8E36A01229A401A490868C8
:1058A00002430A6003EB83039A0031461448104414
:1058B000FEF7EAFFE26A114B1B68DB6A9A42D4D218
:1058C000D4E70027D2E70C4B4FF0FF321A60BBE75A
:1058D000094A1360B8E70D4A1368013313600027C3
:1058E0003846F8BD0C0D0020900D0020700C0020F3
:1058F000740C0020480D0020440D00206C0C00208A
:10590000780C0020940D0020140D00204C0D002078
:1059100038B5354B1B6843B94FF0500383F31188FA
:10592000BFF36F8FBFF34F8FFEE700F0F3FF2E4BF7
:105930001A68013A1A601B68002B4FD12B4B1B6869
:105940000BB900244BE00024294B1B681BB3284BE8
:10595000DB68DC6804F11800FEF7BAFF251D284655
:10596000FEF7B6FFE06A01238340224A11680B4329
:10597000136000EB800029461F4B03EB8000FEF70D
:1059800083FFE26A1D4B1B68DB6A9A42DCD31C4B27
:1059900001221A60D8E70CB1FFF7D4FC194B1C6840
:1059A00084B9174B1C68D4B14FF0E0234FF08052FC
:1059B000C3F8042DBFF34F8FBFF36F8F01240EE0A8
:1059C000013C07D0FFF718FF0028F9D00C4B01224B
:1059D0001A60F5E70B4B00221A60E2E7002400F0A2
:1059E000BBFF204638BD00BF0C0D0020040D002079
:1059F000500D0020140D0020780C00206C0C0020AD
:105A0000940D00204C0D002010B5A8B10446104B99
:105A10001B6843B14FF0500383F31188BFF36F8FBE
:105A2000BFF34F8FFEE7FFF7D9FE00212046FFF7B7
:105A3000CBFDFFF76DFF48B94FF0E0234FF08052E8
:105A4000C3F8042DBFF34F8FBFF36F8F10BD00BF9E
:105A50000C0D0020204B1B681BB1204B01221A604B
:105A600070471E4B00221A601D4B1B68B3FA83F36C
:105A7000DBB2C3F11F0303EB83018A0019498A5883
:105A800042B94FF0500383F31188BFF36F8FBFF318
:105A90004F8FFEE7134903EB830082000A445068EE
:105AA0004068506003EB830C4FEA8C0208321144CB
:105AB000884209D003EB83039A000A4B13445B68C6
:105AC000DA68094B1A607047406862469100054ADF
:105AD0000A445060EEE700BF0C0D0020940D00203A
