:020000040800F2
:10000000000001208D680008451000084710000816
:10001000491000084B1000084D10000800000000B7
:10002000000000000000000000000000C1650008A2
:100030004F1000080000000061660008C566000857
:10004000DD680008DD680008DD680008DD6800087C
:10005000DD680008DD68000851100008DD68000850
:10006000DD680008DD680008DD680008DD6800085C
:10007000DD680008DD680008DD680008DD6800084C
:10008000DD6800085D100008DD6800080000000061
:10009000000000000000000000000000DD68000813
:1000A000DD6800086D100008DD680008DD680008E4
:1000B000DD680008DD680008DD6800087D100008C4
:1000C000DD680008DD680008DD680008DD680008FC
:1000D000DD680008DD680008DD6800080000000039
:1000E000DD680008DD680008DD6800080000000029
:1000F000000000000000000000000000DD680008B3
:1001000000000000DD680008DD680008DD68000808
:1001100000000000000000000000000000000000DF
:10012000DD680008DD680008DD680008DD6800089B
:10013000DD68000800000000000000000000000072
:10014000000000000000000000000000DD68000862
:10015000DD680008DD680008DD680008DD6800086B
:10016000DD680008DD6800080000000000000000F5
:10017000000000000000000000000000000000007F
:1001800000000000DD680008000000000000000022
:04019000DD6800081E
:1001A00001F0FF01102A2BDB10F0070F08D010F828
:1001B000013B013A8B422DD010F0070F42B3F6D12C
:1001C000F0B441EA012141EA014122F007047FF045
:1001D00000070023F0E80256083C85EA010586EA9C
:1001E000010685FA47F5A3FA87F586FA47F6A5FAD8
:1001F00087F68EB9EED1F0BC01F0FF0102F00702E4
:1002000032B110F8013B013A83EA010313B1F8D18E
:100210000020704701387047002D06BF354603386F
:10022000073815F0010F07D1013015F4807F02BFA8
:10023000013015F4C03F0130F0BC0138704700BFF9
:1002400053B94AB9002908BF00281CBF4FF0FF313D
:100250004FF0FF3000F00CB8ADF1080C6DE904CEA2
:1002600007F07AF8DDF804E0DDE9022304B0704716
:10027000704700BF0348044B834202D0034B03B1D5
:100280001847704774000020740000200000000030
:100290000548064B1B1AD90F01EBA301491002D0E8
:1002A000034B03B11847704774000020740000200E
:1002B0000000000010B5064C237843B9FFF7DAFFC1
:1002C000044B13B10448AFF300800123237010BD29
:1002D00074000020000000002076000808B5054BDF
:1002E0001BB105490548AFF30080BDE80840FFF7A2
:1002F000CFBF00BF0000000078000020207600087B
:1003000070470000014B00221A70704790000020D7
:100310002DE9F04188B000240394049405940694D8
:1003200007940094294B1A6B42F080021A631A6BEF
:1003300002F080020092009A01941A6B42F00102CE
:100340001A631A6B02F001020192019A02941A6B6D
:1003500042F002021A631B6B03F002030293029B3A
:100360001B4F22460621384601F0BAFBDFF86480B5
:1003700022464FF48061404601F0B2FB012503950F
:100380004FF404130493059503A9384601F0C4FA09
:100390000626039604950594069403A9384601F0B1
:1003A000BBFA4FF48063039304950594069403A964
:1003B000404601F0B1FA22460521304601F0D6FD53
:1003C000304601F00BFE08B0BDE8F0810038024075
:1003D000000402400000024000B583B000220192F8
:1003E000094B196B41F4001119631B6B03F40013E3
:1003F0000193019B0521112001F0B8FD112001F0AE
:10040000EDFD03B05DF804FB0038024008B5642040
:1004100005F03BFEFBE7000008B500F094FA00F0A1
:1004200077FA594800F0CAFA4FF4FA6005F02DFE49
:1004300005E0564B1B78ABB9012005F026FE544B66
:100440001B78052BF8D801A252F823F033040008DA
:100450007F040008B9040008E50400081F0500082F
:10046000590500080024494B1C7000F051FA214640
:10047000204600F05AFA474800F0A0FADCE7434B68
:100480001B78002BD8D00024404B1C700122022185
:10049000414801F025FB00F03BFA2146204600F0E0
:1004A00044FA3E4800F08AFA2146012000F03DFA65
:1004B0003B4800F083FABFE7344B1B78002BBBD0DE
:1004C0000024324B1C7022460221334801F008FB05
:1004D00000F01EFA2146204600F027FA314800F0CD
:1004E0006DFAA9E7294B1B78002BA5D00024274BD8
:1004F0001C7001220221284801F0F2FA00F008FAEB
:100500002146204600F011FA274800F057FA21460C
:10051000012000F00AFA254800F050FA8CE71B4B46
:100520001B78002B88D00024184B1C70012202215C
:10053000194801F0D5FA00F0EBF92146204600F009
:10054000F4F91B4800F03AFA2146012000F0EDF9D9
:10055000164800F033FA6FE70C4B1B78002B3FF482
:100560006BAF0024094B1C70012202210A4801F0E4
:10057000B7FA00F0CDF92146204600F0D6F90D4833
:1005800000F01CFA58E700BF8C760008A600002097
:1005900091000020A076000800040240B076000818
:1005A000C0760008D0760008E0760008EC760008F7
:1005B000FC7600080877000808B508E00A4B1868C0
:1005C00005F0FCFD00F0AEFC192005F05EFD4FF0DB
:1005D000FF31054B186805F0C1FD044800F091FBA0
:1005E0000028EBD1F0E700BFDC010020C0010020B3
:1005F00008B5094B1B780BB9012800D008BD0123B1
:10060000054A1370054A137000F0E4FCFA21044B0C
:10061000186805F063FDF1E790000020A6000020B7
:10062000A800002008B50268034B9A4200D008BD1C
:1006300001F0FCFCFBE700BF0000014072B6FEE7E2
:1006400008B50D480D4B03604FF4827343600023DF
:100650008360C360036143614FF4007282611822BA
:10066000C2610362436283620A23C36203F010F82B
:1006700000B908BDFFF7E2FF68010020003001402B
:1006800008B50B480B4B03600B4B436000238360A2
:100690004E22C2604FF48042026143618361C361B4
:1006A000036202F007F800B908BDFFF7C7FF00BFFB
:1006B0001401002000540040A086010000B595B050
:1006C0003022002108A806F03DF90023039304938B
:1006D0000593069307930193214A116C41F08051D1
:1006E0001164126C02F080520192019A02931D4A29
:1006F000136823F4404343F400431360136803F486
:1007000040430293029B012308934FF480330993E3
:1007100002230E934FF480030F93192310934FF489
:10072000A8731193042312930723139308A800F0CE
:10073000AFFD80B90F230393022104910023059399
:100740004FF480520692079303A800F0F1FF20B9FE
:1007500015B05DF804FBFFF771FFFFF76FFF00BFF7
:10076000003802400070004030B59FB001F044FCFA
:10077000FFF7A4FFFFF7CCFDFFF72EFEFFF760FFAA
:10078000FFF77EFF3CA3D3E90023CDE900234FF41C
:1007900080632D4A2D492E4800F050FB00251C9502
:1007A0001D951CA805F0CFFC2A4B18602A4B1A9304
:1007B0001B952A4601211AA805F06EFC274B1860EC
:1007C000274B189319952A46294618A805F064FC6A
:1007D000244B1860244C0DF1440CA646BEE80F00D3
:1007E000ACE80F009EE807008CE80700294611A836
:1007F00005F018FC1D4B18600DF1280C04F11C0EBF
:10080000BEE80F00ACE80F009EE807008CE8070088
:1008100029460AA805F006FC154B18600DF10C0ED0
:1008200004F1380CBCE80F00AEE80F009CE80700AC
:100830008EE80700294603A805F0F4FB0D4B18606D
:1008400005F0EBFBFEE700BF00000240680100205E
:10085000C0010020DC01002001030008E0010020AD
:1008600005030008A800002038760008AC0000202E
:10087000D8010020B0000020C0CA89360000000066
:1008800000B585B000F0F0030001C0B243F00C02E7
:100890008DF80C2043F008038DF80D3040F00C0368
:1008A0008DF80E3040F008008DF80F00642300939F
:1008B000042303AA4E21034801F0DAFF05B05DF8D6
:1008C00004FB00BF1401002000B585B000F0F00368
:1008D0000001C0B243F00D028DF80C2043F0090373
:1008E0008DF80D3040F00D038DF80E3040F009000A
:1008F0008DF80F0064230093042303AA4E210348BC
:1009000001F0B6FF05B05DF804FB00BF1401002044
:1009100010B58020FFF7B4FF002403E02020FFF78C
:10092000D3FF0134452CF9DD10BD08B528B10128ED
:1009300006D0C8B2FFF7A4FF08BD41F08001F8E778
:1009400041F0C001F5E708B5322005F09EFB3020EC
:10095000FFF796FF052005F098FB3020FFF790FF8A
:10096000012005F092FB3020FFF78AFF0A2005F0F6
:100970008CFB2020FFF784FF0A2005F086FB28204F
:10098000FFF77EFF012005F080FB0820FFF778FFCE
:10099000012005F07AFB0120FFF772FF012005F02E
:1009A00074FB012005F071FB0620FFF769FF0120B1
:1009B00005F06BFB0C20FFF763FF08BD10B5044684
:1009C00002E00134FFF780FF20780028F9D110BD44
:1009D00010B582B0044641F0800141EA0221ADF831
:1009E00006100022C18A406801F07AF8A36802224A
:1009F0000DF10601206802F0AAFE0122E18A60687A
:100A000001F06EF802B010BD08B541F0800201217E
:100A1000FFF7DEFF08BD000008B52C2910D9F0292A
:100A20000FD9F0211E310C4B83FB0123C917C1EBF9
:100A3000A302D2B242F020020B21FFF7C9FF08BD8A
:100A40002D218129EED82D39034B83FB0123C917B2
:100A5000C1EB6302D2B2EDE76766666610B584B09B
:100A600004468DF8071000228DF80F20CBB203F05A
:100A70007F038DF80730C18A406801F031F8A36820
:100A800001220DF10701206802F061FEA368012236
:100A90000DF10F01206803F052F80122E18A60682D
:100AA00001F01EF89DF80F0004B010BD38B50446E3
:100AB0001D21FFF7D3FFC0F307151E212046FFF7C6
:100AC000CDFFC0F307100A2803D9072D07D0042251
:100AD00000E0042226212046FFF77AFF38BD0C22D1
:100AE000F8E7F0B583B004460E4617461D4680234E
:100AF0008DF807300022C18A406800F0F1FFA3683A
:100B000001220DF10701206802F021FE012D0CD019
:100B1000A3683A463146206802F019FE0122E18AB4
:100B2000606800F0DDFF03B0F0BD3A463146206852
:100B300003F0C6F8F7E7F0B583B004460D46164655
:100B40001F4600228DF80720C18A406800F0C8FFC8
:100B5000A36801220DF10701206802F0F8FD012FC2
:100B60000CD0A36832462946206802F0E8FF012233
:100B7000E18A606800F0B4FF03B0F0BD3246294658
:100B8000206803F0B5F9F7E708B50021FFF73CFF4F
:100B900008BD08B50121FFF737FF08BD10B50446B1
:100BA0001D21FFF75BFF00F0FE021D212046FFF72D
:100BB0000FFF10BD38B505460C4603694BB90F2928
:100BC00000D90F2444F0700209212846FFF700FFE6
:100BD00038BD142903D8012902D8022402E01424C4
:100BE000112C11D884224D212846FFF7F1FE6121F6
:100BF0002846FFF711FFA21E62F07F02D2B2092140
:100C00002846FFF7E5FEE3E7033CE4B287224D21E7
:100C10002846FFF7DDFE8C212846FFF7FDFEEAE7B8
:100C200038B504461146DD040C4A0023C80445EAE1
:100C30005131FFF705FB0546C0F307420621204668
:100C4000FFF7C6FEC5F3072207212046FFF7C0FEC7
:100C5000EAB208212046FFF7BBFE38BD0048E80194
:100C600038B5044605291FD90D460C2928D8062970
:100C70001BD0C32231212046FFF7AAFE0A223721CA
:100C80002046FFF7A5FE1E212046FFF7E7FE00F0F5
:100C90000F0242EA0512D2B21E212046FFF798FE4B
:100CA0002046FFF703FF38BD0625C5223121204627
:100CB000FFF78EFE0C2237212046FFF789FEE2E780
:100CC0000C25D6E738B505460C460A0A2021FFF761
:100CD0007FFE04F00F0221212846FFF779FE38BD80
:100CE00008B54221FFF7BAFE08BD08B50121FFF79C
:100CF000B5FE00F00300032801D0002008BD052048
:100D0000FCE708B51221FFF7A9FE00F0C00008BDFE
:100D100010B504461D21FFF7A1FE10F0010F04D00D
:100D200022212046FFF79AFE10BD13212046FFF72F
:100D300095FEF9E72DE9F04106460F461D461221C2
:100D4000FFF78CFE0446F02212213046FFF740FEEA
:100D500014F0800F21D114F0400822D014F01008B4
:100D600025D014F0200403D04FF00008012419E02E
:100D70003046FFF7CDFF804610213046FFF76EFE6C
:100D800002460D213046FFF723FE9DF818304246FB
:100D900039463046FFF7CFFE04E04FF0000802244A
:100DA00000E0062405B12C704046BDE8F081032424
:100DB000F8E710B582B002240094FFF7BBFF02B041
:100DC00010BD08B508221221FFF702FE08BD2DE96B
:100DD000F04104460F4616461D46FFF786FF28BB26
:100DE000804601212046FFF70FFE2046FFF7E9FF6E
:100DF000227D0D212046FFF7EBFD227D0E212046AE
:100E0000FFF7E6FD324622212046FFF7E1FD2B46A3
:100E1000324639462046FFF764FE012D03D00321F8
:100E20002046FFF7F1FD4046BDE8F0814FF0050890
:100E3000F9E708B50223FFF7CAFF08BD70B50446FD
:100E4000049D059E01604260C382C5600123036169
:100E50000023037543754FF47A738360FFF740FFF7
:100E6000122801D0042070BD2046FFF78DFE2046D9
:100E7000FFF78AFE2A4633462046FFF7D1FE0721B8
:100E80002046FFF7EDFE0A212046FFF71BFF204614
:100E9000FFF784FE0C212046FFF7E0FD40F003023F
:100EA000D2B20C212046FFF793FD042226212046D2
:100EB000FFF78EFD11212046FFF77CFE2046FFF74D
:100EC00068FE0020CFE700000023024A1360024AB8
:100ED00013707047A00000209100002000B585B07D
:100EE00002460C4901A805F035FD4FF0FF310A4BD1
:100EF000186805F033F9042208490948FFF799FFFB
:100F000010B905B05DF804FB034B186805F056F9FD
:100F1000F7E700BF38770008DC01002040770008C1
:100F2000C001002030B58DB0234D4FF0FF3128684F
:100F300005F071F9214C0DF12F030A2221462048BA
:100F4000FFF737FF286805F095F91E49204605F0A0
:100F500021FDC0B10A2201A9204605F0B3FD0328F6
:100F600011D8DFE800F0021F121FFFF7ADFF0120CC
:100F7000FFF7B4FF144B02221A70144B00221A70B0
:100F8000134B01221A700DB030BD0320FFF7A6FFEE
:100F90000D4B02221A700D4B01221A700C4B0022CD
:100FA0001A70F0E70123084A1370084A1370084BBF
:100FB00000221A70E7E700BFDC0100209400002047
:100FC000C00100204877000891000020A400002004
:100FD000A500002008B50E4B1B78042B07D8DFE8CE
:100FE00003F003070E1212000020FFF777FF08BD81
:100FF000074B05221A700320FFF770FFF7E7022066
:10100000FFF76CFFF3E7024B00221A70EFE700BF17
:1010100091000020034B0360034B0B60802313609F
:10102000704700BFE4030020E4010020034B03608D
:10103000034B0B604FF48073136070473808002037
:1010400038040020FEE7FEE7FEE7FEE7FEE7704714
:1010500008B5012000F04AFD08BD000008B50248AF
:1010600000F080FE08BD00BFB400002008B50248B3
:1010700003F0C2F808BD00BF8C08002008B5024884
:1010800002F054F908BD00BF1401002000B583B080
:10109000002200920D4B596C41F480415964596C07
:1010A00001F48041009100990192196C41F0805146
:1010B00019641B6C03F080530193019B0F216FF0A7
:1010C000010000F053FF03B05DF804FB003802405C
:1010D00070B588B000230393049305930693079398
:1010E0000268254B9A4201D008B070BD0446002525
:1010F0000195224E336B43F002033363336B03F0ED
:1011000002030193019BC02303931223049303233F
:1011100006930423079303A9194800F0FDFB0295E9
:10112000336C43F400133364336C03F40013029301
:10113000029B1448144B03604FF00073436040233C
:101140008360C5604FF48063036145618561C5615B
:101150000562456200F058FD58B90A4B63639C6311
:10116000002205211F2000F001FF1F2000F036FFA4
:10117000BAE7FFF763FAF0E7005400400038024096
:1011800000040240B4000020A060024000B589B015
:101190000023039304930593069307930268154B6A
:1011A0009A4202D009B05DF804FB0021019103F5D9
:1011B00084335A6C42F480525A645A6C02F480525E
:1011C0000192019A02911A6B42F001021A631B6BA1
:1011D00003F001030293029BE02303930223049391
:1011E000032306930523079303A9034800F094FB08
:1011F000D8E700BF003001400000024030B589B0A0
:101200000546002401941D4B5A6C42F001025A64B9
:101210005B6C03F001030193019B02A903A800F09A
:101220005DFB00F04BFB164AA2FB00239B0C013B2D
:101230001448154A026040F2E732C260436004611C
:101240008460846103F0E4F8044610B1204609B0DC
:1012500030BD0C4802F090FF04460028F6D119205A
:1012600000F0BCFE0F2D01D90124EFE70022294632
:10127000192000F07BFE054B1D60E7E700380240B7
:1012800083DE1B438C080020000001400400002086
:10129000002800F0E08170B582B00446036813F0C6
:1012A000010F3BD09F4B9B6803F00C03042B2CD009
:1012B0009C4B9B6803F00C03082B21D06368B3F5AB
:1012C000803F4FD0B3F5A02F52D0964B1A6822F42E
:1012D00080321A601A6822F480221A606368002B38
:1012E00050D000F0AFFE05468E4B1B6813F4003F54
:1012F00014D100F0A7FE401B6428F5D90320B1E10A
:10130000884B5B6813F4800FD8D0864B1B6813F4AE
:10131000003F03D06368002B00F09F81236813F027
:10132000020F54D07F4B9B6813F00C0F3ED07D4BC7
:101330009B6803F00C03082B33D0E368002B68D0C4
:10134000794B01221A6000F07DFE0546754B1B6843
:1013500013F0020F54D100F075FE401B0228F5D99E
:1013600003207FE16F4A136843F480331360B5E7CD
:101370006C4B1A6842F480221A601A6842F4803278
:101380001A60ABE700F05EFE0546664B1B6813F47F
:10139000003FC3D000F056FE401B6428F5D903205F
:1013A00060E1604B5B6813F4800FC6D15D4B1B6836
:1013B00013F0020F03D0E368012B40F05081594A2B
:1013C000136823F0F803216943EAC103136023681B
:1013D00013F0080F42D063696BB3534B0122C3F87B
:1013E000802E00F02FFE05464E4B5B6F13F0020F70
:1013F00034D100F027FE401B0228F5D9032031E14B
:10140000484A136823F0F803216943EAC1031360D3
:10141000DDE7454B00221A6000F014FE0546414B03
:101420001B6813F0020FD2D000F00CFE401B022804
:10143000F5D9032016E13C4B0022C3F8802E00F0C2
:1014400001FE0546374B5B6F13F0020F06D000F02C
:10145000F9FD401B0228F5D9032003E1236813F0AE
:10146000040F77D02F4B1B6C13F0805F33D1002318
:1014700001932C4B1A6C42F080521A641B6C03F0DF
:1014800080530193019B0125284B1B6813F4807F37
:1014900023D0A368012B34D0052B38D0214B1A6FF1
:1014A00022F001021A671A6F22F004021A67A36879
:1014B000002B3DD000F0C6FD06461A4B1B6F13F003
:1014C000020F46D100F0BEFD801B41F288339842E6
:1014D000F3D90320C6E00025D6E7144A136843F485
:1014E0008073136000F0AEFD0646104B1B6813F4CA
:1014F000807FCED100F0A6FD801B0228F5D9032005
:10150000B0E0084A136F43F001031367CFE7054BC0
:101510001A6F42F004021A671A6F42F001021A674A
:10152000C5E700BF0038024000004742007000409D
:1015300000F088FD0646524B1B6F13F0020F08D0D7
:1015400000F080FD801B41F288339842F3D90320DC
:1015500088E0EDB9A369002B00F08380484A9268C7
:1015600002F00C02082A51D0022B17D0454B002262
:101570001A6600F067FD0446414B1B6813F0007FBC
:1015800042D000F05FFD001B0228F5D9032069E07E
:101590003B4A136C23F080531364DBE7394B002282
:1015A0001A6600F04FFD0546354B1B6813F0007FAF
:1015B00006D000F047FD401B0228F5D9032051E07A
:1015C000E369226A1343626A43EA8213A26A5208F9
:1015D000013A43EA0243E26A43EA0263284A53605B
:1015E000284B01221A6600F02DFD0446244B1B688F
:1015F00013F0007F06D100F025FD001B0228F5D96D
:1016000003202FE000202DE000202BE0012B2BD029
:101610001B4B5B6803F48001E269914226D103F021
:101620003F02216A8A4223D1616A47F6C0721A409A
:10163000B2EB811F1ED103F44031A26A5208013A75
:10164000B1EB024F18D103F07063E26AB3EB026FA3
:1016500014D1002006E001207047012002E00120A3
:1016600000E0002002B070BD0120FBE70120F9E797
:101670000120F7E70120F5E70120F3E70120F1E77A
:10168000003802400000474208B5264B9B6803F033
:101690000C03042B41D0082B41D1224B5A6802F095
:1016A0003F025B6813F4800F12D01E4B5968C1F3E0
:1016B00088111D480023A1FB0001FEF7C1FD194B55
:1016C0005B68C3F3014301335B00B0FBF3F027E039
:1016D000144B5868C0F388104FEA401CBCEB000C58
:1016E0006EEB0E0E4FEA8E1343EA9C634FEA8C11A9
:1016F000B1EB0C0163EB0E03DB0043EA5173C9004D
:1017000011EB000C43F10003990200234FEA8C20F7
:1017100041EA9C51FEF794FDD1E7034800E00348FD
:1017200008BD00BF0038024040787D010024F4006D
:10173000002800F09B8070B50D4604464F4B1B6897
:1017400003F007038B4208D2CBB24C4A13701368E4
:1017500003F007038B4240F08B80236813F0020FE5
:1017600017D013F0040F04D0454A936843F4E053B4
:101770009360236813F0080F04D0414A936843F440
:10178000604393603E4A936823F0F003A1680B43E3
:101790009360236813F0010F32D06368012B21D0CE
:1017A0009A1E012A25D9364A126812F0020F61D01A
:1017B00033498A6822F0030213438B6000F042FC35
:1017C00006462F4B9B6803F00C036268B3EB820F55
:1017D00016D000F037FC801B41F288339842F0D9D4
:1017E000032042E0264A126812F4003FE0D10120B3
:1017F0003BE0234A126812F0007FD9D1012034E087
:101800001E4B1B6803F00703AB4207D9EAB21B4B20
:101810001A701B6803F00703AB422DD1236813F045
:10182000040F06D0164A936823F4E053E1680B4393
:101830009360236813F0080F07D0114A936823F4CC
:101840006043216943EAC1039360FFF71DFF0C4B1E
:101850009B68C3F303130B4AD35CD8400A4B186050
:101860000A4B1868FFF7CAFC002070BD01207047C2
:101870000120FAE70120F8E70120F6E7003C0240EA
:1018800000380240587700080800002004000020BB
:10189000014B1868704700BF0800002008B5FFF72B
:1018A000F7FF044B9B68C3F38223034AD35CD84001
:1018B00008BD00BF003802406877000808B5FFF790
:1018C000E7FF044B9B68C3F34233034AD35CD84021
:1018D00008BD00BF00380240687700080F2303608E
:1018E0000B4B9A6802F0030242609A6802F0F00221
:1018F00082609A6802F4E052C2609B68DB0803F4DD
:10190000E0530361034B1B6803F007030B60704750
:1019100000380240003C024000230F2B00F2D78029
:1019200070B582B065E085684FEA430E032404FA7F
:101930000EF425EA0405CC6804FA0EF42C43846006
:10194000446824EA02044A68C2F300129A4022431F
:1019500042605CE0DC08083450F8242003F00705FE
:10196000AD004FF00F0E0EFA05FE22EA0E0E0A69C8
:10197000AA4042EA0E0240F824205CE0042200E083
:10198000002202FA0EF22A430234514D45F8242077
:10199000504A94686FEA0C0224EA0C054E6816F46B
:1019A000801F01D04CEA04054A4CA560E46802EAB5
:1019B00004054E6816F4001F01D04CEA0405454C9E
:1019C000E560646802EA04054E6816F4003F01D041
:1019D0004CEA04053F4C6560246822404D6815F4CC
:1019E000803F01D04CEA04023A4C226001330F2BB5
:1019F0006BD801229A400C6804EA020C32EA040413
:101A0000F4D14C6804F00304013C012C8BD94A68E2
:101A100002F00302032A09D0C4685D000322AA4031
:101A200024EA02048A68AA402243C2604A6802F09B
:101A30000302022A8ED004684FEA430E032202FA00
:101A40000EF224EA02044A6802F0030202FA0EF2DD
:101A5000224302604A6812F4403FC7D0002201923C
:101A60001D4A546C44F480445464526C02F4804225
:101A70000192019A9C08A51C154A52F8255003F0C2
:101A8000030E4FEA8E0E0F2202FA0EF225EA02052D
:101A9000124A90423FF474AF02F5806290420ED039
:101AA00002F5806290420CD002F5806290420AD02A
:101AB00002F5806290423FF461AF072261E70122A4
:101AC0005FE702225DE703225BE702B070BD70476B
:101AD00000380140003C0140003802400000024054
:101AE0000AB18161704709048161704708B5054BEF
:101AF0005B69034200D108BD024B5861FEF778FDD7
:101B0000F9E700BF003C014030B405682C6824F4BC
:101B100080242C60046863608368402B05D00368D0
:101B200099600368DA6030BC704703689A600368A4
:101B3000D960F8E710B40368D9B210390C4AA2FB97
:101B4000014212090B4CA25CC2655F2909D923F43A
:101B50007F7323F0030304338365806D5DF8044BCA
:101B6000704723F47F7323F003038365F5E700BF19
:101B7000ABAAAAAA50770008836A826992B9012B9E
:101B80000AD0022B02D00BB100207047C36A13F0B9
:101B9000807F28D100207047C36AB3F1C07F24D072
:101BA00000207047B2F5005F09D0022B25D9032B26
:101BB00025D1C36A13F0807F23D100207047032B07
:101BC00003D8DFE803F01404140A00207047C36A46
:101BD00013F0807F0DD100207047C36AB3F1C07F3E
:101BE00009D0002070470120704701207047012074
:101BF0007047012070470120704701207047002086
:101C0000704701207047000070B5044600F01AFAD2
:101C1000002C5BD00546022384F83530002384F87D
:101C200034302268136823F00103136023681A68B4
:101C300012F0010F0AD000F005FA431B052BF5D96D
:101C400020236365032084F8350070BD1A6820499D
:101C500011406268A0680243E068024320690243C1
:101C600060690243A0690243E0690243206A0243BB
:101C70000A43616A04291ED01A602668756925F036
:101C80000705636A1D43042B07D1A36A1D43E36A5A
:101C90001BB12046FFF770FF90B975612046FFF732
:101CA00049FFE26D3F23934083600020606501237C
:101CB00084F83530C9E7E16A206B01430A43DBE76A
:101CC00040236365012084F83500BEE70120BCE7AE
:101CD0003F8010F038B50446856D90F83400012837
:101CE0002BD0012084F8340094F83500C0B20128CC
:101CF00004D0002384F83430022038BD022084F858
:101D00003500002060652046FFF7FEFEE26D3F23B0
:101D10009340AB602268136843F016031360236C92
:101D200023B12268136843F0080313602268136824
:101D300043F0010313600020DFE70220DDE790F8A5
:101D40003530DBB2022B03D080234365012070477E
:101D5000052380F835300268136823F0010313600F
:101D600000207047F0B583B0044600230193724B06
:101D70001D68724BA3FB0535AD0A876D3E68C26DC9
:101D800008239340334210D003681A6812F0040FFE
:101D90000BD01A6822F004021A60C26D0823934027
:101DA000BB60436D43F001034365E26D0123934043
:101DB000334209D02268526912F0800F04D0BB6010
:101DC000636D43F002036365E26D04239340334285
:101DD00009D02268126812F0020F04D0BB60636D54
:101DE00043F004036365E26D10239340334224D033
:101DF0002268126812F0080F1FD0BB6023681A68AF
:101E000012F4802F0DD01B6813F4002F04D1236C23
:101E10009BB12046984710E0A36C73B120469847C9
:101E20000BE01A6812F4807F03D11A6822F00802CE
:101E30001A60236C0BB120469847E26D2023934033
:101E4000334255D02268126812F0100F50D0BB6098
:101E500094F83530DBB2052B0ED023681A6812F4E3
:101E6000802F33D01B6813F4002F2AD1636C002B12
:101E70003ED0204698473BE02268136823F01603C3
:101E800013602268536923F080035361236CA3B16C
:101E90002268136823F008031360E26D3F23934028
:101EA000BB60012384F83530002384F83430236D7F
:101EB000002B3FD0204698473CE0A36C002BE7D195
:101EC000EBE7E36BA3B12046984711E01A6812F4E0
:101ED000807F09D11A6822F010021A60012384F869
:101EE0003530002384F83430E36B0BB1204698473B
:101EF000636DFBB1636D13F0010F17D0052384F8F8
:101F000035302268136823F001031360019B01330D
:101F10000193AB4204D823681B6813F0010FF5D17D
:101F2000012384F83530002384F83430E36C0BB19E
:101F30002046984703B0F0BD08000020B5814E1B35
:101F400090F8350070470000074AD36823F4E06337
:101F50001B041B0C000200F4E060034343F0BF636A
:101F600043F40033D360704700ED00E000B5194B37
:101F7000DB68C3F30223C3F1070CBCF1040F28BFD5
:101F80004FF0040C03F1040EBEF1060F18D9033B09
:101F90004FF0FF3E0EFA0CFC21EA0C0199400EFABC
:101FA00003FE22EA0E020A4300280BDB1201D2B222
:101FB00000F1604000F5614080F800235DF804FB0B
:101FC0000023E5E700F00F001201D2B2024B1A54D1
:101FD000F4E700BF00ED00E014ED00E0002807DBAF
:101FE00000F01F02400901239340024A42F82030CA
:101FF000704700BF00E100E008B50B4B1A6842F4DF
:1020000000721A601A6842F480621A601A6842F418
:1020100080721A600320FFF797FF0F20FFF7EEF89A
:10202000FFF734F8002008BD003C0240034A116865
:10203000034B1B780B441360704700BFD40800208B
:1020400000000020014B1868704700BFD408002032
:1020500090F83E30DBB2402B10D00369B3F5804FCF
:102060001BD0036D002B39D1436CC3F3C813026836
:1020700003F0060343F0F00313617047036D2BB9BF
:10208000436C026803F0FE0313617047436C0268FF
:1020900043F00103DBB21361704790F83D30DBB2CF
:1020A000212B0FD0436C026843F00103DBB21361B4
:1020B000436B6BB1DB6B5BB10268536843F4006345
:1020C00053607047436C026803F0FE031361EFE74F
:1020D000836B33B1DB6B002BEED102E0036D012B80
:1020E00000D07047436CC3F3C813026803F00603C3
:1020F00043F0F1031361F4E7436C0268DBB2136150
:10210000436B3BB1DB6B2BB10268536843F4006354
:1021100053607047836B002BFBD0DB6B002BF3D13C
:10212000F7E7000010B48BB090F83E30DAB2C16A25
:10213000046B90F83D30DBB2222B0BD000230993C7
:1021400003685A6909929B690993099B0BB05DF872
:10215000044B7047036D0BB9402A17D0036D1BB9B0
:102160000369B3F5404F19D0438D9BB2002B25D1A5
:10217000029303685A6902929A690292029A1A6853
:1021800042F400721A6000230365DFE700930368DE
:102190005A6900929B690093009BD7E70023019343
:1021A00003685A6901929A690192019A1A6842F485
:1021B00080721A60036D01330365C7E7438D9BB2DC
:1021C000012B1CD0438D9BB2022B73D00268136885
:1021D00043F48063136003685A6812F4006F00F0E0
:1021E000AA80202900F2B080082980F09D80012972
:1021F00040F0A1805A6842F480525A609BE011F589
:10220000803F1AD008293DD020293BD0122C37D04E
:10221000102904D84E4BCB4013F0010F44D1026873
:10222000136823F4806313600023059303685A69DD
:1022300005929B690593059BA5E70268136823F443
:102240008063136003685A6812F4006F0CD01A6838
:1022500022F480621A600023039303685A69039290
:102260009B690393039B8EE7002204925A690492B0
:102270009A690492049A1A6842F400721A6082E71A
:102280000129C5D00268136823F48063136000231A
:10229000069303685A6906929A690692069A1A6822
:1022A00042F400721A606EE70268136843F48063B8
:1022B0001360B9E7102904D8254BCB4013F0010F68
:1022C00019D10268136823F48063136002681368ED
:1022D00043F40063136003685A6812F4006F16D069
:1022E00020291DD808290CD2012910D15A6842F49E
:1022F00080525A600BE00268136843F480631360F5
:10230000E9E70839134ACA4012F0010FEED1002361
:10231000079303685A6907929B690793079B32E703
:1023200011F5803FF3D1E1E708390A4ACA4012F0BB
:10233000010F7FF45FAF0023089303685A69089286
:102340009B690893089B1EE711F5803FF3D151E785
:102350001400010001010001438D9BB25BB1426A90
:10236000036812781A61436A01334362438D9BB25A
:10237000013B9BB243857047438D9BB25BB10368C1
:102380001A69436A1A70436A01334362438D9BB2F0
:10239000013B9BB24385704782B0002301930E4BF3
:1023A0001B68DB080D4AA2FB03231B0A03EB830314
:1023B0000193019B013B0193019B33B103681B68AF
:1023C00013F4007FF5D1002004E0036C43F02003F8
:1023D0000364012002B070470800002089B5F8149A
:1023E00003685A6912F4806F01D1002070476FF4BE
:1023F00080625A6100230363202280F83D2080F828
:102400003E30026C42F00402026480F83C3001204D
:102410007047C36AB3F52A0F04D0C36AB3F12A4FD9
:1024200003D070470123C36270470823C362F8E7F3
:102430002DE9F04107460D4690461E4624E0FFF781
:1024400001FE069BC01AB04200D8EEB900233B63E0
:10245000202287F83D2087F83E303A6C42F0200277
:102460003A6487F83C3001201EE03B689C6925EA0D
:10247000040C1FFA8CFCBCFA8CFC4FEA5C1CE04597
:1024800011D1B6F1FF3FDAD1C5F30743012BECD1EF
:102490003B685B6925EA030C1FFA8CFCBCFA8CFCD8
:1024A0004FEA5C1CEBE70020BDE8F0812DE9F0412C
:1024B00005460E46174698463DE01A6842F40072FB
:1024C0001A602B686FF480625A6100232B6320220C
:1024D00085F83D2085F83E302A6C42F004022A64DB
:1024E00085F83C30012034E0FFF7ACFDA0EB08009C
:1024F000B84200D8FFB900232B63202285F83D2085
:1025000085F83E302A6C42F020022A6485F83C307F
:1025100001201EE02B689C6926EA0404A4B2003C5A
:1025200018BF0124A4B12B685A6912F4806FC4D17A
:10253000B7F1FF3FD8D1C6F30743012BEAD12B688F
:102540005C6926EA0404A4B2003C18BF0124E9E750
:102550000020BDE8F0810000F0B583B004460D46D0
:1025600016461F46C36A082B0DD0012B0BD013F55E
:10257000803F08D0036B122B0AD10268136843F422
:102580008073136004E02268136843F4807313605F
:102590000097334600224FF001112046FFF748FF15
:1025A00080B92369B3F5804F16D1236805F0FE0585
:1025B0001D613B46324613492046FFF777FFF8B9C5
:1025C00003B0F0BD23681B6813F4807F02D04FF482
:1025D000007323640320F3E7EB11226803F0060382
:1025E00043F0F00313613B46324607492046FFF7AC
:1025F0005DFF18B92368EDB21D61DAE70120DFE75E
:102600000120DDE7020001000800010070B504466A
:102610000D46164623685B6913F0800F1CD12046D7
:10262000FFF7DEFED0B9B5F1FF3FF3D0FFF70AFDAB
:10263000801BA84201D8002DECD100232363202267
:1026400084F83D2084F83E30226C42F0200222645F
:1026500084F83C30012000E0002070BD0120FCE740
:1026600070B504460D46164623685B6913F0040FE7
:102670001CD12046FFF7B4FED0B9B5F1FF3FF3D02F
:10268000FFF7E0FC801BA84201D8002DECD100230D
:102690002363202284F83D2084F83E30226C42F0EF
:1026A0002002226484F83C30012000E0002070BD4C
:1026B0000120FCE7002800F0CC8070B5044690F8BB
:1026C0003D30002B77D0242384F83D3022681368F6
:1026D00023F0010313602268136843F4004313607E
:1026E0002268136823F400431360FFF7D7F8626889
:1026F0005A4B9A4264D85A4B98428CBF002301230C
:10270000002B40F0A8805749A1FB00318B0C2568B5
:102710006A6822F03F0242EA91426A6021680A6ACE
:1027200022F03F0266684D4DAE424FD8013313434D
:102730000B622168CA6922F44F4222F0FF026568E9
:10274000464B9D424CD8431E6D00B3FBF5F301335D
:1027500040F6FC70034278D0C3F30B031A43CA61FE
:1027600021680B6823F0C003E269206A0243134327
:102770000B6021688B6823F4034323F0FF03226975
:10278000E068024313438B602168CB6823F0FF03AA
:102790006269A06902431343CB602268136843F067
:1027A0000103136000202064202384F83D3020635F
:1027B00084F83E0070BD80F83C30FEF789FC82E76B
:1027C000294B98428CBF0023012399E74FF496755B
:1027D00005FB03F3254DA5FB03539B090133A6E736
:1027E000A668BEB9431E05EB450CB3FBFCF30133F1
:1027F000C3F30B03B3FA83F35B0943BBC6B9431EB0
:1028000005EB4505B3FBF5F30133C3F30B0343F4C9
:102810000043A3E7431E05EB850C0CEB8C0CB3FBCC
:10282000FCF30133C3F30B03B3FA83F35B09E4E76F
:10283000431E05EB850505EB8505B3FBF5F3013379
:10284000C3F30B0343F4404388E7042386E70123E3
:1028500084E7012070470120ACE700BFA08601009B
:102860007F841E0083DE1B43FF083D00D34D6210B2
:102870002DE9F04385B004460F46914698460C9EDC
:10288000FFF7E0FB054694F83D00C0B2202804D0D5
:102890000227384605B0BDE8F083009519230122D0
:1028A0004F492046FFF7C4FD002840F0928094F87D
:1028B0003C30012B00F08F80012384F83C302368EA
:1028C0001A6812F0010F03D11A6842F001021A606F
:1028D0002268136823F400631360212384F83D30D9
:1028E000102384F83E3000232364C4F82490A4F815
:1028F0002A80638D23853B4BE3622B463246394663
:102900002046FFF729FE0746002866D100230393DF
:1029100023685A6903929B690393039B11E0236C1C
:10292000042B01D00127B4E72268136843F4007335
:102930001360F7E72A4631462046FFF791FE00284C
:102940002ED1238D002B36D02A4631462046FFF764
:102950005DFE0028E3D1626A236812781A61606A1A
:10296000431C6362618D89B2013989B26185238D0F
:10297000013B9BB223852268516911F0040FD9D025
:10298000002BD7D043781361636A01336362638D90
:102990009BB2013B9BB26385238D013B2385C9E735
:1029A000236C042B01D0012773E72268136843F4DA
:1029B00000731360F7E72268136843F40073136031
:1029C000202384F83D30002384F83E3084F83C30E6
:1029D0005FE702275DE702275BE7012759E700BFB2
:1029E000020010000000FFFF70477047704708B5F5
:1029F00090F83D30DAB2438D9BB283B1416A0368EF
:102A000009781961436A01334362438D9BB2013BEC
:102A10009BB24385438D9BB20BB9292A00D008BDD8
:102A20000268536823F480635360212303632823DF
:102A300080F83D30FFF7DAFFF1E7704708B590F80E
:102A40003D30DAB2438D9BB283B103681969436AA2
:102A50001970436A01334362438D9BB2013B9BB2C1
:102A60004385438D9BB20BB92A2A00D008BD02686A
:102A7000536823F48063536022230363282380F880
:102A80003D30FFF7DAFFF1E7704700B583B090F80B
:102A90003D3003F02803282B0CD00023019302685B
:102AA0005169019192690192019A80F83C3003B01A
:102AB0005DF804FB0268536823F48063536011F0EF
:102AC000040F0BD0002311F0800F09D1828900215F
:102AD00080F83C101946FFF7D7FFE8E70123F2E73B
:102AE000028BF4E77047704708B5C26A90F83D3032
:102AF000DBB2212B00D008BD438D9BB263B1426A8B
:102B0000036812781A61436A01334362438D9BB2B2
:102B1000013B9BB24385EEE7082A04D0202A02D06D
:102B200012F5803F19D10268536823F4E0635360C3
:102B30000268136843F400731360002303632023C7
:102B400080F83D3090F83E30DBB2402B15D00023AA
:102B500080F83E30FFF748FFCDE70268536823F462
:102B6000E063536011230363002380F83E30202389
:102B700080F83D30FFF738FFBDE7002380F83E3096
:102B8000FFF7B1FFB7E708B590F83D30026D9AB98D
:102B9000C36C012B08D0836CC3F307230268136155
:102BA000036D0133036508BD836C0268DBB21361FA
:102BB000036D02330365F6E7DBB2026D012A23D011
:102BC000026D022AEFD1222B26D0428D92B20AB199
:102BD000212B2AD0428D92B2002AE4D1212BE2D1BE
:102BE0000268536823F4E06353600268136843F497
:102BF0000073136000230363202280F83D2080F8D7
:102C00003E30FFF770FFCEE7836C0268DBB21361E2
:102C1000036D01330365C6E70268136843F48073EC
:102C20001360036D01330365BDE7426A03681278E0
:102C30001A61436A01334362438D9BB2013B9BB2ED
:102C40004385B0E710B590F83D30DBB290F83E20F8
:102C5000D2B2C46A018D09B9212B04D0212B3BD0FB
:102C6000402A37D010BD082C04D0202C02D014F5F7
:102C7000803F19D10268536823F4E063536002680F
:102C8000136843F40073136000230363202380F868
:102C90003D3090F83E30DBB2402B15D0002380F859
:102CA0003E30FFF7A1FEDDE70268536823F4E063DE
:102CB000536011230363002380F83E30202380F803
:102CC0003D30FFF791FECDE7002380F83E30FFF75F
:102CD0000AFFC7E7222BC5D1438D9BB22BB90268EF
:102CE000536823F480635360BCE790F83E30DBB256
:102CF000402B0CD0426A036812781A61436A013390
:102D00004362438D9BB2013B9BB24385AAE7FFF729
:102D10003AFFA7E7704708B5C26A438D9BB2042B00
:102D200014D0438D9BB2032B22D0438D9BB2022B38
:102D300039D003681A69436A1A70436A01334362DF
:102D4000438D9BB2013B9BB2438510E00268536800
:102D500023F48063536003681A69436A1A70436AF4
:102D600001334362438D9BB2013B9BB2438508BD57
:102D700001684B6823F480634B60042A06D0022A62
:102D800004D00268136823F48063136003681A692F
:102D9000436A1A70436A01334362438D9BB2013B1D
:102DA0009BB24385E3E7013A0F2A40D8DFE802F0FF
:102DB00008393F393F3F3F3F3F3F3F3F3F3F3F089D
:102DC0000268136823F48063136003681A69436A16
:102DD0001A70426A531C4362438D9BB2013B9BB203
:102DE000438503681B695370436A01334362438D13
:102DF0009BB2013B9BB243850268536823F4407346
:102E00005360202380F83D3090F83E30DBB2402BF9
:102E100013D0002380F83E3012230363FFF7E5FD53
:102E2000A5E70268136843F480631360CDE7026886
:102E3000136843F400731360C7E7002380F83E3043
:102E40000363FFF767FF92E7704790F83D30DBB20E
:102E5000222B00D0704710B50446438D9BB2032B44
:102E600015D903681A69436A1A70436A01334362C9
:102E7000438D9BB2013B9BB24385438D9BB2032B99
:102E80000FD10268536823F48063536009E0C26A7B
:102E9000022A01D0012B05D92268536823F48063EC
:102EA000536010BDFFF778FA00282ED1226813680E
:102EB00023F4806313602268536823F4E063536053
:102EC00023681A69636A1A70636A01336362638DE7
:102ED0009BB2013B9BB26385202384F83D3094F87C
:102EE0003E30DBB2402B08D0002384F83E30122362
:102EF00023632046FFF779FDD3E7002384F83E30B3
:102F000023632046FFF706FFCBE72268536823F4CC
:102F1000E063536023681A69636A1A70636A013355
:102F20006362638D9BB2013B9BB26385202384F86F
:102F30003D30002384F83E302046FFF785FFB0E7A0
:102F40007047000000B583B000230193806B90F8B8
:102F50003D20D2B2324B1B68DB083249A1FB031380
:102F60001B0A03EB8303C3EBC3030193019B43B130
:102F7000019B013B019303681B6813F4007FF5D1AB
:102F800003E0036C43F020030364436B0BB10021A7
:102F9000D963836B0BB10021D96301680B6823F4FB
:102FA00080630B6000234385436B0BB100211965DF
:102FB000836B0BB10021196501680B6823F00103D5
:102FC0000B6090F83D30DBB2602B0ED002F028028F
:102FD000282A14D0202380F83D30002380F83E308A
:102FE000FFF732FF03B05DF804FB202380F83D308B
:102FF000002380F83E300364FFF7A2FFF2E7026887
:10300000136843F0010313600268136843F480639C
:10301000136000230363282380F83D30E0E700BFFE
:103020000800002089B5F81410B5044690F83D302A
:10303000DBB290F83E20D2B2102A36D0402A34D0EB
:1030400003F02802282A38D02268526812F4006F50
:1030500007D1602B05D0202384F83D30002384F86D
:103060003E300023236323685A6812F4006F48D06F
:103070005A6822F400625A60626B92F83530DBB213
:10308000012B20D0444B1365606BFEF758FE0028DF
:1030900049D02268136823F001031360202384F8C9
:1030A0003D30606B036D98473DE0222BC8D121680D
:1030B0000A6822F400620A60C2E70023236328231F
:1030C00084F83D30CFE7A36B334A1A65A06BFEF757
:1030D00036FE40B323685A6912F0400F05D01A69D2
:1030E000636A1A70636A013363622268136823F0AB
:1030F00001031360202384F83D30A06B036D9847D3
:1031000011E094F83D20D2B2602A1FD05A6912F023
:10311000400F05D01A69636A1A70636A01336362EB
:103120002046FFF791FE236C13F00F0F04D02268A6
:10313000536823F4E063536094F83D30DBB2226CB3
:1031400012F0040F01D0282B18D010BD202284F8D3
:103150003D20002222645A6912F0400F05D01A69FE
:10316000636A1A70636A013363622268136823F02A
:10317000010313602046FFF7E3FED4E7074BE36249
:1031800000232363202284F83D2084F83E3020462B
:10319000FFF7A8FCD9E700BF452F00080000FFFF9C
:1031A00030B583B0044690F83D50EDB202685368E4
:1031B00023F4E06353600023019303685A6901928A
:1031C0001A6842F001021A60019B0268136823F436
:1031D0008063136003685A6812F4006F38D0222DA0
:1031E00021D02A2D1FD0426B1268526892B24285BC
:1031F000428D92B21AB1026C42F0040202645A6823
:1032000022F400625A60606BFEF79AFE01281FD01C
:10321000636B444A1A65606BFEF791FDC0B1606B49
:10322000036D984714E0A26B1268526892B26285EF
:10323000628D92B21AB1226C42F0040222645A6882
:1032400022F400625A60A06BFEF77AFE012842D198
:10325000638D9BB233B323685A6912F0040F0AD00E
:103260001A69636A1A70636A01336362638D9BB281
:10327000013B9BB2638523685A6912F0400F0AD064
:103280001A69636A1A70636A01336362638D9BB261
:10329000013B9BB26385638D9BB21BB1236C43F0F2
:1032A00004032364236C13BB2A2D25D094F83D30EE
:1032B000DBB2282B29D0236B222B01D0222D19D150
:1032C00000232363202284F83D2084F83E302046EA
:1032D000FFF7B3FB0EE0A36B124A1A65A06BFEF773
:1032E0002EFD0028B4D0A06B036D9847B0E72046B0
:1032F000FFF79AFE03B030BD00232363282384F830
:103300003D302046FFF799FBD0E7074BE3620023EF
:103310002363202284F83D2084F83E302046FFF7C6
:10332000E1FBE7E7452F00080000FFFFF8B5044682
:1033300002685568C66A90F83E30DBB290F83D10DE
:10334000C8B2102B13D0402B11D0236C002B7AD095
:103350005369002113F0020F78D015F4007F75D067
:10336000236C03B191692046FFF78FFBF8BDD2F8BB
:1033700018C0516911F0010705D1B6F52A0FF5D033
:10338000B6F12A4FF2D017B115F4007F29D111F010
:10339000080F02D015F4007F2AD111F0020F02D0DD
:1033A00015F4007F28D11CF0040F31D0526812F4BC
:1033B000006FDBD111F0800F05D015F4806F02D0C3
:1033C00011F0040F1CD011F0040FCFD015F4007FC2
:1033D000CCD0212818D0402BC8D12046FFF7D3FBF2
:1033E000C4E72046FFF715F82046FEF731FEBDE79B
:1033F0002046FEF781FEB9E72046FEF793FEB5E7CB
:103400002046FFF71FFCB1E72046FFF76DFBADE755
:10341000536813F4006FA9D111F0400F05D015F4D3
:10342000806F02D011F0040F09D011F0040F9DD06D
:1034300015F4007F9AD02046FFF76DFC96E72046F2
:10344000FFF703FD92E79169536983E713F0100FCB
:1034500002D015F4007F18D121281AD0292818D0BD
:1034600013F0400F05D015F4806F02D013F0040F55
:1034700028D013F0040F3FF479AF15F4007F3FF428
:1034800075AF2046FEF778FF70E72046FFF788FE0D
:103490006CE713F0800F05D015F4806F02D013F0A5
:1034A000040F0BD013F0040F3FF460AF15F4007F4E
:1034B0003FF45CAF2046FEF74FFF57E72046FFF78B
:1034C00096FA53E72046FFF7B9FA4FE72DE9F047A0
:1034D00082B00546884617461E46FEF7B3FD0A9B96
:1034E0001B1A03EB0609FEF7ADFD82462A4B1B684B
:1034F000C3F3CB3309FB03F301932B689C6838EAD1
:1035000004040CBF01230023BB4240D0B6F1FF3FAF
:10351000F3D0FEF797FDA0EB0A0048450AD2B9F1B7
:10352000000F07D0019A02B14A46019B013B01936B
:103530009146E2E72A68536823F0E00353606B6822
:10354000B3F5827F0BD0AB6AB3F5005F14D00123D3
:1035500085F85130002385F85030032018E0AB681F
:10356000B3F5004F02D0B3F5806FECD12A68136831
:1035700023F040031360E6E72A68136823F400533E
:1035800013602A68136843F400531360DFE70020D8
:1035900002B0BDE8F08700BF0800002010B584B07D
:1035A0000446164B1868164BA3FB0030400D4FF431
:1035B0007A7303FB00F003906368B3F5827F0BD04E
:1035C000039BBBB1039B013B039323689B6813F0F0
:1035D000800FF5D100200EE000920B4600228021E2
:1035E0002046FFF773FF30B1636D43F0200363653E
:1035F000032000E0002004B010BD00BF0800002040
:10360000819F5E1610B582B004460B464168B1F545
:10361000827F14D06168B1F5827F2AD1A168B1F5AB
:10362000806F19D00092002280212046FFF74EFFC4
:1036300030B3636D43F020036365032020E08168AD
:10364000B1F5004F02D0B1F5806FE3D12068016879
:1036500021F040010160DDE70092002201212046B7
:10366000FFF734FF60B1636D43F02003636503200F
:1036700006E00092002201212046FFF727FF08B94B
:1036800002B010BD636D43F0200363650320F7E7CC
:1036900000285AD010B50446436A33B94368B3F5DD
:1036A000827F05D00023C36102E0002303614361F0
:1036B0000023A36294F85130002B40D0022384F8F9
:1036C00051302268136823F040031360636803F4E9
:1036D0008273A26802F404421343E26802F40062B7
:1036E0001343226902F002021343626902F00102ED
:1036F0001343A26902F400721343E26902F0380234
:103700001343226A02F080021343A26A02F40052B9
:10371000216813430B60638B03F00403626A02F0B9
:103720001002216813434B602268D36923F40063BD
:10373000D36100206065012384F8513010BD84F806
:1037400050302046FDF722FDB8E7012070472DE9F3
:10375000F04383B01D4690F85030012B00F0D1802B
:10376000044688469146012380F85030FEF76AFCF3
:10377000074694F85160F6B2012E40F0AF80B8F1E0
:10378000000F00F0AC80B9F1000F00F0A880032317
:1037900084F8513000236365C4F83080A4F8349075
:1037A000A4F83690A363A387E38763642364A368C4
:1037B000B3F5004F1ED023681A6812F0400F03D1F2
:1037C0001A6842F040021A60E368B3F5006F1CD03B
:1037D000636813B1B9F1010F52D1226B23681278DB
:1037E0001A73236B01332363E38E9BB2013B9BB2BD
:1037F000E38645E02268136823F0400313602268E3
:10380000136843F480431360D5E7636813B1B9F1DB
:10381000010F16D1226B23681288DA60236B023302
:103820002363E38E9BB2013B9BB2E38609E0FEF784
:1038300009FCC01BA84202D3B5F1FF3F59D1002DAE
:1038400059D0E38E9BB2002B33D023689A6812F0D4
:10385000020FECD0226B1288DA60236B02332363F1
:10386000E38E9BB2013B9BB2E386EAE7FEF7EAFBFD
:10387000C01BA84202D3B5F1FF3F3ED1002D3ED080
:10388000E38E9BB2ABB123689A6812F0020FEDD0C1
:10389000226B12781A73236B01332363B4F836C09A
:1038A0001FFA8CFC0CF1FF3C1FFA8CFCA4F836C00C
:1038B000E6E73A4629462046FFF770FE08B1202386
:1038C0006365A36833B901932368DA6801929B6842
:1038D0000193019B636D13B9002600E002260123CA
:1038E00084F85130002384F85030304603B0BDE8EE
:1038F000F0830326F3E70326F1E70326EFE7032629
:10390000EDE70226F1E72DE9F04383B01F460A9D5B
:1039100090F85030012B00F0108104468846914603
:10392000012380F85030FEF78DFB064694F85130A5
:10393000DBB26268012B0AD0B2F5827F40F0E380EF
:10394000A268002A40F0E980042B40F0E880B8F13A
:10395000000F00F0E680B9F1000F00F0E480002FC6
:1039600000F0E38094F85130DBB2042B02D0052341
:1039700084F8513000236365C4F83890E787A7873F
:10398000C4F83080E786A7862364636423681A68D6
:1039900012F0400F03D11A6842F040021A60E36847
:1039A000B3F5006F11D063680BB1012F0BD1226BFF
:1039B000236812781A73236B01332363E38E9BB25F
:1039C000013B9BB2E38601276BE063680BB1012FDB
:1039D0000BD1226B23681288DA60236B02332363D6
:1039E000E38E9BB2013B9BB2E38601271CE0236878
:1039F0009A6812F0010F0ED0E28F92B25AB1DA68D3
:103A0000A36B1A80A36B0233A363E38F9BB2013BCA
:103A10009BB2E3870127FEF715FB801BA84203D367
:103A2000B5F1FF3F40F08380E38E9BB21BB9E38F7B
:103A30009BB2002B53D023689A6812F0020FD6D0A5
:103A4000E28E92B2002AD2D0002FD0D0226B128800
:103A5000DA60236B02332363E38E9BB2013B9BB29C
:103A6000E3860027C3E723689A6812F0010F0ED09F
:103A7000E28F92B25AB1DA68A36B1A70A36B01336A
:103A8000A363E38F9BB2013B9BB2E3870127FEF761
:103A9000D9FA831BAB4202D3B5F1FF3F49D1002DC8
:103AA00049D0E38E9BB213B9E38F9BB2BBB12368BD
:103AB0009A6812F0020FD6D0E28E92B2002AD2D0CB
:103AC000002FD0D0226B12781A73236B013323633B
:103AD000E38E9BB2013B9BB2E3860027C3E73246ED
:103AE00029462046FFF75AFD48B9A36863B90193F8
:103AF0002368DA6801929B680193019B04E020230C
:103B00006365012000E00220012384F85130002386
:103B100084F8503003B0BDE8F0830220F4E70220BF
:103B2000F2E70120F0E70120EEE70120ECE70320B7
:103B3000EAE70320E8E70320E6E70220EAE72DE9C9
:103B4000F04383B00446884691461D464068B0F570
:103B5000827F38D094F85030012B00F0AE800123E2
:103B600084F85030FEF76EFA074694F85160F6B2CA
:103B7000012E40F08F80B8F1000F00F08C80B9F179
:103B8000000F00F08880042384F85130002363651F
:103B9000C4F83880A4F83C90A4F83E902363A38630
:103BA000E38623646364A368B3F5004F19D02368E8
:103BB0001A6812F0400F03D11A6842F040021A60EE
:103BC000E3681BB341E0A368002BC3D1042384F84E
:103BD0005130009513460A462046FFF794FE0646EC
:103BE0005FE02268136823F04003136022681368C3
:103BF00023F480431360DAE7FEF724FAC01BA842DF
:103C000002D3B5F1FF3F50D1002D50D0E38F9BB2CE
:103C1000002B33D023689A6812F0010FECD0A26B0E
:103C20001B7B1370A36B0133A363E38F9BB2013B38
:103C30009BB2E387EAE7FEF705FAC01BA84202D36E
:103C4000B5F1FF3F35D1002D35D0E38F9BB2ABB13D
:103C500023689A6812F0010FEDD0DA68A36B1A801E
:103C6000A36B0233A363B4F83EC01FFA8CFC0CF1C3
:103C7000FF3C1FFA8CFCA4F83EC0E6E73A46294612
:103C80002046FFF7BFFC08B120236365636D13B9BD
:103C9000002600E00226012384F85130002384F836
:103CA0005030304603B0BDE8F0830326F3E7032627
:103CB000F1E70326EFE70326EDE70226F1E7000030
:103CC00038B590F85030012B61D00446012380F8BC
:103CD000503090F85150EDB29D4252D1002951D050
:103CE000002A4FD0032380F851300023436501633D
:103CF0008286C2868363436403648387C387836841
:103D0000B3F5004F2AD0A36C224A1A64A36C224A4E
:103D1000DA63A36C214ADA64A36C00221A65226874
:103D2000E38E9BB20C32216BA06CFDF7D3FF0146F2
:103D3000F8B923681A6812F0400F03D11A6842F0EC
:103D400040021A602268536843F0200353602268DF
:103D5000536843F0020353600D4613E00268136892
:103D600023F0400313600268136843F48043136038
:103D7000C9E7636D43F010036365012384F8513094
:103D800000E00225002384F85030284638BD022583
:103D9000FBE700BFF53F00083B4000081940000862
:103DA00038B5044690F85000012800F094800120B6
:103DB00084F8500094F85100C0B26568012807D01B
:103DC000B5F5827F78D1A568002D7AD104287AD103
:103DD00000297AD0002A7AD0002B7AD094F85100AA
:103DE000C0B2042802D0052084F85100002060658C
:103DF0002163A386E386A263A387E38720646064CC
:103E000094F85130DBB2042B1CD0E36C334A1A64B3
:103E1000E36C334ADA63E36C324ADA64E36C00221F
:103E20001A652168E38F9BB2A26B0C31E06CFDF741
:103E300051FF70B1636D43F010036365012084F896
:103E400051003AE0E36C284A1A64E36C274ADA63CB
:103E5000E1E72268536843F001035360A26C00233A
:103E60001364A26CD363A26CD364A26C1365226842
:103E7000E38E9BB20C32216BA06CFDF72BFF98B93F
:103E800023681A6812F0400F03D11A6842F040020A
:103E90001A602268536843F0200353602268536815
:103EA00043F00203536008E0636D43F01003636561
:103EB000012084F8510000E00220002384F85030F3
:103EC00038BD0220F9E70220F7E70120F5E70120DD
:103ED000F3E70120F1E70220F2E700BF0D40000800
:103EE000194100081940000801400008AB400008D3
:103EF00038B5044683681BB94068B0F5827F49D065
:103F000094F85000012868D0012084F8500094F8FB
:103F10005150EDB285425AD1002959D0002A57D0CC
:103F2000042084F8510000206065A163A287E28725
:103F300020646064A086E086B3F5004F34D0E36C63
:103F4000274A1A64E36C274ADA63E36C264ADA6488
:103F5000E36C00221A652168E38F9BB2A26B0C31DF
:103F6000E06CFDF7B7FE014648BB23681A6812F003
:103F7000400F03D11A6842F040021A602268536869
:103F800043F0200353602268536843F001035360F9
:103F90000D461DE0042384F8513013460A4620469E
:103FA000FFF7FEFE054616E02268136823F0400383
:103FB00013602268136823F480431360BFE7636DC6
:103FC00043F010036365012384F8513000E00225BB
:103FD000002384F85030284638BD0225FBE700BF97
:103FE00001400008AB4000081940000870477047C6
:103FF0007047704708B5806BFFF7FBFF08BD70473F
:1040000008B5806BFFF7FBFF08BD704708B5806BF4
:10401000FFF7FBFF08BD704708B5806B0268536867
:1040200023F003035360436D43F010034365012302
:1040300080F85130FFF7EFFF08BD30B583B005467B
:10404000846BFDF7FFFF2B681B6813F4807F23D17F
:10405000024621684B6823F020034B6021684B68BF
:1040600023F002034B6064212046FFF797FA18B152
:10407000636D43F020036365A36833B9019323683C
:10408000DA6801929B680193019B0023E386012378
:1040900084F85130636D23B92046FFF7A7FF03B0C2
:1040A00030BD2046FFF7B7FFF9E738B50546846B0A
:1040B000FDF7C8FF2B681B6813F4807F1ED10246F2
:1040C00021684B6823F020034B60A3681BB9636829
:1040D000B3F5827F16D021684B6823F001034B6053
:1040E00064212046FFF78EFA08B120236365002380
:1040F000E387012384F85130636D4BB92046FFF705
:1041000076FF38BD21684B6823F003034B60E7E777
:104110002046FFF780FFF4E738B50546846BFDF7CE
:1041200091FF2B681B6813F4807F1BD10246216826
:104130004B6823F020034B6064212046FFF72EFAE2
:1041400018B1636D43F0200363652268536823F060
:10415000030353600023E386E387012384F851308F
:10416000636D1BB92046FFF743FF38BD2046FFF7BC
:1041700052FFFAE77047000090F83D30DBB2012BA8
:104180002FD1022380F83D300268D36843F0010349
:10419000D3600368154A934218D0B3F1804F15D00D
:1041A000A2F57C42934211D002F5806293420DD079
:1041B00002F58062934209D002F59A32934205D00B
:1041C0001A6842F001021A60002070479A6802F0F3
:1041D0000702062A07D01A6842F001021A6000207E
:1041E0007047012070470020704700BF0000014069
:1041F000704770477047704710B5044603681A69E6
:1042000012F0020F11D0DA6812F0020F0DD06FF029
:1042100002021A610123037703689B6913F0030FFD
:1042200070D0FFF7E6FF0023237723681A6912F0A6
:10423000040F12D0DA6812F0040F0ED06FF00402EF
:104240001A610223237723689B6913F4407F5FD0B0
:104250002046FFF7CEFF0023237723681A6912F068
:10426000080F12D0DA6812F0080F0ED06FF00802B3
:104270001A61042323772368DB6913F0030F4ED000
:104280002046FFF7B6FF0023237723681A6912F050
:10429000100F12D0DA6812F0100F0ED06FF010026B
:1042A0001A61082323772368DB6913F4407F3DD02C
:1042B0002046FFF79EFF0023237723681A6912F038
:1042C000010F03D0DA6812F0010F36D123681A69A2
:1042D00012F0800F03D0DA6812F0800F34D1236817
:1042E0001A6912F0400F03D0DA6812F0400F32D191
:1042F00023681A6912F0200F03D0DA6812F0200F39
:1043000030D110BDFFF774FF2046FFF773FF8AE737
:104310002046FFF76DFF2046FFF76CFF9BE7204626
:10432000FFF766FF2046FFF765FFACE72046FFF783
:104330005FFF2046FFF75EFFBDE76FF001021A61E5
:104340002046FCF76FF9C1E76FF080021A61204642
:1043500000F08BF8C3E76FF040021A612046FFF7C8
:104360004AFFC5E76FF020021A61204600F07CF892
:10437000C7E700000368254A90420ED0B0F1804F95
:104380000BD0A2F57C42904207D002F580629042A9
:1043900003D002F58062904203D123F070034A6893
:1043A00013431A4A90421AD0B0F1804F17D0A2F5A9
:1043B0007C42904213D002F5806290420FD002F509
:1043C000806290420BD002F59A32904207D002F5FB
:1043D0008062904203D002F58062904203D123F4C0
:1043E0004073CA68134323F080034A691343036090
:1043F0008B68C3620B688362044B984202D001232E
:10440000436170470B690363F9E700BF0000014097
:1044100040B310B5044690F83D30F3B1022384F860
:104420003D30214651F8040BFFF7A4FF012384F827
:10443000463084F83E3084F83F3084F8403084F8C9
:10444000413084F8423084F8433084F8443084F8B2
:10445000453084F83D30002010BD80F83C30FFF737
:1044600089FEDBE70120704770477047034AD2F8A6
:10447000883043F47003C2F88830704700ED00E0E4
:1044800000F1080343604FF0FF328260C3600361B4
:1044900000230360704700230361704743684B604B
:1044A0009A688A605160996008610368013303600B
:1044B000704730B40D68B5F1FF3F11D000F108032B
:1044C0001C465B681A68AA42FAD963684B60996017
:1044D0008C606160086103680133036030BC704721
:1044E0000469F2E70369416882688A604168516043
:1044F0005A68824206D0002202611A68013A1A60A4
:104500001868704782685A60F5E70346406A18B138
:104510001B6B1868C0F10700704710B5044602F025
:1045200061F8A26BE36B9A4204D0002402F07CF89D
:10453000204610BD0124F9E710B5044602F052F8F8
:10454000A36B23B9012402F06FF8204610BD0024AC
:10455000F9E770B504461546866B026C5AB90368D4
:104560001BB100200136A66370BD806801F0FCF924
:104570000023A360F6E76DB9406802F0D5F9226C1C
:10458000636813446360A268934219D3236863602D
:104590002846E7E7C06802F0C7F9226C5142E36899
:1045A0009B1AE3602268934202D2A3680B44E36043
:1045B000022D01D00020D5E726B1013E0020D1E731
:1045C0002846CFE70020CDE70346026C6AB110B55C
:1045D0000846D9681144D9609C68A14201D3196882
:1045E000D960D96802F0A0F910BD704738B505460A
:1045F00001F0F8FF95F8454064B201E0013C64B277
:10460000002C0ADD6B6A43B105F1240001F0ACF81F
:104610000028F3D001F03CF9F0E7FF2385F845309E
:1046200002F002F801F0DEFF95F8444064B201E0C8
:10463000013C64B2002C0ADD2B6943B105F1100086
:1046400001F092F80028F3D001F022F9F0E7FF23FF
:1046500085F8443001F0E8FF38BD38B5E0B10D46CB
:10466000044601F0BFFF2368E26B216C01FB0230BE
:10467000A0600020A0636360013A02FB0133E360A5
:10468000FF2384F8443084F84530FDB9236963B9C9
:1046900001F0CAFF012038BD4FF0500383F31188A9
:1046A000BFF36F8FBFF34F8FFEE704F1100001F0EF
:1046B0005BF80028ECD04FF0E0234FF08052C3F8B5
:1046C000042DBFF34F8FBFF36F8FE1E704F11000AC
:1046D000FFF7D6FE04F12400FFF7D2FED8E710B5AD
:1046E000034602980C4631B90060C363046401219B
:1046F000FFF7B3FF10BD0260F7E740B94FF050037A
:1047000083F31188BFF36F8FBFF34F8FFEE710B5B0
:1047100084B01C46844653B192B189B94FF050031E
:1047200083F31188BFF36F8FBFF34F8FFEE74FF016
:10473000500383F31188BFF36F8FBFF34F8FFEE7F2
:104740006AB148230393039B482B13D04FF05003C7
:1047500083F31188BFF36F8FBFF34F8FFEE70029FC
:10476000EFD04FF0500383F31188BFF36F8FBFF387
:104770004F8FFEE7039B012384F8463000949DF899
:1047800018306046FFF7ABFF204604B010BD40B9BB
:104790004FF0500383F31188BFF36F8FBFF34F8F38
:1047A000FEE7F0B583B00D461446064601FB00F067
:1047B000483001F0F1FD074650B1002380F8463043
:1047C0000090234600F1480229463046FFF787FF54
:1047D000384603B0F0BDF0B585B0019288B10F4600
:1047E0001D460446B1B1022D20D1E36B012B1DD033
:1047F0004FF0500383F31188BFF36F8FBFF34F8FD8
:10480000FEE74FF0500383F31188BFF36F8FBFF3C0
:104810004F8FFEE7036C002BE5D04FF0500383F37E
:104820001188BFF36F8FBFF34F8FFEE701F036F8AB
:10483000064658B9019B002B48D04FF0500383F334
:104840001188BFF36F8FBFF34F8FFEE700263DE067
:104850002A4639462046FFF77CFE636A7BB948B199
:104860004FF0E0234FF08052C3F8042DBFF34F8F79
:10487000BFF36F8F01F0D8FE012005B0F0BD04F149
:10488000240000F071FF0028F4D04FF0E0234FF037
:104890008052C3F8042DBFF34F8FBFF36F8FE9E74A
:1048A00001F0C2FE0020E8E702A800F0A3FF012605
:1048B00019E0002384F8443021E0002384F84530D7
:1048C00023E02046FFF792FE00F02CFE01F08AFE66
:1048D000A26BE36B9A42BBD3022DB9D0019B002B94
:1048E000DED0002EE0D001F09FFE00F081FD01F04F
:1048F00079FE94F8442052B2B2F1FF3FD9D094F837
:10490000452052B2B2F1FF3FD7D001F08DFE01A990
:1049100002A800F07BFFD8B92046FFF7FEFD002873
:10492000CFD0019904F1100000F0EAFE2046FFF715
:104930005DFE00F0F7FD0028C8D14FF0E0234FF0F6
:104940008052C3F8042DBFF34F8FBFF36F8FBDE7C5
:104950002046FFF74BFE00F0E5FD00208DE748B153
:1049600008B5002181600160C1600B460A46FFF76F
:1049700032FF08BD704710B5024600210120FFF745
:1049800006FF0446FFF7EBFF204610BD10B582B0CE
:104990000B460090002211460120FFF7AEFE0446B0
:1049A000FFF7DDFF204602B010BD2DE9F84390B1BE
:1049B0000F4616461C460546B1B1022C20D1EB6BC2
:1049C000012B1DD04FF0500383F31188BFF36F8F7D
:1049D000BFF34F8FFEE74FF0500383F31188BFF30F
:1049E0006F8FBFF34F8FFEE7036C002BE5D04FF0C6
:1049F000500383F31188BFF36F8FBFF34F8FFEE730
:104A000001F016FFEFF311884FF0500383F3118884
:104A1000BFF36F8FBFF34F8FAA6BEB6B9A4206D336
:104A2000022C04D0002088F31188BDE8F88395F8A3
:104A300045904FFA89F9AB6B224639462846FFF775
:104A400088FDB9F1FF3F06D009F101035BB285F89B
:104A500045300120E7E76B6A0BB90120E3E705F178
:104A6000240000F081FE18B126B101203060DAE7A1
:104A70000120D8E70120D6E768B170B50C4605469D
:104A8000036C8BB14FF0500383F31188BFF36F8F2A
:104A9000BFF34F8FFEE74FF0500383F31188BFF34E
:104AA0006F8FBFF34F8FFEE70368EBB101F0C0FEDD
:104AB000EFF311864FF0500383F31188BFF36F8F2C
:104AC000BFF34F8FAA6BEB6B934226D995F8453015
:104AD0005BB20132AA63B3F1FF3F11D001335BB285
:104AE00085F84530012019E08368002BDED04FF0B7
:104AF000500383F31188BFF36F8FBFF34F8FFEE72F
:104B00006B6A0BB9012009E005F1240000F02CFECE
:104B100038B144B10120206000E0002086F3118804
:104B200070BD0120FAE70120F8E7F0B585B00192E9
:104B300090B10F460446C1B100F0B0FE064600BB7E
:104B4000019B002B5ED04FF0500383F31188BFF31D
:104B50006F8FBFF34F8FFEE74FF0500383F3118841
:104B6000BFF36F8FBFF34F8FFEE7036C002BE3D0D3
:104B70004FF0500383F31188BFF36F8FBFF34F8F54
:104B8000FEE700263EE039462046FFF71DFD013DC9
:104B9000A563236923B901F047FD012005B0F0BDED
:104BA00004F1100000F0E0FD0028F4D04FF0E02305
:104BB0004FF08052C3F8042DBFF34F8FBFF36F8FB8
:104BC000E9E701F031FD0020E8E702A800F012FE5D
:104BD000012621E0002384F8443029E0002384F8F2
:104BE00045302BE02046FFF701FD00F09BFC09E07B
:104BF0002046FFF7FBFC00F095FC2046FFF79CFCED
:104C000000283FD101F0EEFCA56B002DBBD1019B2C
:104C1000002BD6D0002ED8D001F006FD00F0E8FB26
:104C200001F0E0FC94F844305BB2B3F1FF3FD1D027
:104C300094F845305BB2B3F1FF3FCFD001F0F4FC04
:104C400001A902A800F0E2FD0028D1D12046FFF71B
:104C500073FC0028C6D0019904F1240000F050FD37
:104C60002046FFF7C3FC00F05DFC0028CAD14FF0DE
:104C7000E0234FF08052C3F8042DBFF34F8FBFF3F2
:104C80006F8FBFE7002089E770B584B0019158B1FC
:104C90000446036C8BB14FF0500383F31188BFF3CC
:104CA0006F8FBFF34F8FFEE74FF0500383F31188F0
:104CB000BFF36F8FBFF34F8FFEE700F0EFFD0546A8
:104CC00050B9019B5BB14FF0500383F31188BFF3E0
:104CD0006F8FBFF34F8FFEE70026354655E006463F
:104CE00053E0013BA36323683BB123694BB901F057
:104CF0009BFC0126304604B070BD00F0E7FEA060CA
:104D0000F3E704F1100000F02FFD0028EFD04FF082
:104D1000E0234FF08052C3F8042DBFF34F8FBFF351
:104D20006F8FE4E746B14FF0500383F31188BFF370
:104D30006F8FBFF34F8FFEE701F076FCDAE702A832
:104D400000F058FD01252AE0002384F8443032E0C9
:104D5000002384F8453034E001F044FCA06800F002
:104D6000ADFD064601F060FC3BE02046FFF73EFC4F
:104D700000F0D8FB09E02046FFF738FC00F0D2FB3A
:104D80002046FFF7D9FB002842D101F02BFCA36B92
:104D9000002BA6D1019B002BC4D0002DCFD001F059
:104DA00043FC00F025FB01F01DFC94F844305BB29D
:104DB000B3F1FF3FC8D094F845305BB2B3F1FF3F89
:104DC000C6D001F031FC01A902A800F01FFD0028A7
:104DD000D1D12046FFF7B0FB0028C6D02368002BB6
:104DE000BAD0019904F1240000F08AFC2046FFF7B4
:104DF000FDFB00F097FB0028C7D14FF0E0234FF0F8
:104E00008052C3F8042DBFF34F8FBFF36F8FBCE701
:104E10000EB900266EE701F0E5FB2046FFF775FBB3
:104E20000146A06800F0F8FD01F0FEFBF1E72DE976
:104E3000F843B0B10D4690460446D9B101F0F8FCF4
:104E4000EFF311874FF0500383F31188BFF36F8F97
:104E5000BFF34F8FA66BCEB9002087F31188BDE852
:104E6000F8834FF0500383F31188BFF36F8FBFF3C4
:104E70004F8FFEE7036C002BE0D04FF0500383F31D
:104E80001188BFF36F8FBFF34F8FFEE794F8449004
:104E90004FFA89F929462046FFF796FB731EA36354
:104EA000B9F1FF3F06D009F101035BB284F8443049
:104EB0000120D2E723690BB90120CEE704F11000ED
:104EC00000F052FC30B1B8F1000F05D00120C8F855
:104ED0000000C2E70120C0E70120BEE70023072B46
:104EE0000CD8074A52F833200AB10133F7E7044AD5
:104EF00042F8331002EBC30250607047704700BFA6
:104F0000D808002070B504460D46164601F06AFB2D
:104F100094F844305BB2B3F1FF3F0DD094F84530C4
:104F20005BB2B3F1FF3F0BD001F07EFBA36B5BB133
:104F30002046FFF75BFB70BD002384F84430EDE7AB
:104F4000002384F84530EFE73246294604F1240077
:104F500000F0EEFBECE70000084B1B681B6823B970
:104F6000074B4FF0FF321A607047044B1B68DB6839
:104F7000DB685A68024B1A60704700BF1C090020AA
:104F8000F00900202DE9F04707469846089DDDF816
:104F900024900A9C266B02F18042013A06EB8206BD
:104FA00026F00706C1B308464FF0000CBCF10F0F06
:104FB00009D810F80C2004EB0C0383F8342012B14C
:104FC0000CF1010CF2E7002384F84330062D00D9E0
:104FD0000625E56265644FF0000AC4F848A0201D6C
:104FE000FFF759FA04F11800FFF755FA2461C5F1EB
:104FF0000705A5616462C4F84CA084F850A042463D
:105000003946304601F0C2FA2060B9F1000F01D0F4
:10501000C9F80040BDE8F087002384F83430D5E7B4
:1050200038B5002407E004EB840293000E481844CE
:10503000FFF726FA0134062CF5D90C4D2846FFF768
:105040001FFA0B4C2046FFF71BFA0A48FFF718FA25
:105050000948FFF715FA0948FFF712FA084B1D60D7
:10506000084B1C6038BD00BF24090020C409002083
:10507000D8090020FC090020280A0020140A00207A
:105080001C0900202009002010B5044601F0AAFAEE
:10509000214A136801331360204B1B685BB1204B1E
:1050A0001B686BB91D4B1B68DA6AE36A9A4207D822
:1050B0001A4B1C6004E0194B1C601368012B28D0AC
:1050C000184A136801331360E06A01238340164ACB
:1050D00011680B43136000EB8000211D134B03EBA1
:1050E0008000FFF7DBF901F09FFA0D4B1B687BB1E5
:1050F0000A4B1B68DA6AE36A9A4209D24FF0E0234E
:105100004FF08052C3F8042DBFF34F8FBFF36F8F62
:1051100010BDFFF785FFD3E7B00900201809002074
:10512000100A0020BC090020C0090020240900202A
:1051300010B5044690F8513063B1012B11D0022B09
:105140000ED04FF0500383F31188BFF36F8FBFF37E
:105150004F8FFEE7006B01F09DF9204601F09AF9B0
:1051600010BD01F097F9FBE70F4B1B68D3B110B5E9
:1051700001F038FA0D4BDB68DC68201DFFF7B2F94F
:105180000B4A1368013B1360074A1368013B136025
:1051900001F04AFA2046FFF7CBFF034B1B68002BB8
:1051A000E6D110BD704700BFB4090020280A0020D6
:1051B000B009002008B5FFF7D7FF074B1B68012B8C
:1051C000F9D94FF0E0234FF08052C3F8042DBFF31C
:1051D0004F8FBFF36F8FEEE72409002070B50446B0
:1051E0000D461D4B1E681D4B18680430FFF77AF9F9
:1051F00048B91A4B1B68DB6A01229A4018490B68B0
:1052000023EA02030B60B4F1FF3F0DD03444134B8B
:105210001B685C60A64210D9124B18680F4B1968C6
:105220000431FFF746F970BD002DEFD00B4B196824
:1052300004310D48FFF732F9F5E70C4B1868074BBE
:1052400019680431FFF735F9094B1B68A342EAD905
:10525000074B1C60E7E700BF3C0A0020180900204C
:10526000C009002020090020140A00201C09002089
:10527000F009002030B587B00B9C7CB10C9DB5B116
:1052800054250495049D542D1AD04FF0500383F3F8
:105290001188BFF36F8FBFF34F8FFEE74FF05003BE
:1052A00083F31188BFF36F8FBFF34F8FFEE74FF08B
:1052B000500383F31188BFF36F8FBFF34F8FFEE767
:1052C000049D0C9D2C63022485F851400024039416
:1052D000029505AC01940A9C0094FFF753FE0C98CC
:1052E000FFF7D2FE059807B030BD2DE9F04385B039
:1052F0000746884614461E46900001F04DF800B35C
:105300008146542001F048F80546B0B1C0F830900D
:10531000E5B1002385F85130039302950D9B01936D
:105320000C9B00933346224641463846FFF72AFE3F
:105330002846FFF7A9FE012005E0484601F0AAF83B
:10534000E6E74FF0FF3005B0BDE8F0834FF0FF30E7
:10535000F9E7000010B588B000240594069407AA68
:1053600006A905A8FBF756FE059B0293069B019331
:1053700000942346079A18491848FFF77BFF184BFB
:10538000186040B100F042FC012806D0B0F1FF3FA8
:1053900018D008B010BD0020F6E74FF0500383F39B
:1053A0001188BFF36F8FBFF34F8F0E4B4FF0FF325B
:1053B0001A600D4B01221A600C4B00221A6001F09A
:1053C000ABF9E6E74FF0500383F31188BFF36F8F1B
:1053D000BFF34F8FFEE700BF70770008B55100089C
:1053E000EC090020F0090020100A00203C0A0020EF
:1053F000024A136801331360704700BFB8090020E8
:10540000014B1868704700BF3C0A0020F8B53A4BC2
:105410001B68002B69D1394B1D6801351D60C5B96A
:10542000374B1B681B6843B14FF0500383F311885F
:10543000BFF36F8FBFF34F8FFEE7314A1168314BD7
:10544000186810601960304A136801331360FFF761
:1054500083FD2E4B1B68AB423DD900272C4B1B68AC
:10546000DB6A03EB83039A002A4B9B58012B00D97C
:105470000127294B1B68002B3CD001273AE001276C
:105480001F4B1B681B6843B31D4B1B68DB68DC6844
:1054900063689D4226D3261D3046FFF723F8A36A92
:1054A0001BB104F11800FFF71DF8E36A01229A40CE
:1054B0001A49086802430A6003EB83039A003146E5
:1054C00014481044FEF7EAFFE26A114B1B68DB6ADE
:1054D0009A42D4D2D4E70027D2E70C4B4FF0FF32E8
:1054E0001A60BBE7094A1360B8E70D4A1368013335
:1054F000136000273846F8BDB80900203C0A002098
:105500001C09002020090020F4090020F0090020D7
:105510001809002024090020400A0020C0090020AA
:10552000F809002038B5354B1B6843B94FF05003DC
:1055300083F31188BFF36F8FBFF34F8FFEE701F046
:1055400051F82E4B1A68013A1A601B68002B4FD194
:105550002B4B1B680BB900244BE00024294B1B6824
:105560001BB3284BDB68DC6804F11800FEF7BAFFB8
:10557000251D2846FEF7B6FFE06A01238340224A34
:1055800011680B43136000EB800029461F4B03EBAF
:105590008000FEF783FFE26A1D4B1B68DB6A9A42BC
:1055A000DCD31C4B01221A60D8E70CB1FFF7D4FC06
:1055B000194B1C6884B9174B1C68D4B14FF0E02319
:1055C0004FF08052C3F8042DBFF34F8FBFF36F8F9E
:1055D00001240EE0013C07D0FFF718FF0028F9D0A6
:1055E0000C4B01221A60F5E70B4B00221A60E2E730
:1055F000002401F019F8204638BD00BFB80900208A
:10560000B0090020FC090020C00900202409002066
:1056100018090020400A0020F809002010B5A8B1A0
:105620000446104B1B6843B14FF0500383F31188BD
:10563000BFF36F8FBFF34F8FFEE7FFF7D9FE002157
:105640002046FFF7CBFDFFF76DFF48B94FF0E02391
:105650004FF08052C3F8042DBFF34F8FBFF36F8F0D
:1056600010BD00BFB8090020204B1B681BB1204BA8
:1056700001221A6070471E4B00221A601D4B1B68E6
:10568000B3FA83F3DBB2C3F11F0303EB83018A0098
:1056900019498A5842B94FF0500383F31188BFF378
:1056A0006F8FBFF34F8FFEE7134903EB8300820038
:1056B0000A4450684068506003EB830C4FEA8C0248
:1056C00008321144884209D003EB83039A000A4B45
:1056D00013445B68DA68094B1A6070474068624699
:1056E0009100054A0A445060EEE700BFB809002067
:1056F000400A0020C00900202409002018090020C9
:1057000058B110B50C46094A11681831FEF7D1FEA0
:1057100001212046FFF762FD10BD4FF0500383F3D7
:105720001188BFF36F8FBFF34F8FFEE7180900207A
:1057300038B570B10D4614460A4A11681831FEF7A3
:10574000ADFE0CB14FF0FF3521462846FFF746FD70
:1057500038BD4FF0500383F31188BFF36F8FBFF351
:105760004F8FFEE71809002038B5C368DC6824B302
:1057700004F118052846FEF7B5FE184B1B682BBB35
:10578000251D2846FEF7AEFEE06A01238340144A39
:1057900011680B43136000EB80002946114B03EBAB
:1057A0008000FEF77BFEE26A0F4B1B68DB6A9A42C1
:1057B00011D901200D4B186038BD4FF0500383F311
:1057C0001188BFF36F8FBFF34F8FFEE7294608485C
:1057D000FEF764FEE7E70020EEE700BFB80900200F
:1057E000C00900202409002018090020400A0020D8
:1057F000FC090020034B1B680360034B1B684360DC
:10580000704700BFF40900203C0A0020F8B5C8B179
:105810000C460546F9B100F0E5FE1B4B19686B68B4
:10582000C81A2268B2F1FF3F26D0184E36682F689A
:10583000B74201D08B4224D9824215D8002323607D
:1058400001241AE04FF0500383F31188BFF36F8FE8
:10585000BFF34F8FFEE74FF0500383F31188BFF380
:105860006F8FBFF34F8FFEE75B1A13442360284608
:10587000FFF7C0FF002400E0002400F0D5FE204622
:10588000F8BD0124F9E700BF3C0A0020F40900201C
:10589000014B01221A607047400A0020054B1B682B
:1058A00033B1054B1B680BB10020704702207047D5
:1058B00001207047100A0020B8090020002848D0B5
:1058C00038B50446C36A254A1268D26A934238D270
:1058D0008269002A05DB214A1268D26AC2F10702F6
:1058E0008261616903EB83031D4A02EB83039942E2
:1058F00005D01A4B1B68DB6AE362012038BD251D09
:105900002846FEF7EFFD38B9E36A01229A401549AF
:105910000B6823EA02030B60104B1B68D86AE06235
:10592000012404FA00F30F4A11680B43136000EBE3
:10593000800029460A4B03EB8000FEF7AFFD2046AE
:10594000DCE7426C054B1B68DB6A9A4203D30020FC
:10595000D4E7002070470120D0E700BF18090020DD
:1059600024090020C009002000284BD038B5044687
:10597000264B1B68834208D04FF0500383F31188F5
:10598000BFF36F8FBFF34F8FFEE7836C43B94FF0C8
:10599000500383F31188BFF36F8FBFF34F8FFEE780
:1059A000013B8364C16A426C91422DD00BB100204F
:1059B00038BD051D2846FEF795FD68B9E36A03EB7F
:1059C0008302920012498A5832B901229A40114941
:1059D0000B6823EA02030B60606CE062C0F107030E
:1059E000A361012404FA00F30A4A11680B4313600F
:1059F00000EB80002946064B03EB8000FEF74EFDCE
:105A00002046D5E7002070470020D1E71809002084
:105A100024090020C009002000284FD038B50446D2
:105A2000836C43B94FF0500383F31188BFF36F8F3A
:105A3000BFF34F8FFEE7426C8A4200D20A46E16A0A
:105A4000914201D0012B00D038BD1D4B1B68A342F1
:105A50002BD0E262A369002B02DBC2F10702A26134
:105A6000626901EB8101174B03EB81039A42EBD191
:105A7000251D2846FEF736FD38B9E36A01229A4013
:105A800011490B6823EA02030B60E06A012383409B
:105A90000D4A11680B43136000EB80002946094B47
:105AA00003EB8000FEF7FAFCCEE74FF0500383F3E0
:105AB0001188BFF36F8FBFF34F8FFEE7704700BFB2
:105AC0001809002024090020C0090020054B1B688C
:105AD00023B1044B1A68936C01339364014B18682B
