:020000040800F2
:1000000000000120CD4D00085108000853080008E9
:1000100055080008570800085908000800000000AB
:10002000000000000000000000000000014B00087C
:100030005B08000800000000A14B0008054C000808
:100040001D4E00081D4E00081D4E00081D4E0008E4
:100050001D4E00081D4E00085D0800081D4E0008DA
:100060001D4E00081D4E00081D4E00081D4E0008C4
:100070001D4E00081D4E00081D4E00081D4E0008B4
:100080001D4E0008690800081D4E00080000000011
:100090000000000000000000000000001D4E0008ED
:1000A0001D4E0008790800081D4E00081D4E00086E
:1000B0001D4E00081D4E00081D4E0008890800084E
:1000C0001D4E00081D4E00081D4E00081D4E000864
:1000D0001D4E00081D4E00081D4E000800000000C7
:1000E0001D4E00081D4E00081D4E000800000000B7
:1000F0000000000000000000000000001D4E00088D
:10010000000000001D4E00081D4E00081D4E000896
:1001100000000000000000000000000000000000DF
:100120001D4E00081D4E00081D4E00081D4E000803
:100130001D4E00080000000000000000000000004C
:100140000000000000000000000000001D4E00083C
:100150001D4E00081D4E00081D4E00081D4E0008D3
:100160001D4E00081D4E00080000000000000000A9
:10017000000000000000000000000000000000007F
:10018000000000001D4E00080000000000000000FC
:040190001D4E0008F8
:1001A00053B94AB9002908BF00281CBF4FF0FF31DE
:1001B0004FF0FF3000F00CB8ADF1080C6DE904CE43
:1001C00004F068FEDDF804E0DDE9022304B07047C6
:1001D000704700BF0348044B834202D0034B03B176
:1001E0001847704710000020100000200000000099
:1001F0000548064B1B1AD90F01EBA301491002D089
:10020000034B03B118477047100000201000002076
:100210000000000010B5064C237843B9FFF7DAFF61
:10022000044B13B10448AFF300800123237010BDC9
:1002300010000020000000005C51000808B5054BCC
:100240001BB105490548AFF30080BDE80840FFF742
:10025000CFBF00BF00000000140000205C51000868
:10026000704700002DE9F04188B000240394049405
:100270000594069407940094294B1A6B42F080026F
:100280001A631A6B02F080020092009A01941A6BB2
:1002900042F001021A631A6B02F001020192019A04
:1002A00002941A6B42F002021A631B6B03F0020302
:1002B0000293029B1B4F22460621384601F02CF880
:1002C000DFF8648022464FF48061404601F024F854
:1002D000012503954FF404130493059503A93846AB
:1002E00000F036FF0626039604950594069403A9AC
:1002F000384600F02DFF4FF4806303930495059476
:10030000069403A9404600F023FF2246052130460B
:1003100001F0FEF9304601F033FA08B0BDE8F08193
:1003200000380240000402400000024000B583B0E3
:1003300000220192094B196B41F4001119631B6BE8
:1003400003F400130193019B0521112001F0E0F952
:10035000112001F015FA03B05DF804FB00380240EB
:1003600008B5012004F01FFAFBE708B5642004F08B
:100370001AFAFBE710B500F00EFA464800F046FA0C
:100380004FF4FA6004F00FFA05E0434B1B789BB979
:10039000012004F008FA414B1B78042BF8D801A285
:1003A00052F823F08B030008D3030008030400086D
:1003B00033040008630400080024374B1C7000F06D
:1003C000CFF92146204600F0D8F9354800F01EFA52
:1003D000DEE7314B1B78002BDAD000242E4B1C704B
:1003E00000F0BEF92146204600F0C7F92D4800F084
:1003F0000DFA2146012000F0C0F92B4800F006FA62
:10040000C6E7254B1B78002BC2D00024224B1C7062
:1004100000F0A6F92146204600F0AFF9234800F08D
:10042000F5F92146012000F0A8F91F4800F0EEF987
:10043000AEE7194B1B78002BAAD00024164B1C707A
:1004400000F08EF92146204600F097F9184800F098
:10045000DDF92146012000F090F9164800F0D6F9A8
:1004600096E70D4B1B78002B92D000240A4B1C7092
:1004700000F076F92146204600F07FF90E4800F0A2
:10048000C5F92146012000F078F90A4800F0BEF9CC
:100490007EE700BFC85100082D0000202C0000207E
:1004A000DC510008EC510008F8510008085200081F
:1004B00014520008205200083052000808B50268A3
:1004C000034B9A4200D008BD01F082F9FBE700BF60
:1004D0000000014072B6FEE708B50D480D4B036001
:1004E0004FF48273436000238360C3600361436100
:1004F0004FF4007282611822C26103624362836218
:100500000A23C36202F0B4FB00B908BDFFF7E2FFA3
:10051000EC0000200030014008B50B480B4B036095
:100520000B4B4360002383604E22C2604FF4804235
:10053000026143618361C361036201F08DFC00B914
:1005400008BDFFF7C7FF00BF98000020005400401F
:10055000A086010000B595B03022002108A804F063
:1005600091FC00230393049305930693079301934F
:10057000214A116C41F080511164126C02F08052DA
:100580000192019A02931D4A136823F4404343F4F5
:1005900000431360136803F440430293029B01235A
:1005A00008934FF48033099302230E934FF4800392
:1005B0000F93192310934FF4A873119304231293EC
:1005C0000723139308A800F07FFA80B90F23039341
:1005D00002210491002305934FF480520692079361
:1005E00003A800F0C1FC20B915B05DF804FBFFF7CB
:1005F00071FFFFF76FFF00BF00380240007000403E
:1006000000B59BB001F0CAF8FFF7A4FFFFF72AFE80
:10061000FFF78CFEFFF760FFFFF77EFF00251895C0
:10062000199518A804F0E8F8224B1860224B16938D
:1006300017952A46012116A804F0BCF81F4B186034
:100640001F4C0DF13C0CA646BEE80F00ACE80F00B5
:100650009EE807008CE8070029460FA804F070F810
:10066000184B18600DF1200C04F11C0EBEE80F00B1
:10067000ACE80F009EE807008CE80700294608A8B0
:1006800004F05EF8104B18600DF1040E04F1380C04
:10069000BCE80F00AEE80F009CE807008EE80700FA
:1006A000294601A804F04CF8084B186004F043F800
:1006B000FEE700BF48010020610200084C01002055
:1006C0007451000830000020440100203400002054
:1006D00000B585B000F0F0030001C0B243F00C0299
:1006E0008DF80C2043F008038DF80D3040F00C031A
:1006F0008DF80E3040F008008DF80F006423009351
:10070000042303AA4E21034801F084FC05B05DF8E0
:1007100004FB00BF9800002000B585B000F0F00396
:100720000001C0B243F00D028DF80C2043F0090324
:100730008DF80D3040F00D038DF80E3040F00900BB
:100740008DF80F0064230093042303AA4E2103486D
:1007500001F060FC05B05DF804FB00BF98000020CC
:1007600010B58020FFF7B4FF002403E02020FFF73E
:10077000D3FF0134452CF9DD10BD08B528B101289F
:1007800006D0C8B2FFF7A4FF08BD41F08001F8E72A
:1007900041F0C001F5E708B5322004F004F830203C
:1007A000FFF796FF052003F0FEFF3020FFF790FFD4
:1007B000012003F0F8FF3020FFF78AFF0A2003F042
:1007C000F2FF2020FFF784FF0A2003F0ECFF28202F
:1007D000FFF77EFF012003F0E6FF0820FFF778FF18
:1007E000012003F0E0FF0120FFF772FF012003F07A
:1007F000DAFF012003F0D7FF0620FFF769FF012091
:1008000003F0D1FF0C20FFF763FF08BD10B50446CD
:1008100002E00134FFF780FF20780028F9D110BDF5
:10082000034B0360034B0B6080231360704700BFD2
:100830005003002050010020034B0360034B0B606A
:100840004FF4807313607047A4070020A4030020B6
:10085000FEE7FEE7FEE7FEE7FEE7704708B501208A
:1008600000F060FD08BD000008B5024800F04CFE35
:1008700008BD00BF3800002008B5024802F098FA11
:1008800008BD00BFF807002008B5024802F020F9B3
:1008900008BD00BF98000020012800D07047074B1A
:1008A00001221A70064A13780133DBB21370042B4D
:1008B000F4D9134600221A70F0E700BF2D00002083
:1008C0002C00002000B583B0002200920D4B596C23
:1008D00041F480415964596C01F4804100910099C0
:1008E0000192196C41F0805119641B6C03F0805324
:1008F0000193019B0F216FF0010000F009FF03B08D
:100900005DF804FB0038024070B588B00023039303
:1009100004930593069307930268254B9A4201D0EE
:1009200008B070BD044600250195224E336B43F09C
:1009300002033363336B03F002030193019BC02373
:10094000039312230493032306930423079303A919
:10095000194800F0FDFB0295336C43F40013336437
:10096000336C03F400130293029B1448144B03608E
:100970004FF00073436040238360C5604FF4806391
:10098000036145618561C5610562456200F042FD14
:1009900058B90A4B63639C63002205211F2000F0B5
:1009A000B7FE1F2000F0ECFEBAE7FFF793FDF0E77B
:1009B000005400400038024000040240380000208B
:1009C000A060024000B589B000230393049305930F
:1009D000069307930268154B9A4202D009B05DF85E
:1009E00004FB0021019103F584335A6C42F48052D8
:1009F0005A645A6C02F480520192019A02911A6B65
:100A000042F001021A631B6B03F001030293029B85
:100A1000E023039302230493032306930523079300
:100A200003A9034800F094FBD8E700BF0030014061
:100A30000000024030B589B00546002401941D4BEA
:100A40005A6C42F001025A645B6C03F0010301939B
:100A5000019B02A903A800F05DFB00F04BFB164AC6
:100A6000A2FB00239B0C013B1448154A026040F294
:100A7000E732C260436004618460846102F0A4FADA
:100A8000044610B1204609B030BD0C4802F050F9C0
:100A900004460028F6D1192000F072FE0F2D01D96E
:100AA0000124EFE700222946192000F031FE054B12
:100AB0001D60E7E70038024083DE1B43F807002093
:100AC0000000014004000020002800F0E08170B523
:100AD00082B00446036813F0010F3BD09F4B9B6824
:100AE00003F00C03042B2CD09C4B9B6803F00C03ED
:100AF000082B21D06368B3F5803F4FD0B3F5A02F0A
:100B000052D0964B1A6822F480321A601A6822F486
:100B100080221A606368002B50D000F065FE054605
:100B20008E4B1B6813F4003F14D100F05DFE401B98
:100B30006428F5D90320B1E1884B5B6813F4800F7A
:100B4000D8D0864B1B6813F4003F03D06368002B9A
:100B500000F09F81236813F0020F54D07F4B9B68F5
:100B600013F00C0F3ED07D4B9B6803F00C03082B59
:100B700033D0E368002B68D0794B01221A6000F073
:100B800033FE0546754B1B6813F0020F54D100F07D
:100B90002BFE401B0228F5D903207FE16F4A136822
:100BA00043F480331360B5E76C4B1A6842F480223B
:100BB0001A601A6842F480321A60ABE700F014FE43
:100BC0000546664B1B6813F4003FC3D000F00CFED3
:100BD000401B6428F5D9032060E1604B5B6813F487
:100BE000800FC6D15D4B1B6813F0020F03D0E36882
:100BF000012B40F05081594A136823F0F803216912
:100C000043EAC1031360236813F0080F42D06369FD
:100C10006BB3534B0122C3F8802E00F0E5FD05466F
:100C20004E4B5B6F13F0020F34D100F0DDFD401B23
:100C30000228F5D9032031E1484A136823F0F8036C
:100C4000216943EAC1031360DDE7454B00221A60C6
:100C500000F0CAFD0546414B1B6813F0020FD2D0CD
:100C600000F0C2FD401B0228F5D9032016E13C4BE1
:100C70000022C3F8802E00F0B7FD0546374B5B6FAE
:100C800013F0020F06D000F0AFFD401B0228F5D98B
:100C9000032003E1236813F0040F77D02F4B1B6C64
:100CA00013F0805F33D1002301932C4B1A6C42F078
:100CB00080521A641B6C03F080530193019B012541
:100CC000284B1B6813F4807F23D0A368012B34D0FA
:100CD000052B38D0214B1A6F22F001021A671A6FC8
:100CE00022F004021A67A368002B3DD000F07CFDBF
:100CF00006461A4B1B6F13F0020F46D100F074FD2D
:100D0000801B41F288339842F3D90320C6E00025C6
:100D1000D6E7144A136843F48073136000F064FD4F
:100D20000646104B1B6813F4807FCED100F05CFDAB
:100D3000801B0228F5D90320B0E0084A136F43F066
:100D400001031367CFE7054B1A6F42F004021A67DD
:100D50001A6F42F001021A67C5E700BF003802406F
:100D6000000047420070004000F03EFD0646524B36
:100D70001B6F13F0020F08D000F036FD801B41F20C
:100D800088339842F3D9032088E0EDB9A369002B9A
:100D900000F08380484A926802F00C02082A51D081
:100DA000022B17D0454B00221A6600F01DFD0446A9
:100DB000414B1B6813F0007F42D000F015FD001B73
:100DC0000228F5D9032069E03B4A136C23F08053D5
:100DD0001364DBE7394B00221A6600F005FD054677
:100DE000354B1B6813F0007F06D000F0FDFC401B64
:100DF0000228F5D9032051E0E369226A1343626AAD
:100E000043EA8213A26A5208013A43EA0243E26AC1
:100E100043EA0263284A5360284B01221A6600F015
:100E2000E3FC0446244B1B6813F0007F06D100F05E
:100E3000DBFC001B0228F5D903202FE000202DE069
:100E400000202BE0012B2BD01B4B5B6803F48001AF
:100E5000E269914226D103F03F02216A8A4223D1FE
:100E6000616A47F6C0721A40B2EB811F1ED103F4CB
:100E70004031A26A5208013AB1EB024F18D103F097
:100E80007063E26AB3EB026F14D1002006E0012028
:100E90007047012002E0012000E0002002B070BD98
:100EA0000120FBE70120F9E70120F7E70120F5E742
:100EB0000120F3E70120F1E700380240000047423B
:100EC00008B5264B9B6803F00C03042B41D0082B7C
:100ED00041D1224B5A6802F03F025B6813F4800F45
:100EE00012D01E4B5968C1F388111D480023A1FB85
:100EF0000001FFF755F9194B5B68C3F30143013358
:100F00005B00B0FBF3F027E0144B5868C0F3881087
:100F10004FEA401CBCEB000C6EEB0E0E4FEA8E133A
:100F200043EA9C634FEA8C11B1EB0C0163EB0E03B7
:100F3000DB0043EA5173C90011EB000C43F10003DD
:100F4000990200234FEA8C2041EA9C51FFF728F9CF
:100F5000D1E7034800E0034808BD00BF0038024065
:100F600040787D010024F400002800F09B8070B5DB
:100F70000D4604464F4B1B6803F007038B4208D213
:100F8000CBB24C4A1370136803F007038B4240F056
:100F90008B80236813F0020F17D013F0040F04D0D6
:100FA000454A936843F4E0539360236813F0080FB5
:100FB00004D0414A936843F4604393603E4A936887
:100FC00023F0F003A1680B439360236813F0010F33
:100FD00032D06368012B21D09A1E012A25D9364AC6
:100FE000126812F0020F61D033498A6822F00302BE
:100FF00013438B6000F0F8FB06462F4B9B6803F011
:101000000C036268B3EB820F16D000F0EDFB801B7F
:1010100041F288339842F0D9032042E0264A126810
:1010200012F4003FE0D101203BE0234A126812F0A5
:10103000007FD9D1012034E01E4B1B6803F0070369
:10104000AB4207D9EAB21B4B1A701B6803F00703C7
:10105000AB422DD1236813F0040F06D0164A9368D3
:1010600023F4E053E1680B439360236813F0080F07
:1010700007D0114A936823F46043216943EAC1030E
:101080009360FFF71DFF0C4B9B68C3F303130B4AE0
:10109000D35CD8400A4B18600A4B1868FFF7CAFCAB
:1010A000002070BD012070470120FAE70120F8E719
:1010B0000120F6E7003C0240003802406852000878
:1010C0000800002004000020014B1868704700BF92
:1010D0000800002008B5FFF7F7FF044B9B68C3F337
:1010E0008223034AD35CD84008BD00BF00380240C9
:1010F0007852000808B5FFF7E7FF044B9B68C3F37D
:101100004233034AD35CD84008BD00BF00380240D8
:10111000785200080F2303600B4B9A6802F0030219
:1011200042609A6802F0F00282609A6802F4E0522B
:10113000C2609B68DB0803F4E0530361034B1B6848
:1011400003F007030B60704700380240003C024088
:1011500000230F2B00F2D78070B582B065E0856860
:101160004FEA430E032404FA0EF425EA0405CC6882
:1011700004FA0EF42C438460446824EA02044A68AA
:10118000C2F300129A40224342605CE0DC0808345B
:1011900050F8242003F00705AD004FF00F0E0EFAB3
:1011A00005FE22EA0E0E0A69AA4042EA0E0240F843
:1011B00024205CE0042200E0002202FA0EF22A431E
:1011C0000234514D45F82420504A94686FEA0C02CD
:1011D00024EA0C054E6816F4801F01D04CEA040581
:1011E0004A4CA560E46802EA04054E6816F4001F44
:1011F00001D04CEA0405454CE560646802EA040548
:101200004E6816F4003F01D04CEA04053F4C65607F
:10121000246822404D6815F4803F01D04CEA040256
:101220003A4C226001330F2B6BD801229A400C6894
:1012300004EA020C32EA0404F4D14C6804F003041A
:10124000013C012C8BD94A6802F00302032A09D021
:10125000C4685D000322AA4024EA02048A68AA4006
:101260002243C2604A6802F00302022A8ED0046858
:101270004FEA430E032202FA0EF224EA02044A68FD
:1012800002F0030202FA0EF2224302604A6812F4EC
:10129000403FC7D0002201921D4A546C44F4804460
:1012A0005464526C02F480420192019A9C08A51C7D
:1012B000154A52F8255003F0030E4FEA8E0E0F2206
:1012C00002FA0EF225EA0205124A90423FF474AF88
:1012D00002F5806290420ED002F5806290420CD0FE
:1012E00002F5806290420AD002F5806290423FF49B
:1012F00061AF072261E701225FE702225DE7032277
:101300005BE702B070BD704700380140003C01400F
:1013100000380240000002400AB1816170470904B0
:101320008161704708B5054B5B69034200D108BD78
:10133000024B5861FFF7B0FAF9E700BF003C0140EB
:1013400010B40368D9B210390C4AA2FB0142120949
:101350000B4CA25CC2655F2909D923F47F7323F08B
:10136000030304338365806D5DF8044B704723F4F9
:101370007F7323F003038365F5E700BFABAAAAAA36
:1013800060520008836A826992B9012B0AD0022B4D
:1013900002D00BB100207047C36A13F0807F28D1C0
:1013A00000207047C36AB3F1C07F24D0002070478B
:1013B000B2F5005F09D0022B25D9032B25D1C36AD2
:1013C00013F0807F23D100207047032B03D8DFE880
:1013D00003F01404140A00207047C36A13F0807FDE
:1013E0000DD100207047C36AB3F1C07F09D000203F
:1013F000704701207047012070470120704701208D
:10140000704701207047012070470020704701207D
:101410007047000070B5044600F0E6F9002C5BD080
:101420000546022384F83530002384F834302268DE
:10143000136823F00103136023681A6812F0010F88
:101440000AD000F0D1F9431B052BF5D920236365A1
:10145000032084F8350070BD1A6820491140626885
:10146000A0680243E06802432069024360690243C6
:10147000A0690243E0690243206A02430A43616AA9
:1014800004291ED01A602668756925F00705636A6D
:101490001D43042B07D1A36A1D43E36A1BB12046F9
:1014A000FFF770FF90B975612046FFF749FFE26DC5
:1014B0003F239340836000206065012384F835302A
:1014C000C9E7E16A206B01430A43DBE74023636518
:1014D000012084F83500BEE70120BCE73F8010F012
:1014E00090F83530DBB2022B03D080234365012016
:1014F0007047052380F835300268136823F0010334
:101500001360002070470000F0B583B0044600234C
:101510000193724B1D68724BA3FB0535AD0A876DB5
:101520003E68C26D08239340334210D003681A68A6
:1015300012F0040F0BD01A6822F004021A60C26D78
:1015400008239340BB60436D43F001034365E26DA4
:1015500001239340334209D02268526912F0800F70
:1015600004D0BB60636D43F002036365E26D042346
:101570009340334209D02268126812F0020F04D05F
:10158000BB60636D43F004036365E26D1023934019
:10159000334224D02268126812F0080F1FD0BB60BB
:1015A00023681A6812F4802F0DD01B6813F4002FE3
:1015B00004D1236C9BB12046984710E0A36C73B113
:1015C000204698470BE01A6812F4807F03D11A680E
:1015D00022F008021A60236C0BB120469847E26D96
:1015E00020239340334255D02268126812F0100F26
:1015F00050D0BB6094F83530DBB2052B0ED0236899
:101600001A6812F4802F33D01B6813F4002F2AD1EC
:10161000636C002B3ED0204698473BE0226813685D
:1016200023F0160313602268536923F0800353618B
:10163000236CA3B12268136823F008031360E26DE2
:101640003F239340BB60012384F83530002384F8A6
:101650003430236D002B3FD0204698473CE0A36CEC
:10166000002BE7D1EBE7E36BA3B12046984711E0ED
:101670001A6812F4807F09D11A6822F010021A60E9
:10168000012384F83530002384F83430E36B0BB148
:1016900020469847636DFBB1636D13F0010F17D0BF
:1016A000052384F835302268136823F001031360A2
:1016B000019B01330193AB4204D823681B6813F0EC
:1016C000010FF5D1012384F83530002384F834303C
:1016D000E36C0BB12046984703B0F0BD0800002032
:1016E000B5814E1B90F8350070470000074AD3685B
:1016F00023F4E0631B041B0C000200F4E0600343CE
:1017000043F0BF6343F40033D360704700ED00E063
:1017100000B5194BDB68C3F30223C3F1070CBCF11E
:10172000040F28BF4FF0040C03F1040EBEF1060FA6
:1017300018D9033B4FF0FF3E0EFA0CFC21EA0C01D6
:1017400099400EFA03FE22EA0E020A4300280BDB40
:101750001201D2B200F1604000F5614080F8002330
:101760005DF804FB0023E5E700F00F001201D2B2A0
:10177000024B1A54F4E700BF00ED00E014ED00E066
:10178000002807DB00F01F02400901239340024AB2
:1017900042F82030704700BF00E100E008B50B4B75
:1017A0001A6842F400721A601A6842F480621A6081
:1017B0001A6842F480721A600320FFF797FF0F2027
:1017C000FFF738F9FFF77EF8002008BD003C024023
:1017D000034A1168034B1B780B441360704700BF2A
:1017E0004008002000000020014B1868704700BF2F
:1017F0004008002090F83E30DBB2402B10D0036947
:10180000B3F5804F1BD0036D002B39D1436CC3F36C
:10181000C813026803F0060343F0F0031361704736
:10182000036D2BB9436C026803F0FE03136170472C
:10183000436C026843F00103DBB21361704790F818
:101840003D30DBB2212B0FD0436C026843F0010323
:10185000DBB21361436B6BB1DB6B5BB10268536846
:1018600043F4006353607047436C026803F0FE0367
:101870001361EFE7836B33B1DB6B002BEED102E03A
:10188000036D012B00D07047436CC3F3C81302688B
:1018900003F0060343F0F1031361F4E7436C0268BD
:1018A000DBB21361436B3BB1DB6B2BB10268536856
:1018B00043F4006353607047836B002BFBD0DB6BFA
:1018C000002BF3D1F7E7000010B48BB090F83E3056
:1018D000DAB2C16A046B90F83D30DBB2222B0BD038
:1018E0000023099303685A6909929B690993099B2C
:1018F0000BB05DF8044B7047036D0BB9402A17D04D
:10190000036D1BB90369B3F5404F19D0438D9BB2EA
:10191000002B25D1029303685A6902929A690292B8
:10192000029A1A6842F400721A6000230365DFE726
:10193000009303685A6900929B690093009BD7E764
:101940000023019303685A6901929A690192019AEE
:101950001A6842F480721A60036D01330365C7E7A9
:10196000438D9BB2012B1CD0438D9BB2022B73D0B5
:101970000268136843F48063136003685A6812F4C2
:10198000006F00F0AA80202900F2B080082980F0C2
:101990009D80012940F0A1805A6842F480525A602B
:1019A0009BE011F5803F1AD008293DD020293BD07B
:1019B000122C37D0102904D84E4BCB4013F0010F16
:1019C00044D10268136823F48063136000230593F5
:1019D00003685A6905929B690593059BA5E7026810
:1019E000136823F48063136003685A6812F4006F6D
:1019F0000CD01A6822F480621A60002303930368F3
:101A00005A6903929B690393039B8EE70022049219
:101A10005A6904929A690492049A1A6842F400720C
:101A20001A6082E70129C5D00268136823F4806335
:101A300013600023069303685A6906929A69069216
:101A4000069A1A6842F400721A606EE70268136818
:101A500043F480631360B9E7102904D8254BCB40C9
:101A600013F0010F19D10268136823F48063136027
:101A70000268136843F40063136003685A6812F441
:101A8000006F16D020291DD808290CD2012910D1A9
:101A90005A6842F480525A600BE00268136843F4BB
:101AA00080631360E9E70839134ACA4012F0010F56
:101AB000EED10023079303685A6907929B69079345
:101AC000079B32E711F5803FF3D1E1E708390A4A75
:101AD000CA4012F0010F7FF45FAF00230893036840
:101AE0005A6908929B690893089B1EE711F5803F8D
:101AF000F3D151E71400010001010001438D9BB2B5
:101B00005BB1426A036812781A61436A0133436227
:101B1000438D9BB2013B9BB243857047438D9BB283
:101B20005BB103681A69436A1A70436A01334362FE
:101B3000438D9BB2013B9BB24385704782B000232B
:101B400001930E4B1B68DB080D4AA2FB03231B0A03
:101B500003EB83030193019B013B0193019B33B191
:101B600003681B6813F4007FF5D1002004E0036CC8
:101B700043F020030364012002B0704708000020F6
:101B800089B5F81403685A6912F4806F01D10020F6
:101B900070476FF480625A6100230363202280F84B
:101BA0003D2080F83E30026C42F00402026480F86E
:101BB0003C3001207047C36AB3F52A0F04D0C36AD2
:101BC000B3F12A4F03D070470123C3627047082343
:101BD000C362F8E72DE9F04107460D4690461E46E0
:101BE00024E0FFF701FE069BC01AB04200D8EEB910
:101BF00000233B63202287F83D2087F83E303A6C73
:101C000042F020023A6487F83C3001201EE03B6835
:101C10009C6925EA040C1FFA8CFCBCFA8CFC4FEA88
:101C20005C1CE04511D1B6F1FF3FDAD1C5F30743A3
:101C3000012BECD13B685B6925EA030C1FFA8CFC95
:101C4000BCFA8CFC4FEA5C1CEBE70020BDE8F0819D
:101C50002DE9F04105460E46174698463DE01A68C4
:101C600042F400721A602B686FF480625A6100239C
:101C70002B63202285F83D2085F83E302A6C42F007
:101C800004022A6485F83C30012034E0FFF7ACFD03
:101C9000A0EB0800B84200D8FFB900232B63202234
:101CA00085F83D2085F83E302A6C42F020022A64F7
:101CB00085F83C3001201EE02B689C6926EA04046C
:101CC000A4B2003C18BF0124A4B12B685A6912F4D5
:101CD000806FC4D1B7F1FF3FD8D1C6F30743012BC2
:101CE000EAD12B685C6926EA0404A4B2003C18BF60
:101CF0000124E9E70020BDE8F0810000F0B583B0E1
:101D000004460D4616461F46C36A082B0DD0012B0C
:101D10000BD013F5803F08D0036B122B0AD1026859
:101D2000136843F48073136004E02268136843F47B
:101D3000807313600097334600224FF00111204654
:101D4000FFF748FF80B92369B3F5804F16D12368A8
:101D500005F0FE051D613B46324613492046FFF75C
:101D600077FFF8B903B0F0BD23681B6813F4807FD8
:101D700002D04FF4007323640320F3E7EB112268D1
:101D800003F0060343F0F00313613B463246074974
:101D90002046FFF75DFF18B92368EDB21D61DAE751
:101DA0000120DFE70120DDE702000100080001005B
:101DB00070B504460D46164623685B6913F0800F24
:101DC0001CD12046FFF7DEFED0B9B5F1FF3FF3D0BE
:101DD000FFF70AFD801BA84201D8002DECD100239B
:101DE0002363202284F83D2084F83E30226C42F0A8
:101DF0002002226484F83C30012000E0002070BD05
:101E00000120FCE770B504460D46164623685B6961
:101E100013F0040F1CD12046FFF7B4FED0B9B5F182
:101E2000FF3FF3D0FFF7E0FC801BA84201D8002D54
:101E3000ECD100232363202284F83D2084F83E3037
:101E4000226C42F02002226484F83C30012000E041
:101E5000002070BD0120FCE7002800F0CC8070B5A8
:101E6000044690F83D30002B77D0242384F83D3091
:101E70002268136823F0010313602268136843F497
:101E8000004313602268136823F400431360FFF7D4
:101E900021F962685A4B9A4264D85A4B98428CBFD7
:101EA00000230123002B40F0A8805749A1FB0031FB
:101EB0008B0C25686A6822F03F0242EA91426A6010
:101EC00021680A6A22F03F0266684D4DAE424FD843
:101ED000013313430B622168CA6922F44F4222F096
:101EE000FF026568464B9D424CD8431E6D00B3FB14
:101EF000F5F3013340F6FC70034278D0C3F30B03D3
:101F00001A43CA6121680B6823F0C003E269206AA2
:101F1000024313430B6021688B6823F4034323F0CF
:101F2000FF032269E068024313438B602168CB689A
:101F300023F0FF036269A06902431343CB60226868
:101F4000136843F00103136000202064202384F809
:101F50003D30206384F83E0070BD80F83C30FEF7D1
:101F6000D3FC82E7294B98428CBF0023012399E7D9
:101F70004FF4967505FB03F3254DA5FB03539B0911
:101F80000133A6E7A668BEB9431E05EB450CB3FBBB
:101F9000FCF30133C3F30B03B3FA83F35B0943BBD5
:101FA000C6B9431E05EB4505B3FBF5F30133C3F397
:101FB0000B0343F40043A3E7431E05EB850C0CEB36
:101FC0008C0CB3FBFCF30133C3F30B03B3FA83F3C1
:101FD0005B09E4E7431E05EB850505EB8505B3FBCF
:101FE000F5F30133C3F30B0343F4404388E70423C1
:101FF00086E7012384E7012070470120ACE700BF9A
:10200000A08601007F841E0083DE1B43FF083D0085
:10201000D34D62102DE9F04385B004460F4691463A
:1020200098460C9EFFF7E0FB054694F83D00C0B2D1
:10203000202804D00227384605B0BDE8F08300957B
:10204000192301224F492046FFF7C4FD002840F024
:10205000928094F83C30012B00F08F80012384F8AB
:102060003C3023681A6812F0010F03D11A6842F05D
:1020700001021A602268136823F4006313602123AD
:1020800084F83D30102384F83E3000232364C4F8E4
:102090002490A4F82A80638D23853B4BE3622B4672
:1020A000324639462046FFF729FE0746002866D10A
:1020B0000023039323685A6903929B690393039B4C
:1020C00011E0236C042B01D00127B4E722681368C8
:1020D00043F400731360F7E72A4631462046FFF7C2
:1020E00091FE00282ED1238D002B36D02A46314672
:1020F0002046FFF75DFE0028E3D1626A236812786C
:102100001A61606A431C6362618D89B2013989B2C8
:102110006185238D013B9BB223852268516911F0B3
:10212000040FD9D0002BD7D043781361636A0133F1
:102130006362638D9BB2013B9BB26385238D013B40
:102140002385C9E7236C042B01D0012773E722689C
:10215000136843F400731360F7E72268136843F4CD
:1021600000731360202384F83D30002384F83E3050
:1021700084F83C305FE702275DE702275BE7012731
:1021800059E700BF020010000000FFFF70477047D2
:10219000704708B590F83D30DAB2438D9BB283B1F9
:1021A000416A036809781961436A01334362438DC8
:1021B0009BB2013B9BB24385438D9BB20BB9292A4D
:1021C00000D008BD0268536823F480635360212364
:1021D0000363282380F83D30FFF7DAFFF1E770470B
:1021E00008B590F83D30DAB2438D9BB283B10368F5
:1021F0001969436A1970436A01334362438D9BB284
:10220000013B9BB24385438D9BB20BB92A2A00D078
:1022100008BD0268536823F480635360222303637C
:10222000282380F83D30FFF7DAFFF1E7704700B56B
:1022300083B090F83D3003F02803282B0CD0002306
:10224000019302685169019192690192019A80F8A3
:102250003C3003B05DF804FB0268536823F48063EC
:10226000536011F0040F0BD0002311F0800F09D13F
:102270008289002180F83C101946FFF7D7FFE8E774
:102280000123F2E7028BF4E77047704708B5C26A92
:1022900090F83D30DBB2212B00D008BD438D9BB2BE
:1022A00063B1426A036812781A61436A0133436278
:1022B000438D9BB2013B9BB24385EEE7082A04D0D5
:1022C000202A02D012F5803F19D10268536823F406
:1022D000E06353600268136843F4007313600023E3
:1022E0000363202380F83D3090F83E30DBB2402B72
:1022F00015D0002380F83E30FFF748FFCDE7026895
:10230000536823F4E063536011230363002380F8D0
:102310003E30202380F83D30FFF738FFBDE7002333
:1023200080F83E30FFF7B1FFB7E708B590F83D30D1
:10233000026D9AB9C36C012B08D0836CC3F30723D9
:1023400002681361036D0133036508BD836C026885
:10235000DBB21361036D02330365F6E7DBB2026D96
:10236000012A23D0026D022AEFD1222B26D0428DE2
:1023700092B20AB1212B2AD0428D92B2002AE4D126
:10238000212BE2D10268536823F4E06353600268B2
:10239000136843F40073136000230363202280F862
:1023A0003D2080F83E30FFF770FFCEE7836C026877
:1023B000DBB21361036D01330365C6E7026813687E
:1023C00043F480731360036D01330365BDE7426A14
:1023D000036812781A61436A01334362438D9BB2EA
:1023E000013B9BB24385B0E710B590F83D30DBB2BE
:1023F00090F83E20D2B2C46A018D09B9212B04D0D5
:10240000212B3BD0402A37D010BD082C04D0202CE3
:1024100002D014F5803F19D10268536823F4E063B9
:1024200053600268136843F400731360002303636E
:10243000202380F83D3090F83E30DBB2402B15D0A1
:10244000002380F83E30FFF7A1FEDDE70268536805
:1024500023F4E063536011230363002380F83E30CC
:10246000202380F83D30FFF791FECDE7002380F870
:102470003E30FFF70AFFC7E7222BC5D1438D9BB241
:102480002BB90268536823F480635360BCE790F86B
:102490003E30DBB2402B0CD0426A036812781A61DE
:1024A000436A01334362438D9BB2013B9BB2438538
:1024B000AAE7FFF73AFFA7E7704708B5C26A438D5E
:1024C0009BB2042B14D0438D9BB2032B22D0438D9F
:1024D0009BB2022B39D003681A69436A1A70436AA7
:1024E00001334362438D9BB2013B9BB2438510E0B5
:1024F0000268536823F48063536003681A69436A6F
:102500001A70436A01334362438D9BB2013B9BB215
:10251000438508BD01684B6823F480634B60042A3F
:1025200006D0022A04D00268136823F48063136083
:1025300003681A69436A1A70436A01334362438D20
:102540009BB2013B9BB24385E3E7013A0F2A40D897
:10255000DFE802F008393F393F3F3F3F3F3F3F3F11
:102560003F3F3F080268136823F4806313600368E9
:102570001A69436A1A70426A531C4362438D9BB2C4
:10258000013B9BB2438503681B695370436A013367
:102590004362438D9BB2013B9BB243850268536803
:1025A00023F440735360202380F83D3090F83E3090
:1025B000DBB2402B13D0002380F83E30122303639C
:1025C000FFF7E5FDA5E70268136843F48063136035
:1025D000CDE70268136843F400731360C7E7002374
:1025E00080F83E300363FFF767FF92E7704790F88B
:1025F0003D30DBB2222B00D0704710B50446438D2E
:102600009BB2032B15D903681A69436A1A70436A8F
:1026100001334362438D9BB2013B9BB24385438DA3
:102620009BB2032B0FD10268536823F4806353607D
:1026300009E0C26A022A01D0012B05D92268536839
:1026400023F48063536010BDFFF778FA00282ED181
:102650002268136823F4806313602268536823F4AC
:10266000E063536023681A69636A1A70636A01330E
:102670006362638D9BB2013B9BB26385202384F828
:102680003D3094F83E30DBB2402B08D0002384F874
:102690003E30122323632046FFF779FDD3E7002362
:1026A00084F83E3023632046FFF706FFCBE722681D
:1026B000536823F4E063536023681A69636A1A70ED
:1026C000636A01336362638D9BB2013B9BB2638596
:1026D000202384F83D30002384F83E302046FFF765
:1026E00085FFB0E77047000000B583B00023019379
:1026F000806B90F83D20D2B2324B1B68DB08324928
:10270000A1FB03131B0A03EB8303C3EBC303019376
:10271000019B43B1019B013B019303681B6813F4C8
:10272000007FF5D103E0036C43F020030364436BA7
:102730000BB10021D963836B0BB10021D963016810
:102740000B6823F480630B6000234385436B0BB15C
:1027500000211965836B0BB10021196501680B68B5
:1027600023F001030B6090F83D30DBB2602B0ED0FC
:1027700002F02802282A14D0202380F83D300023BC
:1027800080F83E30FFF732FF03B05DF804FB2023F2
:1027900080F83D30002380F83E300364FFF7A2FF4D
:1027A000F2E70268136843F00103136002681368DC
:1027B00043F48063136000230363282380F83D30D3
:1027C000E0E700BF0800002089B5F81410B5044602
:1027D00090F83D30DBB290F83E20D2B2102A36D0CD
:1027E000402A34D003F02802282A38D022685268C0
:1027F00012F4006F07D1602B05D0202384F83D3000
:10280000002384F83E300023236323685A6812F4BF
:10281000006F48D05A6822F400625A60626B92F8E6
:102820003530DBB2012B20D0444B1365606BFEF7D3
:1028300057FE002849D02268136823F00103136073
:10284000202384F83D30606B036D98473DE0222BD8
:10285000C8D121680A6822F400620A60C2E7002336
:102860002363282384F83D30CFE7A36B334A1A65EE
:10287000A06BFEF735FE40B323685A6912F0400F93
:1028800005D01A69636A1A70636A01336362226849
:10289000136823F001031360202384F83D30A06BFC
:1028A000036D984711E094F83D20D2B2602A1FD002
:1028B0005A6912F0400F05D01A69636A1A70636A88
:1028C000013363622046FFF791FE236C13F00F0F74
:1028D00004D02268536823F4E063536094F83D30D9
:1028E000DBB2226C12F0040F01D0282B18D010BDDF
:1028F000202284F83D20002222645A6912F0400F01
:1029000005D01A69636A1A70636A013363622268C8
:10291000136823F0010313602046FFF7E3FED4E7BA
:10292000074BE36200232363202284F83D2084F8D0
:102930003E302046FFF7A8FCD9E700BFE926000893
:102940000000FFFF30B583B0044690F83D50EDB273
:102950000268536823F4E063536000230193036823
:102960005A6901921A6842F001021A60019B0268DA
:10297000136823F48063136003685A6812F4006FCD
:1029800038D0222D21D02A2D1FD0426B12685268D8
:1029900092B24285428D92B21AB1026C42F00402A8
:1029A00002645A6822F400625A60606BFEF79AFE75
:1029B00001281FD0636B444A1A65606BFEF790FDD7
:1029C000C0B1606B036D984714E0A26B1268526847
:1029D00092B26285628D92B21AB1226C42F0040208
:1029E00022645A6822F400625A60A06BFEF77AFEF5
:1029F000012842D1638D9BB233B323685A6912F028
:102A0000040F0AD01A69636A1A70636A0133636239
:102A1000638D9BB2013B9BB2638523685A6912F0B8
:102A2000400F0AD01A69636A1A70636A01336362DD
:102A3000638D9BB2013B9BB26385638D9BB21BB1DF
:102A4000236C43F004032364236C13BB2A2D25D08D
:102A500094F83D30DBB2282B29D0236B222B01D0F8
:102A6000222D19D100232363202284F83D2084F8ED
:102A70003E302046FFF7B3FB0EE0A36B124A1A6507
:102A8000A06BFEF72DFD0028B4D0A06B036D984716
:102A9000B0E72046FFF79AFE03B030BD0023236362
:102AA000282384F83D302046FFF799FBD0E7074BF9
:102AB000E36200232363202284F83D2084F83E3023
:102AC0002046FFF7E1FBE7E7E92600080000FFFFEB
:102AD000F8B5044602685568C66A90F83E30DBB225
:102AE00090F83D10C8B2102B13D0402B11D0236C9E
:102AF000002B7AD05369002113F0020F78D015F41F
:102B0000007F75D0236C03B191692046FFF78FFBDE
:102B1000F8BDD2F818C0516911F0010705D1B6F51A
:102B20002A0FF5D0B6F12A4FF2D017B115F4007F75
:102B300029D111F0080F02D015F4007F2AD111F02D
:102B4000020F02D015F4007F28D11CF0040F31D001
:102B5000526812F4006FDBD111F0800F05D015F42C
:102B6000806F02D011F0040F1CD011F0040FCFD0F1
:102B700015F4007FCCD0212818D0402BC8D1204696
:102B8000FFF7D3FBC4E72046FFF715F82046FEF712
:102B900031FEBDE72046FEF781FEB9E72046FEF78D
:102BA00093FEB5E72046FFF71FFCB1E72046FFF78D
:102BB0006DFBADE7536813F4006FA9D111F0400F1E
:102BC00005D015F4806F02D011F0040F09D011F078
:102BD000040F9DD015F4007F9AD02046FFF76DFCBE
:102BE00096E72046FFF703FD92E79169536983E773
:102BF00013F0100F02D015F4007F18D121281AD03D
:102C0000292818D013F0400F05D015F4806F02D09A
:102C100013F0040F28D013F0040F3FF479AF15F42C
:102C2000007F3FF475AF2046FEF778FF70E720463F
:102C3000FFF788FE6CE713F0800F05D015F4806F66
:102C400002D013F0040F0BD013F0040F3FF460AF69
:102C500015F4007F3FF45CAF2046FEF74FFF57E7C7
:102C60002046FFF796FA53E72046FFF7B9FA4FE7F9
:102C700000285AD010B50446436A33B94368B3F507
:102C8000827F05D00023C36102E00023036143611A
:102C90000023A36294F85130002B40D0022384F823
:102CA00051302268136823F040031360636803F413
:102CB0008273A26802F404421343E26802F40062E1
:102CC0001343226902F002021343626902F0010217
:102CD0001343A26902F400721343E26902F038025E
:102CE0001343226A02F080021343A26A02F40052E4
:102CF000216813430B60638B03F00403626A02F0E4
:102D00001002216813434B602268D36923F40063E7
:102D1000D36100206065012384F8513010BD84F830
:102D200050302046FDF74EFEB8E70120704770474F
:102D300090F83D30DBB2012B2FD1022380F83D30DB
:102D40000268D36843F00103D3600368154A9342D5
:102D500018D0B3F1804F15D0A2F57C42934211D028
:102D600002F5806293420DD002F58062934209D051
:102D700002F59A32934205D01A6842F001021A60B5
:102D8000002070479A6802F00702062A07D01A68E6
:102D900042F001021A6000207047012070470020B5
:102DA000704700BF00000140704770477047704790
:102DB00010B5044603681A6912F0020F11D0DA68E0
:102DC00012F0020F0DD06FF002021A610123037797
:102DD00003689B6913F0030F70D0FFF7E6FF002331
:102DE000237723681A6912F0040F12D0DA6812F000
:102DF000040F0ED06FF004021A61022323772368B8
:102E00009B6913F4407F5FD02046FFF7CEFF00237D
:102E1000237723681A6912F0080F12D0DA6812F0CB
:102E2000080F0ED06FF008021A610423237723687D
:102E3000DB6913F0030F4ED02046FFF7B6FF0023E7
:102E4000237723681A6912F0100F12D0DA6812F093
:102E5000100F0ED06FF010021A6108232377236839
:102E6000DB6913F4407F3DD02046FFF79EFF00232F
:102E7000237723681A6912F0010F03D0DA6812F081
:102E8000010F36D123681A6912F0800F03D0DA6877
:102E900012F0800F34D123681A6912F0400F03D06A
:102EA000DA6812F0400F32D123681A6912F0200F4D
:102EB00003D0DA6812F0200F30D110BDFFF774FF95
:102EC0002046FFF773FF8AE72046FFF76DFF204695
:102ED000FFF76CFF9BE72046FFF766FF2046FFF7F2
:102EE00065FFACE72046FFF75FFF2046FFF75EFF78
:102EF000BDE76FF001021A612046FDF7DFFAC1E776
:102F00006FF080021A61204600F08BF8C3E76FF083
:102F100040021A612046FFF74AFFC5E76FF0200222
:102F20001A61204600F07CF8C7E700000368254AD4
:102F300090420ED0B0F1804F0BD0A2F57C4290426F
:102F400007D002F58062904203D002F58062904281
:102F500003D123F070034A6813431A4A90421AD0EF
:102F6000B0F1804F17D0A2F57C42904213D002F509
:102F7000806290420FD002F5806290420BD002F541
:102F80009A32904207D002F58062904203D002F557
:102F90008062904203D123F44073CA68134323F044
:102FA00080034A69134303608B68C3620B688362C2
:102FB000044B984202D00123436170470B690363BD
:102FC000F9E700BF0000014040B310B5044690F897
:102FD0003D30F3B1022384F83D30214651F8040B13
:102FE000FFF7A4FF012384F8463084F83E3084F8CC
:102FF0003F3084F8403084F8413084F8423084F81F
:10300000433084F8443084F8453084F83D30002063
:1030100010BD80F83C30FFF78AFEDBE701207047E7
:1030200070477047034AD2F8883043F47003C2F8FF
:103030008830704700ED00E000F1080343604FF076
:10304000FF328260C3600361002303607047002386
:103050000361704743684B609A688A605160996069
:103060000861036801330360704730B40D68B5F13F
:10307000FF3F11D000F108031C465B681A68AA42A2
:10308000FAD963684B6099608C606160086103687D
:103090000133036030BC70470469F2E7036941689B
:1030A00082688A60416851605A68824206D0002274
:1030B00002611A68013A1A601868704782685A609B
:1030C000F5E710B5044601F02DFDA26BE36B9A42C3
:1030D00004D0002401F048FD204610BD0124F9E78A
:1030E00010B5044601F01EFDA36B23B9012401F0C5
:1030F0003BFD204610BD0024F9E770B50446154697
:10310000866B026C5AB903681BB100200136A663B6
:1031100070BD806801F024F80023A360F6E76DB964
:10312000406801F0A1FE226C636813446360A268EA
:10313000934219D3236863602846E7E7C06801F02B
:1031400093FE226C5142E3689B1AE360226893422B
:1031500002D2A3680B44E360022D01D00020D5E722
:1031600026B1013E0020D1E72846CFE70020CDE779
:103170000346026C6AB110B50846D9681144D9609B
:103180009C68A14201D31968D960D96801F06CFE2E
:1031900010BD704738B5054601F0C4FC95F84540B0
:1031A00064B201E0013C64B2002C0ADD6B6A43B1F9
:1031B00005F1240000F02AFF0028F3D000F0BAFF48
:1031C000F0E7FF2385F8453001F0CEFC01F0AAFCC2
:1031D00095F8444064B201E0013C64B2002C0ADD81
:1031E0002B6943B105F1100000F010FF0028F3D067
:1031F00000F0A0FFF0E7FF2385F8443001F0B4FCB5
:1032000038BD38B5E0B10D46044601F08BFC2368AB
:10321000E26B216C01FB0230A0600020A0636360C0
:10322000013A02FB0133E360FF2384F8443084F861
:103230004530FDB9236963B901F096FC012038BD22
:103240004FF0500383F31188BFF36F8FBFF34F8F9D
:10325000FEE704F1100000F0D9FE0028ECD04FF09A
:10326000E0234FF08052C3F8042DBFF34F8FBFF31C
:103270006F8FE1E704F11000FFF7DEFE04F1240098
:10328000FFF7DAFED8E710B5034602980C4631B9CD
:103290000060C36304640121FFF7B3FF10BD026047
:1032A000F7E740B94FF0500383F31188BFF36F8FF6
:1032B000BFF34F8FFEE710B584B01C46844653B170
:1032C00092B189B94FF0500383F31188BFF36F8F28
:1032D000BFF34F8FFEE74FF0500383F31188BFF326
:1032E0006F8FBFF34F8FFEE76AB148230393039BB1
:1032F000482B13D04FF0500383F31188BFF36F8F27
:10330000BFF34F8FFEE70029EFD04FF0500383F358
:103310001188BFF36F8FBFF34F8FFEE7039B01232D
:1033200084F8463000949DF818306046FFF7ABFFF4
:10333000204604B010BD40B94FF0500383F311880C
:10334000BFF36F8FBFF34F8FFEE7F0B583B00D462D
:103350001446064601FB00F0483001F0BDFA07466E
:1033600050B1002380F846300090234600F1480217
:1033700029463046FFF787FF384603B0F0BDF0B569
:1033800085B0019288B10F461D460446B1B1022DA9
:1033900020D1E36B012B1DD04FF0500383F3118834
:1033A000BFF36F8FBFF34F8FFEE74FF0500383F3F0
:1033B0001188BFF36F8FBFF34F8FFEE7036C002BB5
:1033C000E5D04FF0500383F31188BFF36F8FBFF345
:1033D0004F8FFEE700F0B4FE064658B9019B002B64
:1033E00048D04FF0500383F31188BFF36F8FBFF3C2
:1033F0004F8FFEE700263DE02A4639462046FFF77C
:103400007CFE636A7BB948B14FF0E0234FF08052F5
:10341000C3F8042DBFF34F8FBFF36F8F01F0A4FBF0
:10342000012005B0F0BD04F1240000F0EFFD0028FC
:10343000F4D04FF0E0234FF08052C3F8042DBFF3D7
:103440004F8FBFF36F8FE9E701F08EFB0020E8E7B5
:1034500002A800F021FE012619E0002384F8443080
:1034600021E0002384F8453023E02046FFF792FE58
:1034700000F0AAFC01F056FBA26BE36B9A42BBD3AF
:10348000022DB9D0019B002BDED0002EE0D001F040
:103490006BFB00F0FFFB01F045FB94F8442052B2B7
:1034A000B2F1FF3FD9D094F8452052B2B2F1FF3FBC
:1034B000D7D001F059FB01A902A800F0F9FDD8B955
:1034C0002046FFF7FEFD0028CFD0019904F110003F
:1034D00000F068FD2046FFF75DFE00F075FC002857
:1034E000C8D14FF0E0234FF08052C3F8042DBFF352
:1034F0004F8FBFF36F8FBDE72046FFF74BFE00F005
:1035000063FC00208DE748B108B5002181600160AF
:10351000C1600B460A46FFF732FF08BD704710B581
:10352000024600210120FFF706FF0446FFF7EBFFEC
:10353000204610BD10B582B00B4600900022114607
:103540000120FFF7AEFE0446FFF7DDFF204602B084
:1035500010BD2DE9F84390B10F4616461C460546AE
:10356000B1B1022C20D1EB6B012B1DD04FF05003D9
:1035700083F31188BFF36F8FBFF34F8FFEE74FF0D8
:10358000500383F31188BFF36F8FBFF34F8FFEE7B4
:10359000036C002BE5D04FF0500383F31188BFF389
:1035A0006F8FBFF34F8FFEE701F0E2FBEFF311885F
:1035B0004FF0500383F31188BFF36F8FBFF34F8F2A
:1035C000AA6BEB6B9A4206D3022C04D0002088F33E
:1035D0001188BDE8F88395F845904FFA89F9AB6BEF
:1035E000224639462846FFF788FDB9F1FF3F06D04D
:1035F00009F101035BB285F845300120E7E76B6A0A
:103600000BB90120E3E705F1240000F0FFFC18B13D
:1036100026B101203060DAE70120D8E70120D6E7A3
:10362000F0B585B0019290B10F460446C1B100F0EB
:1036300087FD064600BB019B002B5ED04FF0500378
:1036400083F31188BFF36F8FBFF34F8FFEE74FF007
:10365000500383F31188BFF36F8FBFF34F8FFEE7E3
:10366000036C002BE3D04FF0500383F31188BFF3BA
:103670006F8FBFF34F8FFEE700263EE039462046AE
:10368000FFF776FD013DA563236923B901F06CFACC
:10369000012005B0F0BD04F1100000F0B7FC0028D7
:1036A000F4D04FF0E0234FF08052C3F8042DBFF365
:1036B0004F8FBFF36F8FE9E701F056FA0020E8E77C
:1036C00002A800F0E9FC012621E0002384F8443040
:1036D00029E0002384F845302BE02046FFF75AFD0F
:1036E00000F072FB09E02046FFF754FD00F06CFB90
:1036F0002046FFF7F5FC00283FD101F013FAA56B37
:10370000002DBBD1019B002BD6D0002ED8D001F0CC
:103710002BFA00F0BFFA01F005FA94F844305BB2DE
:10372000B3F1FF3FD1D094F845305BB2B3F1FF3F26
:10373000CFD001F019FA01A902A800F0B9FC0028C5
:10374000D1D12046FFF7CCFC0028C6D0019904F166
:10375000240000F027FC2046FFF71CFD00F034FB9E
:103760000028CAD14FF0E0234FF08052C3F8042D57
:10377000BFF34F8FBFF36F8FBFE7002089E70000D3
:103780000023072B0CD8074A52F833200AB1013323
:10379000F7E7044A42F8331002EBC3025060704767
:1037A000704700BF4408002070B504460D46164619
:1037B00001F0B8F994F844305BB2B3F1FF3F0DD09B
:1037C00094F845305BB2B3F1FF3F0BD001F0CCF978
:1037D000A36B5BB12046FFF7DDFC70BD002384F8CE
:1037E0004430EDE7002384F84530EFE732462946C0
:1037F00004F1240000F0EEFBECE70000084B1B682E
:103800001B6823B9074B4FF0FF321A607047044B17
:103810001B68DB68DB685A68024B1A60704700BFA0
:10382000880800205C0900202DE9F04707469846EB
:10383000089DDDF824900A9C266B02F18042013A33
:1038400006EB820626F00706C1B308464FF0000CCF
:10385000BCF10F0F09D810F80C2004EB0C0383F80F
:10386000342012B10CF1010CF2E7002384F843304C
:10387000062D00D90625E56265644FF0000AC4F8FC
:1038800048A0201DFFF7E3FB04F11800FFF7DFFB62
:103890002461C5F10705A5616462C4F84CA084F8F1
:1038A00050A042463946304601F010F92060B9F187
:1038B000000F01D0C9F80040BDE8F087002384F86C
:1038C0003430D5E738B5002407E004EB84029300D8
:1038D0000E481844FFF7B0FB0134062CF5D90C4D07
:1038E0002846FFF7A9FB0B4C2046FFF7A5FB0A482B
:1038F000FFF7A2FB0948FFF79FFB0948FFF79CFB76
:10390000084B1D60084B1C6038BD00BF90080020AC
:103910003009002044090020680900209409002093
:1039200080090020880800208C08002010B504467B
:1039300001F0F8F8214A136801331360204B1B682B
:103940005BB1204B1B686BB91D4B1B68DA6AE36ADD
:103950009A4207D81A4B1C6004E0194B1C6013688C
:10396000012B28D0184A136801331360E06A012341
:103970008340164A11680B43136000EB8000211D41
:10398000134B03EB8000FFF765FB01F0EDF80D4BE7
:103990001B687BB10A4B1B68DA6AE36A9A4209D258
:1039A0004FF0E0234FF08052C3F8042DBFF34F8F48
:1039B000BFF36F8F10BDFFF785FFD3E71C09002011
:1039C000840800207C090020280900202C09002000
:1039D0009008002010B5044690F8513063B1012BD7
:1039E00011D0022B0ED04FF0500383F31188BFF398
:1039F0006F8FBFF34F8FFEE7006B00F0EBFF2046A9
:103A000000F0E8FF10BD00F0E5FFFBE70F4B1B687F
:103A1000D3B110B501F086F80D4BDB68DC68201DD2
:103A2000FFF73CFB0B4A1368013B1360074A13681E
:103A3000013B136001F098F82046FFF7CBFF034BE2
:103A40001B68002BE6D110BD704700BF2009002085
:103A5000940900201C09002008B5FFF7D7FF074B89
:103A60001B68012BF9D94FF0E0234FF08052C3F8C7
:103A7000042DBFF34F8FBFF36F8FEEE79008002048
:103A800070B504460D461D4B1E681D4B186804306A
:103A9000FFF704FB48B91A4B1B68DB6A01229A4006
:103AA00018490B6823EA02030B60B4F1FF3F0DD005
:103AB0003444134B1B685C60A64210D9124B186843
:103AC0000F4B19680431FFF7D0FA70BD002DEFD00D
:103AD0000B4B196804310D48FFF7BCFAF5E70C4BA6
:103AE0001868074B19680431FFF7BFFA094B1B68C8
:103AF000A342EAD9074B1C60E7E700BFA8090020F2
:103B0000840800202C0900208C0800208009002057
:103B1000880800205C09002030B587B00B9C7CB180
:103B20000C9DB5B154250495049D542D1AD04FF029
:103B3000500383F31188BFF36F8FBFF34F8FFEE7FE
:103B40004FF0500383F31188BFF36F8FBFF34F8F94
:103B5000FEE74FF0500383F31188BFF36F8FBFF37D
:103B60004F8FFEE7049D0C9D2C63022485F8514085
:103B700000240394029505AC01940A9C0094FFF77D
:103B800053FE0C98FFF7D2FE059807B030BD2DE923
:103B9000F04385B00746884614461E46900000F064
:103BA0009BFE00B38146542000F096FE0546B0B15E
:103BB000C0F83090E5B1002385F8513003930295A9
:103BC0000D9B01930C9B0093334622464146384699
:103BD000FFF72AFE2846FFF7A9FE012005E0484628
:103BE00000F0F8FEE6E74FF0FF3005B0BDE8F083E7
:103BF0004FF0FF30F9E7000010B588B000240594BD
:103C0000069407AA06A905A8FCF70AFE059B0293DD
:103C1000069B019300942346079A18491848FFF71A
:103C20007BFF184B186040B100F084FB012806D0E0
:103C3000B0F1FF3F18D008B010BD0020F6E74FF0FC
:103C4000500383F31188BFF36F8FBFF34F8F0E4B79
:103C50004FF0FF321A600D4B01221A600C4B00220C
:103C60001A6000F0F9FFE6E74FF0500383F3118884
:103C7000BFF36F8FBFF34F8FFEE700BF8052000886
:103C8000593A0008580900205C0900207C090020EE
:103C9000A8090020024A136801331360704700BF6F
:103CA00024090020014B1868704700BFA8090020B4
:103CB000F8B53A4B1B68002B69D1394B1D680135AB
:103CC0001D60C5B9374B1B681B6843B14FF05003EB
:103CD00083F31188BFF36F8FBFF34F8FFEE7314A35
:103CE0001168314B186810601960304A136801334D
:103CF0001360FFF783FD2E4B1B68AB423DD90027B5
:103D00002C4B1B68DB6A03EB83039A002A4B9B58FE
:103D1000012B00D90127294B1B68002B3CD0012720
:103D20003AE001271F4B1B681B6843B31D4B1B6800
:103D3000DB68DC6863689D4226D3261D3046FFF7AA
:103D4000ADF9A36A1BB104F11800FFF7A7F9E36A04
:103D500001229A401A49086802430A6003EB830370
:103D60009A00314614481044FFF774F9E26A114B87
:103D70001B68DB6A9A42D4D2D4E70027D2E70C4B07
:103D80004FF0FF321A60BBE7094A1360B8E70D4AEB
:103D900013680133136000273846F8BD240900205A
:103DA000A8090020880800208C0800206009002055
:103DB0005C0900208408002090080020AC09002045
:103DC0002C0900206409002038B5354B1B6843B925
:103DD0004FF0500383F31188BFF36F8FBFF34F8F02
:103DE000FEE700F09FFE2E4B1A68013A1A601B682E
:103DF000002B4FD12B4B1B680BB900244BE0002448
:103E0000294B1B681BB3284BDB68DC6804F11800E6
:103E1000FFF744F9251D2846FFF740F9E06A012322
:103E20008340224A11680B43136000EB800029464F
:103E30001F4B03EB8000FFF70DF9E26A1D4B1B6877
:103E4000DB6A9A42DCD31C4B01221A60D8E70CB122
:103E5000FFF7D4FC194B1C6884B9174B1C68D4B10C
:103E60004FF0E0234FF08052C3F8042DBFF34F8F83
:103E7000BFF36F8F01240EE0013C07D0FFF718FF5E
:103E80000028F9D00C4B01221A60F5E70B4B0022F9
:103E90001A60E2E7002400F067FE204638BD00BF4C
:103EA000240900201C090020680900202C0900209A
:103EB0009008002084080020AC090020640900203C
:103EC00010B5A8B10446104B1B6843B14FF0500326
:103ED00083F31188BFF36F8FBFF34F8FFEE7FFF7B8
:103EE000D9FE00212046FFF7CBFDFFF76DFF48B953
:103EF0004FF0E0234FF08052C3F8042DBFF34F8FF3
:103F0000BFF36F8F10BD00BF24090020204B1B683A
:103F10001BB1204B01221A6070471E4B00221A6011
:103F20001D4B1B68B3FA83F3DBB2C3F11F0303EB32
:103F300083018A0019498A5842B94FF0500383F32C
:103F40001188BFF36F8FBFF34F8FFEE7134903EB69
:103F5000830082000A4450684068506003EB830C81
:103F60004FEA8C0208321144884209D003EB8303E4
:103F70009A000A4B13445B68DA68094B1A60704771
:103F8000406862469100054A0A445060EEE700BF6F
:103F900024090020AC0900202C09002090080020F2
:103FA0008408002058B110B50C46094A1168183130
:103FB000FFF75BF801212046FFF762FD10BD4FF0CF
:103FC000500383F31188BFF36F8FBFF34F8FFEE76A
:103FD0008408002038B570B10D4614460A4A1168AD
:103FE0001831FFF737F80CB14FF0FF35214628465E
:103FF000FFF746FD38BD4FF0500383F31188BFF340
:104000006F8FBFF34F8FFEE78408002038B5C36879
:10401000DC6824B304F118052846FFF73FF8184B75
:104020001B682BBB251D2846FFF738F8E06A0123E3
:104030008340144A11680B43136000EB800029464B
:10404000114B03EB8000FFF705F8E26A0F4B1B688A
:10405000DB6A9A4211D901200D4B186038BD4FF030
:10406000500383F31188BFF36F8FBFF34F8FFEE7C9
:1040700029460848FEF7EEFFE7E70020EEE700BF1D
:10408000240900202C09002090080020840800202A
:10409000AC09002068090020034B1B680360034B38
:1040A0001B684360704700BF60090020A80900201A
:1040B000F8B5C8B10C460546F9B100F033FD1B4B0D
:1040C00019686B68C81A2268B2F1FF3F26D0184EF3
:1040D00036682F68B74201D08B4224D9824215D866
:1040E0000023236001241AE04FF0500383F311886A
:1040F000BFF36F8FBFF34F8FFEE74FF0500383F393
:104100001188BFF36F8FBFF34F8FFEE75B1A134425
:1041100023602846FFF7C0FF002400E0002400F0E1
:1041200023FD2046F8BD0124F9E700BFA8090020BF
:1041300060090020014B01221A607047AC09002081
:10414000054B1B6833B1054B1B680BB10020704752
:1041500002207047012070477C09002024090020BC
:1041600000284BD038B50446264B1B68834208D044
:104170004FF0500383F31188BFF36F8FBFF34F8F5E
:10418000FEE7836C43B94FF0500383F31188BFF30C
:104190006F8FBFF34F8FFEE7013B8364C16A426CB0
:1041A00091422DD00BB1002038BD051D2846FEF7E9
:1041B00075FF68B9E36A03EB8302920012498A58DB
:1041C00032B901229A4011490B6823EA02030B60BD
:1041D000606CE062C0F10703A361012404FA00F3FC
:1041E0000A4A11680B43136000EB80002946064B16
:1041F00003EB8000FEF72EFF2046D5E70020704736
:104200000020D1E784080020900800202C0900201D
:10421000064B1A6813682BB90123036023B9D368CE
:10422000186870470023F8E700207047B0090020A5
:1042300008B54160006191420CD8D21A83699A4254
:1042400001D3012008BD011D094B1868FEF70DFFC1
:104250000020F7E79A4201D2994206D2011D054B90
:104260001868FEF702FF0020ECE70120EAE700BF34
:10427000B4090020B009002030B583B000F052FC32
:10428000114B1B681BB100F06FFC03B030BD0F4D2C
:104290002846FEF7D1FE0E4C2046FEF7CDFE0D4B14
:1042A0001D600D4B1C60002300930C4B0C4A0C212D
:1042B0000A20FEF7F6FF044B18600028E3D00949F6
:1042C000FFF75EFADFE700BFA40A0020300A0020F3
:1042D000440A0020B0090020B40900205C0A002034
:1042E000B8090020885200082DE9F041079F41B924
:1042F0004FF0500383F31188BFF36F8FBFF34F8FDD
:10430000FEE7064614461D4688468FB1FFF7B4FF08
:104310003E60C7F81880FD61069B3B62381DFEF7C2
:1043200096FE2CB197F8243043F0040387F824302C
:10433000BDE8F08110B588B0FFF79EFF124B1B68F7
:10434000CBB100240594069407AA06A905A8FCF79A
:1043500073FA059B0293069B019306230093234661
:10436000079A0A490A48FFF7D7FB0A4B186010B1B1
:10437000012008B010BD4FF0500383F31188BFF344
:104380006F8FBFF34F8FFEE7A40A00209052000802
:1043900015470008A80A00202DE9F04182B0044624
:1043A000884617461D46282000F096FA064658B162
:1043B000002380F824300190089B00932B463A4656
:1043C00041462046FFF790FF304602B0BDE8F0813D
:1043D00010B584B08446282003900398282808D07C
:1043E0004FF0500383F31188BFF36F8FBFF34F8FEC
:1043F000FEE70398079860B10220079C84F8240028
:104400000194069800906046FFF76EFF079804B08D
:1044100010BD4FF0500383F31188BFF36F8FBFF3CC
:104420004F8FFEE7B8B19C4603461848006858B362
:1044300000B585B001910292039305291CDCFFF7BA
:104440007FFE022810D000231A4601A90F480068F9
:10445000FEF795FF15E04FF0500383F31188BFF38B
:104460006F8FBFF34F8FFEE70023069A01A907481D
:104470000068FEF784FF04E00023624601A9FFF70D
:1044800068F805B05DF804FB00207047A40A00201E
:1044900070B582B01B4B1B681A6862B3DB681E687C
:1044A000DC68251D2846FEF7F9FD236A204698475B
:1044B00094F8243013F0040FECD0A36933449E42E7
:1044C00007D26360246129460E4B1868FEF7CDFDC4
:1044D000E0E7002100910B4632462046FFF7A2FF9D
:1044E0000028D7D14FF0500383F31188BFF36F8FAB
:1044F000BFF34F8FFEE7044A10680249086013605B
:1045000002B070BDB0090020B409002038B50546DE
:10451000FFF7C8FB0446074B1B68834205D80023FE
:104520002B60044B1C60204638BDFFF7B1FF012310
:104530002B60F6E7580A002070B582B006460D469B
:1045400017490968C968CC68201DFEF7A7FD94F8D3
:1045500024C01CF0040F08D12CF0010C84F824C0F6
:10456000236A2046984702B070BDA16933462A46A7
:1045700031442046FFF75CFE0028F1D00021009175
:104580000B4632462046FFF74DFF0028E8D14FF09A
:10459000500383F31188BFF36F8FBFF34F8FFEE794
:1045A000B009002070B582B006460C46FFF772FBDA
:1045B00001A8FFF7ABFF019B33BB05460CB9B04226
:1045C00019D224B1124A12681268DAB901242246BB
:1045D000711B104B1868FFF7E7F8FFF7F5FBA8B958
:1045E0004FF0E0234FF08052C3F8042DBFF34F8FFC
:1045F000BFF36F8F0AE0FFF7E7FB29463046FFF76E
:104600009BFF03E01C46E2E7FFF7DEFB02B070BD54
:10461000B4090020A40A002010B586B0002203A926
:104620003B4B1868FEF7FCFF00286ED0039B002B65
:10463000F4DB059C636913B1201DFEF72FFD02A872
:10464000FFF764FF039B092BE8D8DFE803F00505BB
:10465000053037500505303794F8243043F0010316
:1046600084F82430049BA169024619442046FFF7D0
:10467000DFFD0028D2D0236A2046984794F82430E2
:1046800013F0040FCAD0A269002100910B460498D0
:1046900002442046FFF7C6FE0028BFD14FF050036A
:1046A00083F31188BFF36F8FBFF34F8FFEE794F84A
:1046B000243023F0010384F82430AFE794F8243049
:1046C00043F0010384F824300499A16131B1034619
:1046D000024601442046FFF7ABFD9FE74FF0500331
:1046E00083F31188BFF36F8FBFF34F8FFEE794F80A
:1046F000243013F0020F04D023F0010384F8243097
:104700008CE7204600F066F988E706B010BD00BFD0
:10471000A40A002000B583B001A8FFF779FD019934
:10472000FFF740FFFFF778FFF6E7842801D003305A
:1047300070470020704708B5FFF75EFA002008BDFB
:104740002DE9F04387B00E464469C4B18569B5B11F
:104750004768D0F80080D0F81090B0F90800FFF753
:10476000E4FF02950194009033464A46414638469C
:10477000FFF7D2F90590059807B0BDE8F0834468CB
:1047800005680769B0F90800FFF7CFFF05AB019393
:1047900000903346BAB229462046FFF7F8F90128BF
:1047A000E9D00020E8E708B500B90120FFF788FB51
:1047B000002008BD10B582B0134644686CB10129D1
:1047C00009D0002201680194009101210948FFF7F6
:1047D000FFFD02B010BD0122F4E7012907D000223D
:1047E0000168009101210348FFF7D6FDF1E701229E
:1047F000F6E700BF0452000808B5416819B101206E
:10480000FEF798FE08BD0120FEF789FEFAE70000DA
:10481000124A12F0070F1ED0D11D21F00701C1F579
:10482000705313440A460E4802600021416013444D
:10483000083B23F007030B48036059601960991A7D
:1048400051601360084B1960084B1960084B4FF01A
:1048500000421A6070474FF47053E4E7B00A00203A
:10486000C4460020AC0A0020B8460020B446002010
:10487000B0460020164B1A461B688342FBD3516892
:1048800002EB010C844509D0416800EB010C634543
:1048900009D00360904219D010607047406801440D
:1048A00051601046F0E710B40A4C2468A3420BD0C4
:1048B0005B681944416013681B680360904200D034
:1048C00010605DF8044B70470460F7E7704700BF65
:1048D000C4460020AC0A002070B50546FFF7DAF99F
:1048E000364B1B68A3B1364B1B681D424ED135B108
:1048F000083515F0070F02D025F007050835002D03
:1049000046D0304B1B68AB4251D32F4A146804E0A9
:10491000FFF77EFFE7E722461C466368AB4202D200
:104920002368002BF7D1254B1B68A34241D01668A2
:1049300008362368136063685B1B102B10D960195D
:1049400010F0070F08D04FF0500383F31188BFF326
:104950006F8FBFF34F8FFEE743606560FFF78AFFFD
:10496000626818490B689B1A0B60184909688B42EA
:1049700001D216490B60124B1B681343636000237E
:104980002360134A13680133136002E0002600E03D
:104990000026FFF719FA16F0070F0CD04FF050035E
:1049A00083F31188BFF36F8FBFF34F8FFEE70026AD
:1049B000EFE70026EDE7304670BD00BFAC0A0020EF
:1049C000B0460020B4460020C4460020B84600206F
:1049D000BC460020002834D038B50446A0F10805B4
:1049E00050F8043C174A1268134208D14FF05003A4
:1049F00083F31188BFF36F8FBFF34F8FFEE750F83B
:104A0000081C41B14FF0500383F31188BFF36F8F3F
:104A1000BFF34F8FFEE723EA020340F8043CFFF7A1
:104A200039F954F8041C084A13680B4413602846EB
:104A3000FFF720FF054A136801331360FFF7C4F93D
:104A400038BD7047B0460020B4460020C046002064
:104A500082B0002301930D4B1B68B3F1FF3F08D0D8
:104A60004FF0500383F31188BFF36F8FBFF34F8F65
:104A7000FEE74FF0500383F31188BFF36F8FBFF34E
:104A80004F8F019B002BFCD002B070470C00002020
:104A900008480068006880F308884FF0000080F341
:104AA000148862B661B6BFF34F8FBFF36F8F00DF1C
:104AB00000BF000008ED00E0DFF80C00016841F4E1
:104AC000700101607047000088ED00E04FF08073D6
:104AD00040F8043C21F0010140F8081C054B40F867
:104AE0000C3C40F8202C6FF0020340F8243C443882
:104AF000704700BF514A000800000000000000009D
:104B0000074B19680868B0E8F04F80F30988BFF3D5
:104B10006F8F4FF0000080F311887047AFF3008073
:104B2000840800204FF0500383F31188BFF36F8F88
:104B3000BFF34F8F0B4A136801331360012B00D072
:104B400070474FF0E023D3F8043D13F0FF0FF7D088
:104B50004FF0500383F31188BFF36F8FBFF34F8F74
:104B6000FEE700BF0C000020094B1B6843B94FF063
:104B7000500383F31188BFF36F8FBFF34F8FFEE7AE
:104B8000013B034A13600BB983F31188704700BFE0
:104B90000C000020000000000000000000000000E9
:104BA000EFF30980BFF36F8F154B1A681EF0100FDB
:104BB00008BF20ED108A20E9F04F10602DE90900B0
:104BC0004FF0500080F31188BFF34F8FBFF36F8F0A
:104BD000FFF79CF94FF0000080F3118809BC1968B9
:104BE0000868B0E8F04F1EF0100F08BFB0EC108A54
:104BF00080F30988BFF36F8F704700BFAFF3008069
:104C00008408002008B54FF0500383F31188BFF3E8
:104C10006F8FBFF34F8FFFF74BF828B14FF0E023B2
:104C20004FF08052C3F8042D002383F3118808BD90
:104C30004FF0E022002313619361054B1B68054987
:104C4000A1FB03139B09013B5361072313617047C9
:104C500008000020D34D62104FF0E023D3F8002D60
:104C60003D4B9A421CD04FF0E023D3F8002D3B4B34
:104C70009A421ED030B583B0394B1A78D2B2019225
:104C8000FF221A701B78DBB28DF803309DF80330D9
:104C900003F05003334A1370334B07221A601BE0B2
:104CA0004FF0500383F31188BFF36F8FBFF34F8F23
:104CB000FEE74FF0500383F31188BFF36F8FBFF30C
:104CC0004F8FFEE7284A1368013B13609DF80330BD
:104CD0005B00DBB28DF803309DF8033013F0800FDA
:104CE000F0D1214B1B68032B08D04FF0500383F306
:104CF0001188BFF36F8FBFF34F8FFEE71B021A4A75
:104D0000136003F4E0631360019BDBB2144A137079
:104D10004FF0E024D4F8203D43F47003C4F8203D64
:104D2000D4F8203D43F07043C4F8203DFFF780FFE6
:104D300000250E4B1D60FFF7BFFED4F8343F43F053
:104D40004043C4F8343FFFF7A3FEFFF7DFF8FFF757
:104D50007FFE284603B030BD71C20F4170C20F41C3
:104D600000E400E0CC460020D04600200C000020EB
:104D7000EFF305830F2B0FD9114A9B5CDBB2114A6D
:104D800012789A4208D94FF0500383F31188BFF389
:104D90006F8FBFF34F8FFEE74FF0E023D3F80C3D4A
:104DA00003F4E063084A1268934208D94FF05003B5
:104DB00083F31188BFF36F8FBFF34F8FFEE7704708
:104DC000F0E300E0CC460020D0460020DFF834D0ED
:104DD0000D480E490E4A002302E0D458C450043353
:104DE000C4188C42F9D30B4A0B4C002301E013602A
:104DF0000432A242FBD3FEF715F900F011F8FBF7DD
:104E0000FFFB704700000120000000201000002080
:104E1000A852000810000020D4460020FEE7000041
:104E200070B50D4D0D4C641BA4100026A64209D18F
:104E30000B4D0C4C00F092F9641BA4100026A64206
:104E400005D170BD55F8043B98470136EEE755F89B
:104E5000043B98470136F2E7A0520008A052000830
:104E6000A0520008A45200080A44914200F1FF3306
:104E700000D1704710B511F8014B03F8014F914272
:104E8000F9D110BD02440346934200D1704703F8A4
:104E9000011BF9E72DE9F047089E0D4604460F4631
:104EA000002B4AD18A42944665D9B2FA82F343B1C3
:104EB00002FA03FCC3F120029F4020FA02F21743DA
:104EC0009C404FEA1C4E1FFA8CF5B7FBFEF1220CFA
:104ED0000EFB117742EA074201FB05F090420AD926
:104EE0001CEB020201F1FF3780F01C81904240F27E
:104EF000198102396244121AA4B2B2FBFEF00EFB11
:104F0000102244EA024400FB05F5A5420AD91CEB35
:104F1000040400F1FF3280F00781A54240F20481D1
:104F20006444023840EA0140641B00211EB1DC40A9
:104F30000023C6E90043BDE8F0878B4208D9002E64
:104F400000F0ED800021C6E900050846BDE8F087C5
:104F5000B3FA83F1002949D1AB4202D3824200F275
:104F6000F880841A65EB030201201746002EE2D078
:104F7000C6E90047DFE702B9FFDEB2FA82F3002B91
:104F800040F090808A1A4FEA1C471FFA8CFE0121DC
:104F9000B2FBF7F507FB1520220C42EA00420EFB9C
:104FA00005F0904208D91CEB020205F1FF3802D24D
:104FB000904200F2CB804546121AA4B2B2FBF7F041
:104FC00007FB102244EA02440EFB00FEA64508D966
:104FD0001CEB040400F1FF3202D2A64500F2BB80B4
:104FE0001046A4EB0E0440EA05409FE7C1F12007FC
:104FF0008B4022FA07FC4CEA030C05FA01F420FA74
:1050000007F3FD404FEA1C492343B5FBF9F81FFAAB
:105010008CFE09FB18551C0C44EA054408FB0EF5F0
:10502000A54202FA01F200FA01F00BD91CEB0404CC
:1050300008F1FF3A80F08880A54240F28580A8F10F
:1050400002086444641B9DB2B4FBF9F309FB1344EA
:1050500045EA044403FB0EFEA64508D91CEB0404F4
:1050600003F1FF356CD2A6456AD9023B644443EA9A
:105070000843A3FB0295A4EB0E04AC42C846AE461F
:1050800056D353D056B1B0EB080264EB0E0404FAC9
:1050900007F7CA40CC401743C6E900741846002100
:1050A000BDE8F087C3F1200102FA03FC20FA01F207
:1050B00025FA01F19D402A434FEA1C471FFA8CFE56
:1050C000B1FBF7F007FB1015110C41EA054100FB9D
:1050D0000EF58D4204FA03F408D91CEB010100F12E
:1050E000FF382FD28D422DD902386144491B92B22C
:1050F000B1FBF7F507FB151142EA014205FB0EF182
:10510000914208D91CEB020205F1FF3816D29142F8
:1051100014D9023D6244521A45EA004138E731464B
:10512000304608E73946E6E61046FBE64845A9D290
:10513000B9EB020865EB0C0E013BA3E74546EAE735
:105140002B4694E74046D1E7D0467BE7023D6244D8
:1051500032E708460AE76444023842E7F8B500BF80
:10516000F8BC08BC9E467047F8B500BFF8BC08BC48
:045170009E467047A0
:1051740054520008750300080000000000000000FD
:1051840080000000000000000000000048520008F9
:10519400610300080100000000000000800000001E
:1051A40000000000000000003C5200086B030008EF
:1051B400000000000000000080000000000000006B
:1051C400000000004B696E67206F662074686520DC
:1051D40068696C6C210000005075736820746F203E
:1051E400706C6179000000005031206973206B6994
:1051F4006E6700006F66207468652068696C6C21B6
:10520400000000005032206973206B696E67000053
:1052140050312077696E73210000000053636F7270
:10522400653A205F20746F205F00000050322077C1
:10523400696E732100000000646973706C617954B5
:1052440061736B006C6F726152585461736B000030
:1052540064656661756C745461736B0000061016A6
:105264000006101600000000000000000102030404
:1052740006070809000000000102030449444C45E4
:1052840000000000546D725100000000546D722043
:0452940053766300EA
:08529800FCFBFF7F0100000098
:0452A0003D020008C3
:0452A40015020008E7
:1052A80001000000100000000024F400AAAAAAAA25
:0400000508004DCDD5
:00000001FF
