:020000040800F2
:1000000000000120AD660008711500087315000896
:100010007515000877150008791500080000000024
:10002000000000000000000000000000E163000884
:100030007B1500080000000081640008E5640008EA
:10004000FD660008FD660008FD660008FD66000804
:10005000FD660008FD6600087D150008FD660008C5
:10006000FD660008FD660008FD660008FD660008E4
:10007000FD660008FD660008FD660008FD660008D4
:10008000FD66000889150008FD66000800000000F4
:10009000000000000000000000000000FD660008F5
:1000A000FD66000899150008FD660008FD66000859
:1000B000FD660008FD660008FD660008A915000839
:1000C000FD660008FD660008FD660008B915000819
:1000D000FD660008FD660008FD66000800000000DF
:1000E000FD660008FD660008FD66000800000000CF
:1000F000000000000000000000000000FD66000895
:1001000000000000FD660008FD660008FD660008AE
:1001100000000000000000000000000000000000DF
:10012000C9150008FD660008FD660008D91500081D
:10013000FD66000800000000000000000000000054
:10014000000000000000000000000000FD66000844
:10015000FD660008FD660008FD660008FD660008F3
:10016000FD660008FD6600080000000000000000B9
:10017000000000000000000000000000000000007F
:1001800000000000FD660008000000000000000004
:04019000FD66000800
:1001A00001F0FF01102A2BDB10F0070F08D010F828
:1001B000013B013A8B422DD010F0070F42B3F6D12C
:1001C000F0B441EA012141EA014122F007047FF045
:1001D00000070023F0E80256083C85EA010586EA9C
:1001E000010685FA47F5A3FA87F586FA47F6A5FAD8
:1001F00087F68EB9EED1F0BC01F0FF0102F00702E4
:1002000032B110F8013B013A83EA010313B1F8D18E
:100210000020704701387047002D06BF354603386F
:10022000073815F0010F07D1013015F4807F02BFA8
:10023000013015F4C03F0130F0BC0138704700BFF9
:1002400053B94AB9002908BF00281CBF4FF0FF313D
:100250004FF0FF3000F00CB8ADF1080C6DE904CEA2
:1002600006F08AFFDDF804E0DDE9022304B0704700
:10027000704700BF0348044B834202D0034B03B1D5
:10028000184770478C0000208C0000200000000000
:100290000548064B1B1AD90F01EBA301491002D0E8
:1002A000034B03B1184770478C0000208C000020DE
:1002B0000000000010B5064C237843B9FFF7DAFFC1
:1002C000044B13B10448AFF300800123237010BD29
:1002D0008C000020000000004074000808B5054BA9
:1002E0001BB105490548AFF30080BDE80840FFF7A2
:1002F000CFBF00BF00000000900000204074000845
:10030000154B1B78012B04D0144B1B78012B11D0FB
:100310007047134A13680133136042F20F7293421D
:10032000F2D900230C4A13700C4A13700D4B0722AC
:100330001A70E9E70C4A13680133136042F20F7236
:100340009342E5D90023044A1370044A1370054B05
:1003500006221A70DCE700BFF0020020C002002075
:10036000EC020020C4020020BC020020014B00224D
:100370001A707047C1020020704700002DE9F0415B
:1003800088B0002403940494059406940794009480
:100390002F4B1A6B42F080021A631A6B02F0800234
:1003A0000092009A01941A6B42F001021A631A6BD0
:1003B00002F001020192019A02941A6B42F00202C9
:1003C0001A631B6B03F002030293029BDFF8888021
:1003D00001220621404601F08BFE1E4F01224FF400
:1003E000C061384601F084FE012503954FF40413E3
:1003F0000493059503A9404601F096FD0626039651
:1004000004950594069403A9404601F08DFD4FF430
:10041000807303934FF488130493059403A938461B
:1004200001F082FD4FF4C063039304950594069494
:1004300003A9384601F078FD22460521304602F036
:1004400053F8304602F088F808B0BDE8F08100BFEC
:1004500000380240000002400004024010B582B0A3
:1004600000240094164B1A6B42F400121A631A6BA4
:1004700002F400120092009A01941A6B42F4800276
:100480001A631B6B03F480030193019B2246052131
:10049000112002F029F8112002F05EF82246052111
:1004A000382002F021F8382002F056F822460521C3
:1004B0003B2002F019F83B2002F04EF802B010BDCC
:1004C0000038024008B5642005F0B3FDFBE70000EA
:1004D00010B594B0012004F072FC544B1860544CD9
:1004E000684600F077FBA646EC46BCE80F00AEE895
:1004F0000F00BCE80F00AEE80F009CE807008EE894
:1005000007004C4B23604FF48062A280A3604FF43D
:100510000072A28123614FF48073A382464BA361D2
:10052000204600F066FD04460A224449444806F08D
:1005300021F9C82C73D0434B09221A803C4800F0A3
:1005400013FD0DF1340C404C0FCCACE80F0094E8D7
:1005500007008CE8070000210DA805F037FD3B4B94
:100560001860012202213A4801F0C2FD00F09CFA15
:100570000021084600F078FA364C012394E8060082
:10058000354800F059FA00F0C1F94FF4FA7005F05F
:1005900050FD002000F0ACF90021402000F064FA8A
:1005A000012394E806002D4800F046FA00F0AEF969
:1005B0004FF4FA7005F03DFD002000F099F9082194
:1005C000002000F051FA012394E80600244800F0CE
:1005D00033FA00F09BF94FF4FA7005F02AFD002081
:1005E00000F086F90821402000F03EFA012394E84B
:1005F00006001C4800F020FA00F088F94FF47A70E9
:1006000005F017FD00F070FD0121174B186805F08B
:1006100039FD00F0E3FD012005F00BFDF9E764234F
:100620000C220749024800F05BFC87E7B802002073
:100630008C020020000002402C020020AC74000854
:10064000D4020020C2020020587400088402002056
:100650000004024008000020B8740008C0740008BC
:10066000C4740008C87400088802002008B500F0AF
:10067000FFFE642005F0DDFCF9E7000008B5026824
:10068000034B9A4200D008BD01F08EFFFBE700BF8C
:100690000000014072B6FEE708B50D480D4B03603F
:1006A0004FF48273436000238360C360036143613E
:1006B0004FF4007282611822C26103624362836256
:1006C0000A23C36203F0D4FB00B908BDFFF7E2FFC1
:1006D0002C0200200030014008B50B480B4B036092
:1006E0000B4B4360002383604E22C2604FF4804274
:1006F000026143618361C361036202F019FB00B9C7
:1007000008BDFFF7C7FF00BFD8010020005400401C
:10071000A086010000B595B03022002108A806F09F
:1007200021F8002303930493059306930793019301
:10073000214A116C41F080511164126C02F0805218
:100740000192019A02931D4A136823F4404343F433
:1007500000431360136803F440430293029B012398
:1007600008934FF48033099302230E934FF48003D0
:100770000F93192310934FF4A8731193042312932A
:100780000723139308A801F08BF880B90F23039374
:1007900002210491002305934FF48052069207939F
:1007A00003A801F0CDFA20B915B05DF804FBFFF7FE
:1007B00071FFFFF76FFF00BF00380240007000407C
:1007C00000B595B001F0D6FEFFF7A4FFFFF7D6FD08
:1007D000FFF744FEFFF760FFFFF77EFF012004F004
:1007E000EEFA244B1860244B1293002513952A46E9
:1007F000012112A805F024FC204B1860204B109317
:1008000011952A46294610A805F01AFC1D4B1860C0
:100810001D4B0E930F952A4629460EA805F010FC95
:100820001A4B18601A4C0DF11C0C04F11C0EBEE89A
:100830000F00ACE80F009EE807008CE8070029468F
:1008400007A805F0C3FB134B1860EE4604F1380C03
:10085000BCE80F00AEE80F009CE807008EE8070038
:100860002946684605F0B2FB0B4B186005F0A9FB62
:10087000FEE700BFB8020020010300088802002044
:100880006D030008AC00002079030008A8000020D8
:1008900058740008B0000020B400002000B587B0F4
:1008A0008DF817004FF0FF330293012301930DF1F0
:1008B0001702009200227821024802F0D3FB07B011
:1008C0005DF804FBD801002000B585B04FF0FF3380
:1008D000029389B2019100900123402278210348BC
:1008E00002F0C0FB05B05DF804FB00BFD80100209A
:1008F00008B530B900214FF40072034805F032FF0B
:1009000008BDFF21F7E700BF2803002010B5002431
:1009100012E0A4F15000C0B2FFF7C0FF0020FFF7C3
:10092000BDFF1020FFF7BAFF8021054800EBC4107F
:10093000FFF7CAFF0134E4B2032CEAD910BD00BFAF
:100940002803002010F0800F10D11F290ED8012A93
:100950000DD0CB0800EBC31001F0070101238B4041
:10096000DB435BB207490A5C13400B547047CB086A
:1009700000EBC31001F007018A4002490B5C1343EE
:100980000B547047280300202DE9F04782B08146C0
:1009900002A800E906001F46A9F12003DBB25E2B86
:1009A00040D8244B1B889DF800603344802B3DDCED
:1009B000204B5B889DF801A05344202B38DC002598
:1009C0001FE01C4B1888598829442044B7FA87F245
:1009D0005209C9B2C0B2FFF7B5FF0134A6420FD920
:1009E00008FA04F313F4004FEBD0124B188859881F
:1009F000294420443A46C9B2C0B2FFF7A3FFECE74E
:100A00000135AA4508D9A9F1200303FB0A53019A2D
:100A100032F813800024E1E7064B1A8816441E8042
:100A2000484600E0002002B0BDE8F0870020FAE769
:100A30000020F8E72003002030B583B0044602A868
:100A400000E906001D4600E00134207848B12B463D
:100A500002AA12E90600FFF797FF024620788242B9
:100A6000F2D003B030BD0000014B188059807047B0
:100A70002003002010B504468120FFF70FFF204619
:100A8000FFF70CFF10BD000008B530B1054B012287
:100A90005A71AF20FFF702FF08BD024B00225A71C6
:100AA000AE20F7E72003002008B5642001F08EFD9A
:100AB0000020FFF7E9FF2020FFF7F0FE0020FFF7FE
:100AC000EDFEB020FFF7EAFEC820FFF7E7FE0020AA
:100AD000FFF7E4FE1020FFF7E1FE4020FFF7DEFE07
:100AE000FF20FFF7C7FFA120FFF7D8FEA620FFF7E2
:100AF000D5FEA820FFF7D2FE1F20FFF7CFFEA420CF
:100B0000FFF7CCFED320FFF7C9FE0020FFF7C6FE9B
:100B1000D520FFF7C3FEF020FFF7C0FED920FFF776
:100B2000BDFE2220FFF7BAFEDA20FFF7B7FE022053
:100B3000FFF7B4FEDB20FFF7B1FE2020FFF7AEFE8B
:100B40008D20FFF7ABFE1420FFF7A8FE0120FFF772
:100B50009BFF0020FFF7CCFEFFF7D8FE034B0022DF
:100B60001A805A8001221A7108BD00BF200300209C
:100B700000B585B000F0F0030001C0B243F00C02F4
:100B80008DF80C2043F008038DF80D3040F00C0375
:100B90008DF80E3040F008008DF80F0064230093AC
:100BA000042303AA4E21034802F0A0F905B05DF822
:100BB00004FB00BFD801002008B528B1012806D0E9
:100BC000C8B2FFF7D5FF08BD41F08001F8E741F05A
:100BD000C001F5E740F2B1120262072280F824203A
:100BE00080F82520012280F82620FF2280F82A2084
:100BF000642280F82B20082202857047F8B504464D
:100C00000E4617461D4600228188006801F070FAE2
:100C10004FF4FA633A463146A06903F088F9A069B7
:100C200003F0D2FC0128FAD14FF4FA63BDF8182082
:100C30002946A06903F073FBA06903F0C5FC0128F5
:100C4000FAD10122A188206801F052FAF8BDF8B566
:100C500004460E4617461D4600228188006801F0B2
:100C600047FA4FF4FA633A463146A06903F05FF958
:100C7000A06903F0A9FC0128FAD14FF4FA63BDF88A
:100C800018202946A06903F052F9A06903F09CFCE2
:100C90000128FAD10122A188206801F029FAF8BDC3
:100CA00000B585B001F07F018DF80E100122009291
:100CB0000DF10F030DF10E01FFF7A0FF9DF80F00DE
:100CC00005B05DF804FB00B585B061F07F018DF8DB
:100CD0000E108DF80F20012200920DF10F030DF17F
:100CE0000E01FFF7B4FF05B05DF804FB38B504460C
:100CF0000D460121FFF7D4FF024645B900F0F80286
:100D00000023E36101212046FFF7DDFF38BD013DEF
:100D1000052DF7D801A353F825F000BF350D0008C5
:100D2000050D0008470D0008050D0008590D0008C5
:100D30006B0D000820F0070252B242F00102D2B25D
:100D40000123E361DEE720F0070252B242F0030222
:100D5000D2B20323E361D5E720F0070252B242F09A
:100D60000502D2B20523E361CCE720F0070252B2BC
:100D700042F00602D2B20623E361C3E738B5044667
:100D8000CA045511C2F347520621FFF79CFF052004
:100D900001F01CFC2A0AD2B207212046FFF793FF7C
:100DA000052001F013FC002208212046FFF78BFFED
:100DB000052001F00BFC38BD70B506460C2904DC9B
:100DC0000C46062902DC072400E00C241E213046D4
:100DD000FFF766FF05460A2001F0F8FB2201D2B2B8
:100DE00005F00F052A44D2B21E213046FFF76BFFF3
:100DF0000A2001F0EBFB70BD08B50A460921FFF798
:100E000062FF0A2001F0E2FB08BD000008B52C29B2
:100E10000DD9F0290CD9F021F0291CD81E310F4B27
:100E200083FB0123CA17C2EBA302D2B20AE02D2131
:100E30007829F1D82D39094B83FB0123CA17C2EB5E
:100E40006302D2B22032D2B20B21FFF73CFF0A205C
:100E500001F0BCFB08BD0022F4E700BF67666666D0
:100E600010B504461E21FFF71BFF40F00702D2B267
:100E70001E212046FFF727FF0A2001F0A7FB10BD27
:100E800070B582B0044615461E4661F07F018DF8AC
:100E9000071000228188006801F02AF94FF4FA63F4
:100EA00001220DF10701A06903F041F8A06903F0E8
:100EB0008BFB0128FAD14FF4FA6332462946A06928
:100EC00003F035F8A06903F07FFB0128FAD1012275
:100ED000A188206801F00CF902B070BD01207047B4
:100EE0002DE9F04106460F4615461C46D0F81C80F9
:100EF0000121FFF7FBFE0E213046FFF7D1FE02462F
:100F00000D213046FFF7DFFE2A4622213046FFF74B
:100F1000DAFE2B463A4600213046FFF7B1FF0321A7
:100F20003046FFF7E3FE0FE0FF2212213046FFF7C5
:100F3000CAFE41463046FFF7D9FE01252846BDE8E6
:100F4000F081012001F042FB12213046FFF7A8FE9C
:100F500010F00805E8D1013CA4B2002CF1D14146C3
:100F60003046FFF7C3FEE9E708B50521FFF7BEFEEF
:100F700008BDF8B506460C461546002304E04FF0C0
:100F8000000C04F803C001339D42F8DC0121304617
:100F9000FFF7ACFE12213046FFF782FE10F040074B
:100FA00005D105213046FFF7A1FE3846F8BDFF22E6
:100FB00012213046FFF787FE13213046FFF770FEFF
:100FC000074610213046FFF76BFE02460D213046E2
:100FD000FFF779FEBD4228BF3D46EFB2002505E090
:100FE00000213046FFF75CFE60550135AF42F7DC6B
:100FF000D7E738B50446FFF771FF10B940F2F71094
:1010000038BD00212046FFF771FE0A2001F0DEFA0C
:1010100001212046FFF744FE05460A2001F0D6FADA
:1010200065F07F02D2B201212046FFF74CFE64201A
:1010300001F0CCFA216A2046FFF7A0FE94F82A10AE
:101040002046FFF7D9FE94F82B102046FFF7DEFE6E
:1010500023220C212046FFF736FE2046FFF700FF33
:1010600094F824102046FFF7A7FEFF221F212046F8
:10107000FFF729FE94F825201201D2B294F8263009
:101080005B00DBB21A4402F0FE021D212046FFF78E
:101090001AFE228D120A20212046FFF714FE94F832
:1010A000282021212046FFF70EFE40212046FFF791
:1010B000F7FD40F03F02D2B240212046FFF703FE89
:1010C00001212046FFF712FE0123E3610A2001F00F
:1010D0007DFA42212046FFF7E3FD122802D04FF4AB
:1010E000CA708DE7C8208BE710B50D4C0122022194
:1010F000204600F0FDFF01220421204600F0F8FF09
:101100000023084A1370084A1370084A1360084AFB
:101110001360084B08221A70074B01221A7010BD89
:1011200000040240F0020020C0020020EC02002077
:10113000BC020020C402002008030020124B1A78D1
:10114000931E062B1ED8DFE803F00A1D0A1D171791
:10115000040001230D4A13700B4A137070470B4BA8
:1011600001211970022A03D0074B03221A7070471D
:10117000054B05221A707047044B01221A70024B6E
:1011800008221A70704700BFC40200200803002024
:1011900038B505460C4C002323606360238102466A
:1011A0000A49204605F0E6FA094B1B685A59094BD3
:1011B0001A60094D64230A2221462846FFF790FE53
:1011C0002846FFF7D1FE38BDD4020020049C000859
:1011D000447500080C0300208C02002070B584B018
:1011E000924B1B78013B072B4AD8DFE813F029000C
:1011F0004B0029007D002900E600AF0008008C4B61
:101200001B78002B3CD00024894B1C702046FFF734
:101210006FFB21462046FFF727FC864A012306CABA
:101220008548FFF709FC15211920FFF71DFC834AAB
:10123000012306CA8248FFF7FFFBFFF767FB1FE0A9
:1012400000237B4A13707F4A13707F4A13707F4CD0
:1012500001220221204600F04BFF012204212046FA
:1012600000F046FF04E0FFF793FF322004F0E1FEB8
:101270006E4B18780128F6D00328F4D00528F2D058
:1012800004B070BD6A4B1B78002BF9D00024684B6A
:101290001C7001266B4B1E706B4B1C706B4D2246F5
:1012A0000221284600F024FF32460421284600F09F
:1012B0001FFF2046FFF71CFB21462046FFF7D4FB0B
:1012C0005E4D334695E806006148FFF7B5FB0A21FD
:1012D0002046FFF7C9FB334695E806005D48FFF757
:1012E000ABFBFFF713FBCBE7514B1B78002BC7D0B1
:1012F00000244F4B1C70534B1C700126524B1E7028
:10130000524D32460221284600F0F2FE22460221CA
:10131000284600F0EDFE2046FFF7EAFA2146204677
:10132000FFF7A2FB454D334695E806004A48FFF714
:1013300083FB0A212046FFF797FB334695E806001A
:101340004448FFF779FBFFF7E1FA99E7384B1B7840
:10135000002B95D00024364B1C703C4D22460221B8
:10136000284600F0C5FE01220421284600F0C0FEF8
:101370002046FFF7BDFA21462046FFF775FB2F4DAB
:10138000012395E806003548FFF756FB344B1A88D1
:10139000344B1B88D21A92B23349684605F0EAF9F9
:1013A00021460120FFF708FC012395E80600684666
:1013B000FFF742FBFFF7AAFA62E71D4B1B78002BF1
:1013C0003FF45EAF00241A4B1C70204D0122022115
:1013D000284600F08DFE22460221284600F088FEB5
:1013E0002046FFF785FA21462046FFF73DFB134DC7
:1013F000012395E806001D48FFF71EFB194B1A88CC
:10140000174B1B88D21A92B21749684605F0B2F9F9
:1014100021460120FFF7D0FB012395E8060068462E
:10142000FFF70AFBFFF772FA2AE700BFC4020020A9
:1014300008030020000000200475000810000020B0
:101440000C9C0008F0020020C002002000040240B2
:101450001C9C0008289C0008389C0008489C000838
:10146000EC020020BC020020549C0008609C000894
:1014700000B58BB00A2229492948FFF77AFD294B8C
:10148000187068B1254B1A78274B1B789A4207D001
:10149000254B224A106851681860596012891A81D8
:1014A0002249214805F086F9D8B10A2269461E482A
:1014B00005F018FA1E4B1B681A581E4B1A601E4B7B
:1014C0001B7883420DD007280BD8DFE800F0040416
:1014D00017170D0D2121184B00221A70174B0122EE
:1014E0001A700BB05DF804FB0420FFF751FE124B9D
:1014F00004221A70114B01221A70F2E70220FFF742
:1015000047FE0D4B02221A700C4B01221A70E8E7BD
:10151000094B1870094B01221A70E2E7C80200203B
:101520008C020020DE020020E00200206C9C0008FB
:1015300044750008F4020020C402002008030020C3
:10154000034B0360034B0B6080231360704700BFA5
:101550002807002028050020034B0360034B0B6085
:101560004FF48073136070477C0B00207C070020D1
:10157000FEE7FEE7FEE7FEE7FEE7704708B501205D
:1015800000F0BCFD08BD000008B5024800F0A8FE50
:1015900008BD00BFB800002008B5024803F058F8A5
:1015A00008BD00BFD00B002008B5024802F0AEFA1B
:1015B00008BD00BFD801002008B5024802F070FF46
:1015C00008BD00BF2C02002008B5024800F088FECC
:1015D00008BD00BF1801002008B5024800F080FED9
:1015E00008BD00BF7801002008B5084B1B780BB977
:1015F000012800D008BD054B01221A70FFF79EFD9F
:10160000FA21034B186804F03DFDF3E7C102002006
:10161000AC00002000B583B0002200920D4B596C45
:1016200041F480415964596C01F480410091009962
:101630000192196C41F0805119641B6C03F08053C6
:101640000193019B0F216FF0010000F04DFF03B0EB
:101650005DF804FB0038024070B588B000230393A6
:1016600004930593069307930268254B9A4201D091
:1016700008B070BD044600250195224E336B43F03F
:1016800002033363336B03F002030193019BC02316
:10169000039312230493032306930423079303A9BC
:1016A000194800F041FC0295336C43F40013336495
:1016B000336C03F400130293029B1448144B036031
:1016C0004FF00073436040238360C5604FF4806334
:1016D000036145618561C5610562456200F086FD73
:1016E00058B90A4B63639C63002205211F2000F058
:1016F000FBFE1F2000F030FFBAE7FEF7CBFFF0E75C
:10170000005400400038024000040240B8000020AD
:10171000A060024030B589B0002303930493059381
:10172000069307930268334B9A4201D009B030BD4B
:1017300004460025019503F584335A6C42F4805227
:101740005A645A6C02F480520192019A02951A6B03
:1017500042F001021A631B6B03F001030293029B28
:10176000E0230393022304930323069305230793A3
:1017700003A9214800F0D8FB2048214B03604FF01B
:10178000C063436040238360C5604FF4806303619E
:1017900045618561C5610562456200F027FD10BBAA
:1017A000164BA3649C631748174B03604FF0C0634C
:1017B000436000238360C3604FF480620261436131
:1017C0008361C3610362436200F010FD70B90D4B89
:1017D000E3649C6300220521232000F085FE232082
:1017E00000F0BAFEA2E7FEF755FFD9E7FEF752FF79
:1017F000EDE700BF0030014000000240780100200A
:1018000058640240180100201064024030B589B0CD
:101810000546002401941D4B5A6C42F001025A64A3
:101820005B6C03F001030193019B02A903A800F084
:101830005DFB00F04BFB164AA2FB00239B0C013B17
:101840001448154A026040F2E732C2604360046106
:101850008460846103F008F8044610B1204609B0A2
:1018600030BD0C4802F0B4FE04460028F6D1192021
:1018700000F072FE0F2D01D90124EFE70022294666
:10188000192000F031FE054B1D60E7E700380240EB
:1018900083DE1B43D00B0020000001401C00002011
:1018A000002800F0E08170B582B00446036813F0B0
:1018B000010F3BD09F4B9B6803F00C03042B2CD0F3
:1018C0009C4B9B6803F00C03082B21D06368B3F595
:1018D000803F4FD0B3F5A02F52D0964B1A6822F418
:1018E00080321A601A6822F480221A606368002B22
:1018F00050D000F065FE05468E4B1B6813F4003F88
:1019000014D100F05DFE401B6428F5D90320B1E13D
:10191000884B5B6813F4800FD8D0864B1B6813F498
:10192000003F03D06368002B00F09F81236813F011
:10193000020F54D07F4B9B6813F00C0F3ED07D4BB1
:101940009B6803F00C03082B33D0E368002B68D0AE
:10195000794B01221A6000F033FE0546754B1B6877
:1019600013F0020F54D100F02BFE401B0228F5D9D2
:1019700003207FE16F4A136843F480331360B5E7B7
:101980006C4B1A6842F480221A601A6842F4803262
:101990001A60ABE700F014FE0546664B1B6813F4B3
:1019A000003FC3D000F00CFE401B6428F5D9032093
:1019B00060E1604B5B6813F4800FC6D15D4B1B6820
:1019C00013F0020F03D0E368012B40F05081594A15
:1019D000136823F0F803216943EAC1031360236805
:1019E00013F0080F42D063696BB3534B0122C3F865
:1019F000802E00F0E5FD05464E4B5B6F13F0020FA5
:101A000034D100F0DDFD401B0228F5D9032031E17F
:101A1000484A136823F0F803216943EAC1031360BD
:101A2000DDE7454B00221A6000F0CAFD0546414B38
:101A30001B6813F0020FD2D000F0C2FD401B022839
:101A4000F5D9032016E13C4B0022C3F8802E00F0AC
:101A5000B7FD0546374B5B6F13F0020F06D000F061
:101A6000AFFD401B0228F5D9032003E1236813F0E2
:101A7000040F77D02F4B1B6C13F0805F33D1002302
:101A800001932C4B1A6C42F080521A641B6C03F0C9
:101A900080530193019B0125284B1B6813F4807F21
:101AA00023D0A368012B34D0052B38D0214B1A6FDB
:101AB00022F001021A671A6F22F004021A67A36863
:101AC000002B3DD000F07CFD06461A4B1B6F13F037
:101AD000020F46D100F074FD801B41F2883398421A
:101AE000F3D90320C6E00025D6E7144A136843F46F
:101AF0008073136000F064FD0646104B1B6813F4FE
:101B0000807FCED100F05CFD801B0228F5D9032038
:101B1000B0E0084A136F43F001031367CFE7054BAA
:101B20001A6F42F004021A671A6F42F001021A6734
:101B3000C5E700BF00380240000047420070004087
:101B400000F03EFD0646524B1B6F13F0020F08D00B
:101B500000F036FD801B41F288339842F3D9032010
:101B600088E0EDB9A369002B00F08380484A9268B1
:101B700002F00C02082A51D0022B17D0454B00224C
:101B80001A6600F01DFD0446414B1B6813F0007FF0
:101B900042D000F015FD001B0228F5D9032069E0B2
:101BA0003B4A136C23F080531364DBE7394B00226C
:101BB0001A6600F005FD0546354B1B6813F0007FE3
:101BC00006D000F0FDFC401B0228F5D9032051E0AF
:101BD000E369226A1343626A43EA8213A26A5208E3
:101BE000013A43EA0243E26A43EA0263284A536045
:101BF000284B01221A6600F0E3FC0446244B1B68C4
:101C000013F0007F06D100F0DBFC001B0228F5D9A1
:101C100003202FE000202DE000202BE0012B2BD013
:101C20001B4B5B6803F48001E269914226D103F00B
:101C30003F02216A8A4223D1616A47F6C0721A4084
:101C4000B2EB811F1ED103F44031A26A5208013A5F
:101C5000B1EB024F18D103F07063E26AB3EB026F8D
:101C600014D1002006E001207047012002E001208D
:101C700000E0002002B070BD0120FBE70120F9E781
:101C80000120F7E70120F5E70120F3E70120F1E764
:101C9000003802400000474208B5264B9B6803F01D
:101CA0000C03042B41D0082B41D1224B5A6802F07F
:101CB0003F025B6813F4800F12D01E4B5968C1F3CA
:101CC00088111D480023A1FB0001FEF7B9FA194B4A
:101CD0005B68C3F3014301335B00B0FBF3F027E023
:101CE000144B5868C0F388104FEA401CBCEB000C42
:101CF0006EEB0E0E4FEA8E1343EA9C634FEA8C1193
:101D0000B1EB0C0163EB0E03DB0043EA5173C90036
:101D100011EB000C43F10003990200234FEA8C20E1
:101D200041EA9C51FEF78CFAD1E7034800E00348F2
:101D300008BD00BF0038024040787D010024F40057
:101D4000002800F09B8070B50D4604464F4B1B6881
:101D500003F007038B4208D2CBB24C4A13701368CE
:101D600003F007038B4240F08B80236813F0020FCF
:101D700017D013F0040F04D0454A936843F4E0539E
:101D80009360236813F0080F04D0414A936843F42A
:101D9000604393603E4A936823F0F003A1680B43CD
:101DA0009360236813F0010F32D06368012B21D0B8
:101DB0009A1E012A25D9364A126812F0020F61D004
:101DC00033498A6822F0030213438B6000F0F8FB6A
:101DD00006462F4B9B6803F00C036268B3EB820F3F
:101DE00016D000F0EDFB801B41F288339842F0D909
:101DF000032042E0264A126812F4003FE0D101209D
:101E00003BE0234A126812F0007FD9D1012034E070
:101E10001E4B1B6803F00703AB4207D9EAB21B4B0A
:101E20001A701B6803F00703AB422DD1236813F02F
:101E3000040F06D0164A936823F4E053E1680B437D
:101E40009360236813F0080F07D0114A936823F4B6
:101E50006043216943EAC1039360FFF71DFF0C4B08
:101E60009B68C3F303130B4AD35CD8400A4B18603A
:101E70000A4B1868FFF7CAFC002070BD01207047AC
:101E80000120FAE70120F8E70120F6E7003C0240D4
:101E9000003802407C9C0008200000201C0000202C
:101EA000014B1868704700BF2000002008B5FFF7FD
:101EB000F7FF044B9B68C3F38223034AD35CD840EB
:101EC00008BD00BF003802408C9C000808B5FFF731
:101ED000E7FF044B9B68C3F34233034AD35CD8400B
:101EE00008BD00BF003802408C9C00080F2303602F
:101EF0000B4B9A6802F0030242609A6802F0F0020B
:101F000082609A6802F4E052C2609B68DB0803F4C6
:101F1000E0530361034B1B6803F007030B6070473A
:101F200000380240003C024000230F2B00F2D78013
:101F300070B582B065E085684FEA430E032404FA69
:101F40000EF425EA0405CC6804FA0EF42C438460F0
:101F5000446824EA02044A68C2F300129A40224309
:101F600042605CE0DC08083450F8242003F00705E8
:101F7000AD004FF00F0E0EFA05FE22EA0E0E0A69B2
:101F8000AA4042EA0E0240F824205CE0042200E06D
:101F9000002202FA0EF22A430234514D45F8242061
:101FA000504A94686FEA0C0224EA0C054E6816F455
:101FB000801F01D04CEA04054A4CA560E46802EA9F
:101FC00004054E6816F4001F01D04CEA0405454C88
:101FD000E560646802EA04054E6816F4003F01D02B
:101FE0004CEA04053F4C6560246822404D6815F4B6
:101FF000803F01D04CEA04023A4C226001330F2B9F
:102000006BD801229A400C6804EA020C32EA0404FC
:10201000F4D14C6804F00304013C012C8BD94A68CC
:1020200002F00302032A09D0C4685D000322AA401B
:1020300024EA02048A68AA402243C2604A6802F085
:102040000302022A8ED004684FEA430E032202FAEA
:102050000EF224EA02044A6802F0030202FA0EF2C7
:10206000224302604A6812F4403FC7D00022019226
:102070001D4A546C44F480445464526C02F480420F
:102080000192019A9C08A51C154A52F8255003F0AC
:10209000030E4FEA8E0E0F2202FA0EF225EA020517
:1020A000124A90423FF474AF02F5806290420ED023
:1020B00002F5806290420CD002F5806290420AD014
:1020C00002F5806290423FF461AF072261E701228E
:1020D0005FE702225DE703225BE702B070BD704755
:1020E00000380140003C014000380240000002403E
:1020F0000AB18161704709048161704708B5054BD9
:102100005B69034200D108BD024B5861FFF76CFACE
:10211000F9E700BF003C014010B40368D9B21039A0
:102120000C4AA2FB014212090B4CA25CC2655F295A
:1021300009D923F47F7323F0030304338365806D8F
:102140005DF8044B704723F47F7323F0030383652A
:10215000F5E700BFABAAAAAA749C0008836A82694B
:1021600092B9012B0AD0022B02D00BB1002070478C
:10217000C36A13F0807F28D100207047C36AB3F18F
:10218000C07F24D000207047B2F5005F09D0022B39
:1021900025D9032B25D1C36A13F0807F23D10020DA
:1021A0007047032B03D8DFE803F01404140A00205F
:1021B0007047C36A13F0807F0DD100207047C36A57
:1021C000B3F1C07F09D00020704701207047012083
:1021D000704701207047012070470120704701209F
:1021E00070470020704701207047000070B504461A
:1021F00000F0E6F9002C5BD00546022384F8353068
:10220000002384F834302268136823F0010313603C
:1022100023681A6812F0010F0AD000F0D1F9431BAD
:10222000052BF5D920236365032084F8350070BDA4
:102230001A68204911406268A0680243E0680243BE
:102240002069024360690243A0690243E0690243D6
:10225000206A02430A43616A04291ED01A60266874
:10226000756925F00705636A1D43042B07D1A36A2E
:102270001D43E36A1BB12046FFF770FF90B97561FB
:102280002046FFF749FFE26D3F2393408360002023
:102290006065012384F83530C9E7E16A206B0143AA
:1022A0000A43DBE740236365012084F83500BEE77D
:1022B0000120BCE73F8010F090F83530DBB2022BF4
:1022C00003D08023436501207047052380F8353013
:1022D0000268136823F001031360002070470000B8
:1022E000F0B583B0044600230193724B1D68724B16
:1022F000A3FB0535AD0A876D3E68C26D0823934088
:10230000334210D003681A6812F0040F0BD01A6819
:1023100022F004021A60C26D08239340BB60436D33
:1023200043F001034365E26D01239340334209D03A
:102330002268526912F0800F04D0BB60636D43F0D5
:1023400002036365E26D04239340334209D022689F
:10235000126812F0020F04D0BB60636D43F00403F7
:102360006365E26D10239340334224D022681268E3
:1023700012F0080F1FD0BB6023681A6812F4802F78
:102380000DD01B6813F4002F04D1236C9BB12046A1
:10239000984710E0A36C73B1204698470BE01A6889
:1023A00012F4807F03D11A6822F008021A60236CAD
:1023B0000BB120469847E26D20239340334255D01D
:1023C0002268126812F0100F50D0BB6094F83530BC
:1023D000DBB2052B0ED023681A6812F4802F33D09D
:1023E0001B6813F4002F2AD1636C002B3ED02046CB
:1023F00098473BE02268136823F0160313602268B5
:10240000536923F080035361236CA3B122681368DE
:1024100023F008031360E26D3F239340BB60012368
:1024200084F83530002384F83430236D002B3FD0FE
:10243000204698473CE0A36C002BE7D1EBE7E36B29
:10244000A3B12046984711E01A6812F4807F09D1A1
:102450001A6822F010021A60012384F83530002334
:1024600084F83430E36B0BB120469847636DFBB1C1
:10247000636D13F0010F17D0052384F835302268FF
:10248000136823F001031360019B01330193AB42F6
:1024900004D823681B6813F0010FF5D1012384F8D9
:1024A0003530002384F83430E36C0BB12046984774
:1024B00003B0F0BD20000020B5814E1B90F8350020
:1024C00070470000074AD36823F4E0631B041B0C29
:1024D000000200F4E060034343F0BF6343F40033C1
:1024E000D360704700ED00E000B5194BDB68C3F323
:1024F0000223C3F1070CBCF1040F28BF4FF0040CFA
:1025000003F1040EBEF1060F18D9033B4FF0FF3E56
:102510000EFA0CFC21EA0C0199400EFA03FE22EAA5
:102520000E020A4300280BDB1201D2B200F1604018
:1025300000F5614080F800235DF804FB0023E5E727
:1025400000F00F001201D2B2024B1A54F4E700BFA0
:1025500000ED00E014ED00E0002807DB00F01F02B2
:10256000400901239340024A42F82030704700BFDF
:1025700000E100E008B50B4B1A6842F400721A60E3
:102580001A6842F480621A601A6842F480721A6013
:102590000320FFF797FF0F20FFF738F9FFF73AF80E
:1025A000002008BD003C0240034A1168034B1B7821
:1025B0000B441360704700BF180C00201800002067
:1025C000014B1868704700BF180C002038B504464E
:1025D000FFF7F6FF0546B4F1FF3F02D0044B1B782E
:1025E0001C44FFF7EDFF401BA042FAD338BD00BFEB
:1025F0001800002090F83E30DBB2402B10D0036969
:10260000B3F5804F1BD0036D002B39D1436CC3F35E
:10261000C813026803F0060343F0F0031361704728
:10262000036D2BB9436C026803F0FE03136170471E
:10263000436C026843F00103DBB21361704790F80A
:102640003D30DBB2212B0FD0436C026843F0010315
:10265000DBB21361436B6BB1DB6B5BB10268536838
:1026600043F4006353607047436C026803F0FE0359
:102670001361EFE7836B33B1DB6B002BEED102E02C
:10268000036D012B00D07047436CC3F3C81302687D
:1026900003F0060343F0F1031361F4E7436C0268AF
:1026A000DBB21361436B3BB1DB6B2BB10268536848
:1026B00043F4006353607047836B002BFBD0DB6BEC
:1026C000002BF3D1F7E7000010B48BB090F83E3048
:1026D000DAB2C16A046B90F83D30DBB2222B0BD02A
:1026E0000023099303685A6909929B690993099B1E
:1026F0000BB05DF8044B7047036D0BB9402A17D03F
:10270000036D1BB90369B3F5404F19D0438D9BB2DC
:10271000002B25D1029303685A6902929A690292AA
:10272000029A1A6842F400721A6000230365DFE718
:10273000009303685A6900929B690093009BD7E756
:102740000023019303685A6901929A690192019AE0
:102750001A6842F480721A60036D01330365C7E79B
:10276000438D9BB2012B1CD0438D9BB2022B73D0A7
:102770000268136843F48063136003685A6812F4B4
:10278000006F00F0AA80202900F2B080082980F0B4
:102790009D80012940F0A1805A6842F480525A601D
:1027A0009BE011F5803F1AD008293DD020293BD06D
:1027B000122C37D0102904D84E4BCB4013F0010F08
:1027C00044D10268136823F48063136000230593E7
:1027D00003685A6905929B690593059BA5E7026802
:1027E000136823F48063136003685A6812F4006F5F
:1027F0000CD01A6822F480621A60002303930368E5
:102800005A6903929B690393039B8EE7002204920B
:102810005A6904929A690492049A1A6842F40072FE
:102820001A6082E70129C5D00268136823F4806327
:1028300013600023069303685A6906929A69069208
:10284000069A1A6842F400721A606EE7026813680A
:1028500043F480631360B9E7102904D8254BCB40BB
:1028600013F0010F19D10268136823F48063136019
:102870000268136843F40063136003685A6812F433
:10288000006F16D020291DD808290CD2012910D19B
:102890005A6842F480525A600BE00268136843F4AD
:1028A00080631360E9E70839134ACA4012F0010F48
:1028B000EED10023079303685A6907929B69079337
:1028C000079B32E711F5803FF3D1E1E708390A4A67
:1028D000CA4012F0010F7FF45FAF00230893036832
:1028E0005A6908929B690893089B1EE711F5803F7F
:1028F000F3D151E71400010001010001438D9BB2A7
:102900005BB1426A036812781A61436A0133436219
:10291000438D9BB2013B9BB243857047438D9BB275
:102920005BB103681A69436A1A70436A01334362F0
:10293000438D9BB2013B9BB24385704782B000231D
:1029400001930E4B1B68DB080D4AA2FB03231B0AF5
:1029500003EB83030193019B013B0193019B33B183
:1029600003681B6813F4007FF5D1002004E0036CBA
:1029700043F020030364012002B0704720000020D0
:1029800089B5F81403685A6912F4806F01D10020E8
:1029900070476FF480625A6100230363202280F83D
:1029A0003D2080F83E30026C42F00402026480F860
:1029B0003C3001207047C36AB3F52A0F04D0C36AC4
:1029C000B3F12A4F03D070470123C3627047082335
:1029D000C362F8E72DE9F04107460D4690461E46D2
:1029E00024E0FFF7EDFD069BC01AB04200D8EEB917
:1029F00000233B63202287F83D2087F83E303A6C65
:102A000042F020023A6487F83C3001201EE03B6827
:102A10009C6925EA040C1FFA8CFCBCFA8CFC4FEA7A
:102A20005C1CE04511D1B6F1FF3FDAD1C5F3074395
:102A3000012BECD13B685B6925EA030C1FFA8CFC87
:102A4000BCFA8CFC4FEA5C1CEBE70020BDE8F0818F
:102A50002DE9F04105460E46174698463DE01A68B6
:102A600042F400721A602B686FF480625A6100238E
:102A70002B63202285F83D2085F83E302A6C42F0F9
:102A800004022A6485F83C30012034E0FFF798FD09
:102A9000A0EB0800B84200D8FFB900232B63202226
:102AA00085F83D2085F83E302A6C42F020022A64E9
:102AB00085F83C3001201EE02B689C6926EA04045E
:102AC000A4B2003C18BF0124A4B12B685A6912F4C7
:102AD000806FC4D1B7F1FF3FD8D1C6F30743012BB4
:102AE000EAD12B685C6926EA0404A4B2003C18BF52
:102AF0000124E9E70020BDE8F0810000F0B583B0D3
:102B000004460D4616461F46C36A082B0DD0012BFE
:102B10000BD013F5803F08D0036B122B0AD102684B
:102B2000136843F48073136004E02268136843F46D
:102B3000807313600097334600224FF00111204646
:102B4000FFF748FF80B92369B3F5804F16D123689A
:102B500005F0FE051D613B46324613492046FFF74E
:102B600077FFF8B903B0F0BD23681B6813F4807FCA
:102B700002D04FF4007323640320F3E7EB112268C3
:102B800003F0060343F0F00313613B463246074966
:102B90002046FFF75DFF18B92368EDB21D61DAE743
:102BA0000120DFE70120DDE702000100080001004D
:102BB00070B504460D46164623685B6913F0800F16
:102BC0001CD12046FFF7DEFED0B9B5F1FF3FF3D0B0
:102BD000FFF7F6FC801BA84201D8002DECD10023A2
:102BE0002363202284F83D2084F83E30226C42F09A
:102BF0002002226484F83C30012000E0002070BDF7
:102C00000120FCE72DE9F04385B004460D469146CE
:102C10001F46DDF830800D9E0368196841F480710D
:102C200019600096434600224FF00111FFF7D2FED3
:102C300060B9236805F0FE051D613346424626490A
:102C40002046FFF705FF68B1012008E023681B68F4
:102C500013F4807F02D04FF400732364032005B087
:102C6000BDE8F0830023039323685A6903929B69AC
:102C70000393039B324641462046FFF799FF30B944
:102C8000012F0FD123685FFA89F61E61E7E7236CF5
:102C9000042B01D00120E2E72268136843F400739B
:102CA0001360F7E723684FEA19221A61324641465A
:102CB0002046FFF77DFF20B923685FFA89F61E6181
:102CC000CDE7236C042B01D00120C8E722681368EC
:102CD00043F400731360F7E70200010070B5044687
:102CE0000D46164623685B6913F0040F1CD120467D
:102CF000FFF748FED0B9B5F1FF3FF3D0FFF760FC16
:102D0000801BA84201D8002DECD100232363202290
:102D100084F83D2084F83E30226C42F02002226488
:102D200084F83C30012000E0002070BD0120FCE769
:102D3000002800F0CC8070B5044690F83D30002BA0
:102D400077D0242384F83D302268136823F00103F0
:102D500013602268136843F4004313602268136809
:102D600023F400431360FFF7A1F862685A4B9A42BC
:102D700064D85A4B98428CBF00230123002B40F0AB
:102D8000A8805749A1FB00318B0C25686A6822F0A6
:102D90003F0242EA91426A6021680A6A22F03F02D9
:102DA00066684D4DAE424FD8013313430B62216824
:102DB000CA6922F44F4222F0FF026568464B9D42E9
:102DC0004CD8431E6D00B3FBF5F3013340F6FC70A5
:102DD000034278D0C3F30B031A43CA6121680B681E
:102DE00023F0C003E269206A024313430B602168A9
:102DF0008B6823F4034323F0FF032269E068024356
:102E000013438B602168CB6823F0FF036269A069DC
:102E100002431343CB602268136843F0010313603D
:102E200000202064202384F83D30206384F83E0095
:102E300070BD80F83C30FEF70FFC82E7294B9842CA
:102E40008CBF0023012399E74FF4967505FB03F32C
:102E5000254DA5FB03539B090133A6E7A668BEB920
:102E6000431E05EB450CB3FBFCF30133C3F30B032B
:102E7000B3FA83F35B0943BBC6B9431E05EB4505B3
:102E8000B3FBF5F30133C3F30B0343F40043A3E7B0
:102E9000431E05EB850C0CEB8C0CB3FBFCF30133F0
:102EA000C3F30B03B3FA83F35B09E4E7431E05EBBB
:102EB000850505EB8505B3FBF5F30133C3F30B0380
:102EC00043F4404388E7042386E7012384E7012095
:102ED00070470120ACE700BFA08601007F841E0080
:102EE00083DE1B43FF083D00D34D62102DE9F04304
:102EF00085B004460F46914698460C9EFFF760FB4E
:102F0000054694F83D00C0B2202804D00227384678
:102F100005B0BDE8F0830095192301224F492046F2
:102F2000FFF758FD002840F0928094F83C30012BC8
:102F300000F08F80012384F83C3023681A6812F077
:102F4000010F03D11A6842F001021A602268136867
:102F500023F400631360212384F83D30102384F8A8
:102F60003E3000232364C4F82490A4F82A80638DA3
:102F700023853B4BE3622B46324639462046FFF71A
:102F8000BDFD0746002866D10023039323685A69D4
:102F900003929B690393039B11E0236C042B01D0E4
:102FA0000127B4E72268136843F400731360F7E75E
:102FB0002A4631462046FFF791FE00282ED1238D68
:102FC000002B36D02A4631462046FFF7F1FD002877
:102FD000E3D1626A236812781A61606A431C6362F3
:102FE000618D89B2013989B26185238D013B9BB224
:102FF00023852268516911F0040FD9D0002BD7D056
:1030000043781361636A01336362638D9BB2013B52
:103010009BB26385238D013B2385C9E7236C042B79
:1030200001D0012773E72268136843F4007313602B
:10303000F7E72268136843F400731360202384F8D1
:103040003D30002384F83E3084F83C305FE70227AF
:103050005DE702275BE7012759E700BF0200100088
:103060000000FFFF2DE9F04383B004460F46904671
:1030700099460C9EFFF7A4FA054694F83D00C0B2AD
:10308000202803D0022003B0BDE8F0830095192367
:1030900001224B492046FFF79DFC002840F0898023
:1030A00094F83C30012B00F08680012384F83C30FA
:1030B00023681A6812F0010F03D11A6842F0010266
:1030C0001A602268136823F400631360212384F8D4
:1030D0003D30402384F83E30002323640A9B636222
:1030E000BDF82C306385638D2385364BE3620195F3
:1030F00000964B46424639462046FFF783FD00289E
:103100005BD1238D002B35D02A4631462046FFF770
:103110004FFD20BB626A236812781A61626A531CF1
:103120006362218D013989B22185638D9BB2013B98
:103130009BB263852368586910F0040FE1D0002921
:10314000DFD052781A61636A01336362238D013BD9
:103150002385638D9BB2013B9BB26385D1E7236CD2
:10316000042B01D001208EE72268136843F400731A
:103170001360F7E72A4631462046FFF7AFFD50B10E
:10318000236C042B01D001207DE72268136843F4EF
:1031900000731360F7E72268136843F40073136049
:1031A000202384F83D30002384F83E3084F83C30FE
:1031B00069E7022067E7022065E7012063E700BFB7
:1031C000020010000000FFFF70477047704708B50D
:1031D00090F83D30DAB2438D9BB283B1416A036807
:1031E00009781961436A01334362438D9BB2013B05
:1031F0009BB24385438D9BB20BB9292A00D008BDF1
:103200000268536823F480635360212303632823F7
:1032100080F83D30FFF7DAFFF1E7704708B590F826
:103220003D30DAB2438D9BB283B103681969436ABA
:103230001970436A01334362438D9BB2013B9BB2D9
:103240004385438D9BB20BB92A2A00D008BD026882
:10325000536823F48063536022230363282380F898
:103260003D30FFF7DAFFF1E7704700B583B090F823
:103270003D3003F02803282B0CD000230193026873
:103280005169019192690192019A80F83C3003B032
:103290005DF804FB0268536823F48063536011F007
:1032A000040F0BD0002311F0800F09D18289002177
:1032B00080F83C101946FFF7D7FFE8E70123F2E753
:1032C000028BF4E77047704708B5C26A90F83D304A
:1032D000DBB2212B00D008BD438D9BB263B1426AA3
:1032E000036812781A61436A01334362438D9BB2CB
:1032F000013B9BB24385EEE7082A04D0202A02D086
:1033000012F5803F19D10268536823F4E0635360DB
:103310000268136843F400731360002303632023DF
:1033200080F83D3090F83E30DBB2402B15D00023C2
:1033300080F83E30FFF748FFCDE70268536823F47A
:10334000E063536011230363002380F83E302023A1
:1033500080F83D30FFF738FFBDE7002380F83E30AE
:10336000FFF7B1FFB7E708B590F83D30026D9AB9A5
:10337000C36C012B08D0836CC3F30723026813616D
:10338000036D0133036508BD836C0268DBB2136112
:10339000036D02330365F6E7DBB2026D012A23D029
:1033A000026D022AEFD1222B26D0428D92B20AB1B1
:1033B000212B2AD0428D92B2002AE4D1212BE2D1D6
:1033C0000268536823F4E06353600268136843F4AF
:1033D0000073136000230363202280F83D2080F8EF
:1033E0003E30FFF770FFCEE7836C0268DBB21361FB
:1033F000036D01330365C6E70268136843F4807305
:103400001360036D01330365BDE7426A03681278F8
:103410001A61436A01334362438D9BB2013B9BB205
:103420004385B0E710B590F83D30DBB290F83E2010
:10343000D2B2C46A018D09B9212B04D0212B3BD013
:10344000402A37D010BD082C04D0202C02D014F50F
:10345000803F19D10268536823F4E0635360026827
:10346000136843F40073136000230363202380F880
:103470003D3090F83E30DBB2402B15D0002380F871
:103480003E30FFF7A1FEDDE70268536823F4E063F6
:10349000536011230363002380F83E30202380F81B
:1034A0003D30FFF791FECDE7002380F83E30FFF777
:1034B0000AFFC7E7222BC5D1438D9BB22BB9026807
:1034C000536823F480635360BCE790F83E30DBB26E
:1034D000402B0CD0426A036812781A61436A0133A8
:1034E0004362438D9BB2013B9BB24385AAE7FFF742
:1034F0003AFFA7E7704708B5C26A438D9BB2042B19
:1035000014D0438D9BB2032B22D0438D9BB2022B50
:1035100039D003681A69436A1A70436A01334362F7
:10352000438D9BB2013B9BB2438510E00268536818
:1035300023F48063536003681A69436A1A70436A0C
:1035400001334362438D9BB2013B9BB2438508BD6F
:1035500001684B6823F480634B60042A06D0022A7A
:1035600004D00268136823F48063136003681A6947
:10357000436A1A70436A01334362438D9BB2013B35
:103580009BB24385E3E7013A0F2A40D8DFE802F017
:1035900008393F393F3F3F3F3F3F3F3F3F3F3F08B5
:1035A0000268136823F48063136003681A69436A2E
:1035B0001A70426A531C4362438D9BB2013B9BB21B
:1035C000438503681B695370436A01334362438D2B
:1035D0009BB2013B9BB243850268536823F440735E
:1035E0005360202380F83D3090F83E30DBB2402B12
:1035F00013D0002380F83E3012230363FFF7E5FD6C
:10360000A5E70268136843F480631360CDE702689E
:10361000136843F400731360C7E7002380F83E305B
:103620000363FFF767FF92E7704790F83D30DBB226
:10363000222B00D0704710B50446438D9BB2032B5C
:1036400015D903681A69436A1A70436A01334362E1
:10365000438D9BB2013B9BB24385438D9BB2032BB1
:103660000FD10268536823F48063536009E0C26A93
:10367000022A01D0012B05D92268536823F4806304
:10368000536010BDFFF75AF900282ED12268136845
:1036900023F4806313602268536823F4E06353606B
:1036A00023681A69636A1A70636A01336362638DFF
:1036B0009BB2013B9BB26385202384F83D3094F894
:1036C0003E30DBB2402B08D0002384F83E3012237A
:1036D00023632046FFF779FDD3E7002384F83E30CB
:1036E00023632046FFF706FFCBE72268536823F4E5
:1036F000E063536023681A69636A1A70636A01336E
:103700006362638D9BB2013B9BB26385202384F887
:103710003D30002384F83E302046FFF785FFB0E7B8
:103720007047000000B583B000230193806B90F8D0
:103730003D20D2B2324B1B68DB083249A1FB031398
:103740001B0A03EB8303C3EBC3030193019B43B148
:10375000019B013B019303681B6813F4007FF5D1C3
:1037600003E0036C43F020030364436B0BB10021BF
:10377000D963836B0BB10021D96301680B6823F413
:1037800080630B6000234385436B0BB100211965F7
:10379000836B0BB10021196501680B6823F00103ED
:1037A0000B6090F83D30DBB2602B0ED002F02802A7
:1037B000282A14D0202380F83D30002380F83E30A2
:1037C000FFF732FF03B05DF804FB202380F83D30A3
:1037D000002380F83E300364FFF7A2FFF2E702689F
:1037E000136843F0010313600268136843F48063B5
:1037F000136000230363282380F83D30E0E700BF17
:103800002000002089B5F81410B5044690F83D302A
:10381000DBB290F83E20D2B2102A36D0402A34D003
:1038200003F02802282A38D02268526812F4006F68
:1038300007D1602B05D0202384F83D30002384F885
:103840003E300023236323685A6812F4006F48D087
:103850005A6822F400625A60626B92F83530DBB22B
:10386000012B20D0444B1365606BFEF725FD00282B
:1038700049D02268136823F001031360202384F8E1
:103880003D30606B036D98473DE0222BC8D1216825
:103890000A6822F400620A60C2E700232363282337
:1038A00084F83D30CFE7A36B334A1A65A06BFEF76F
:1038B00003FD40B323685A6912F0400F05D01A691E
:1038C000636A1A70636A013363622268136823F0C3
:1038D00001031360202384F83D30A06B036D9847EB
:1038E00011E094F83D20D2B2602A1FD05A6912F03C
:1038F000400F05D01A69636A1A70636A0133636204
:103900002046FFF791FE236C13F00F0F04D02268BE
:10391000536823F4E063536094F83D30DBB2226CCB
:1039200012F0040F01D0282B18D010BD202284F8EB
:103930003D20002222645A6912F0400F05D01A6916
:10394000636A1A70636A013363622268136823F042
:10395000010313602046FFF7E3FED4E7074BE36261
:1039600000232363202284F83D2084F83E30204643
:10397000FFF7A8FCD9E700BF253700080000FFFFCC
:1039800030B583B0044690F83D50EDB202685368FC
:1039900023F4E06353600023019303685A690192A2
:1039A0001A6842F001021A60019B0268136823F44E
:1039B0008063136003685A6812F4006F38D0222DB8
:1039C00021D02A2D1FD0426B1268526892B24285D4
:1039D000428D92B21AB1026C42F0040202645A683B
:1039E00022F400625A60606BFEF768FD01281FD068
:1039F000636B444A1A65606BFEF75EFCC0B1606B96
:103A0000036D984714E0A26B1268526892B2628507
:103A1000628D92B21AB1226C42F0040222645A689A
:103A200022F400625A60A06BFEF748FD012842D1E3
:103A3000638D9BB233B323685A6912F0040F0AD026
:103A40001A69636A1A70636A01336362638D9BB299
:103A5000013B9BB2638523685A6912F0400F0AD07C
:103A60001A69636A1A70636A01336362638D9BB279
:103A7000013B9BB26385638D9BB21BB1236C43F00A
:103A800004032364236C13BB2A2D25D094F83D3006
:103A9000DBB2282B29D0236B222B01D0222D19D168
:103AA00000232363202284F83D2084F83E30204602
:103AB000FFF7B3FB0EE0A36B124A1A65A06BFEF78B
:103AC000FBFB0028B4D0A06B036D9847B0E72046FD
:103AD000FFF79AFE03B030BD00232363282384F848
:103AE0003D302046FFF799FBD0E7074BE362002308
:103AF0002363202284F83D2084F83E302046FFF7DF
:103B0000E1FBE7E7253700080000FFFFF8B50446B2
:103B100002685568C66A90F83E30DBB290F83D10F6
:103B2000C8B2102B13D0402B11D0236C002B7AD0AD
:103B30005369002113F0020F78D015F4007F75D07F
:103B4000236C03B191692046FFF78FFBF8BDD2F8D3
:103B500018C0516911F0010705D1B6F52A0FF5D04B
:103B6000B6F12A4FF2D017B115F4007F29D111F028
:103B7000080F02D015F4007F2AD111F0020F02D0F5
:103B800015F4007F28D11CF0040F31D0526812F4D4
:103B9000006FDBD111F0800F05D015F4806F02D0DB
:103BA00011F0040F1CD011F0040FCFD015F4007FDA
:103BB000CCD0212818D0402BC8D12046FFF7D3FB0A
:103BC000C4E72046FEF7F7FE2046FEF713FDBDE7EB
:103BD0002046FEF763FDB9E72046FEF775FDB5E721
:103BE0002046FFF71FFCB1E72046FFF76DFBADE76E
:103BF000536813F4006FA9D111F0400F05D015F4EC
:103C0000806F02D011F0040F09D011F0040F9DD085
:103C100015F4007F9AD02046FFF76DFC96E720460A
:103C2000FFF703FD92E79169536983E713F0100FE3
:103C300002D015F4007F18D121281AD0292818D0D5
:103C400013F0400F05D015F4806F02D013F0040F6D
:103C500028D013F0040F3FF479AF15F4007F3FF440
:103C600075AF2046FEF75AFE70E72046FFF788FE44
:103C70006CE713F0800F05D015F4806F02D013F0BD
:103C8000040F0BD013F0040F3FF460AF15F4007F66
:103C90003FF45CAF2046FEF731FE57E72046FFF7C2
:103CA00096FA53E72046FFF7B9FA4FE72DE9F047B8
:103CB00082B00546884617461E46FEF781FC0A9BE1
:103CC0001B1A03EB0609FEF77BFC82462A4B1B6896
:103CD000C3F3CB3309FB03F301932B689C6838EAE9
:103CE00004040CBF01230023BB4240D0B6F1FF3FC8
:103CF000F3D0FEF765FCA0EB0A0048450AD2B9F103
:103D0000000F07D0019A02B14A46019B013B019383
:103D10009146E2E72A68536823F0E00353606B683A
:103D2000B3F5827F0BD0AB6AB3F5005F14D00123EB
:103D300085F85130002385F85030032018E0AB6837
:103D4000B3F5004F02D0B3F5806FECD12A68136849
:103D500023F040031360E6E72A68136823F4005356
:103D600013602A68136843F400531360DFE70020F0
:103D700002B0BDE8F08700BF2000002010B584B07D
:103D80000446164B1868164BA3FB0030400D4FF449
:103D90007A7303FB00F003906368B3F5827F0BD066
:103DA000039BBBB1039B013B039323689B6813F008
:103DB000800FF5D100200EE000920B4600228021FA
:103DC0002046FFF773FF30B1636D43F02003636556
:103DD000032000E0002004B010BD00BF2000002040
:103DE000819F5E1610B582B004460B464168B1F55E
:103DF000827F14D06168B1F5827F2AD1A168B1F5C4
:103E0000806F19D00092002280212046FFF74EFFDC
:103E100030B3636D43F020036365032020E08168C5
:103E2000B1F5004F02D0B1F5806FE3D12068016891
:103E300021F040010160DDE70092002201212046CF
:103E4000FFF734FF60B1636D43F020036365032027
:103E500006E00092002201212046FFF727FF08B963
:103E600002B010BD636D43F0200363650320F7E7E4
:103E700000285AD010B50446436A33B94368B3F5F5
:103E8000827F05D00023C36102E000230361436108
:103E90000023A36294F85130002B40D0022384F811
:103EA00051302268136823F040031360636803F401
:103EB0008273A26802F404421343E26802F40062CF
:103EC0001343226902F002021343626902F0010205
:103ED0001343A26902F400721343E26902F038024C
:103EE0001343226A02F080021343A26A02F40052D2
:103EF000216813430B60638B03F00403626A02F0D2
:103F00001002216813434B602268D36923F40063D5
:103F1000D36100206065012384F8513010BD84F81E
:103F200050302046FDF7F6FBB8E7012070472DE939
:103F3000F04383B01D4690F85030012B00F0D18043
:103F4000044688469146012380F85030FEF738FB3E
:103F5000074694F85160F6B2012E40F0AF80B8F1F8
:103F6000000F00F0AC80B9F1000F00F0A88003232F
:103F700084F8513000236365C4F83080A4F834908D
:103F8000A4F83690A363A387E38763642364A368DC
:103F9000B3F5004F1ED023681A6812F0400F03D10A
:103FA0001A6842F040021A60E368B3F5006F1CD053
:103FB000636813B1B9F1010F52D1226B23681278F3
:103FC0001A73236B01332363E38E9BB2013B9BB2D5
:103FD000E38645E02268136823F0400313602268FB
:103FE000136843F480431360D5E7636813B1B9F1F4
:103FF000010F16D1226B23681288DA60236B02331B
:104000002363E38E9BB2013B9BB2E38609E0FEF79C
:10401000D7FAC01BA84202D3B5F1FF3F59D1002DFA
:1040200059D0E38E9BB2002B33D023689A6812F0EC
:10403000020FECD0226B1288DA60236B0233236309
:10404000E38E9BB2013B9BB2E386EAE7FEF7B8FA48
:10405000C01BA84202D3B5F1FF3F3ED1002D3ED098
:10406000E38E9BB2ABB123689A6812F0020FEDD0D9
:10407000226B12781A73236B01332363B4F836C0B2
:104080001FFA8CFC0CF1FF3C1FFA8CFCA4F836C024
:10409000E6E73A4629462046FFF770FE08B120239E
:1040A0006365A36833B901932368DA6801929B685A
:1040B0000193019B636D13B9002600E002260123E2
:1040C00084F85130002384F85030304603B0BDE806
:1040D000F0830326F3E70326F1E70326EFE7032641
:1040E000EDE70226F1E72DE9F04383B01F460A9D74
:1040F00090F85030012B00F010810446884691461C
:10410000012380F85030FEF75BFA064694F85130F0
:10411000DBB26268012B0AD0B2F5827F40F0E38007
:10412000A268002A40F0E980042B40F0E880B8F152
:10413000000F00F0E680B9F1000F00F0E480002FDE
:1041400000F0E38094F85130DBB2042B02D0052359
:1041500084F8513000236365C4F83890E787A78757
:10416000C4F83080E786A7862364636423681A68EE
:1041700012F0400F03D11A6842F040021A60E3685F
:10418000B3F5006F11D063680BB1012F0BD1226B17
:10419000236812781A73236B01332363E38E9BB277
:1041A000013B9BB2E38601276BE063680BB1012FF3
:1041B0000BD1226B23681288DA60236B02332363EE
:1041C000E38E9BB2013B9BB2E38601271CE0236890
:1041D0009A6812F0010F0ED0E28F92B25AB1DA68EB
:1041E000A36B1A80A36B0233A363E38F9BB2013BE3
:1041F0009BB2E3870127FEF7E3F9801BA84203D3B4
:10420000B5F1FF3F40F08380E38E9BB21BB9E38F93
:104210009BB2002B53D023689A6812F0020FD6D0BD
:10422000E28E92B2002AD2D0002FD0D0226B128818
:10423000DA60236B02332363E38E9BB2013B9BB2B4
:10424000E3860027C3E723689A6812F0010F0ED0B7
:10425000E28F92B25AB1DA68A36B1A70A36B013382
:10426000A363E38F9BB2013B9BB2E3870127FEF779
:10427000A7F9831BAB4202D3B5F1FF3F49D1002D13
:1042800049D0E38E9BB213B9E38F9BB2BBB12368D5
:104290009A6812F0020FD6D0E28E92B2002AD2D0E3
:1042A000002FD0D0226B12781A73236B0133236353
:1042B000E38E9BB2013B9BB2E3860027C3E7324605
:1042C00029462046FFF75AFD48B9A36863B9019310
:1042D0002368DA6801929B680193019B04E0202324
:1042E0006365012000E00220012384F8513000239F
:1042F00084F8503003B0BDE8F0830220F4E70220D8
:10430000F2E70120F0E70120EEE70120ECE70320CF
:10431000EAE70320E8E70320E6E70220EAE72DE9E1
:10432000F04383B00446884691461D464068B0F588
:10433000827F38D094F85030012B00F0AE800123FA
:1043400084F85030FEF73CF9074694F85160F6B215
:10435000012E40F08F80B8F1000F00F08C80B9F191
:10436000000F00F08880042384F851300023636537
:10437000C4F83880A4F83C90A4F83E902363A38648
:10438000E38623646364A368B3F5004F19D0236800
:104390001A6812F0400F03D11A6842F040021A6006
:1043A000E3681BB341E0A368002BC3D1042384F866
:1043B0005130009513460A462046FFF794FE064604
:1043C0005FE02268136823F04003136022681368DB
:1043D00023F480431360DAE7FEF7F2F8C01BA8422B
:1043E00002D3B5F1FF3F50D1002D50D0E38F9BB2E7
:1043F000002B33D023689A6812F0010FECD0A26B27
:104400001B7B1370A36B0133A363E38F9BB2013B50
:104410009BB2E387EAE7FEF7D3F8C01BA84202D3BA
:10442000B5F1FF3F35D1002D35D0E38F9BB2ABB155
:1044300023689A6812F0010FEDD0DA68A36B1A8036
:10444000A36B0233A363B4F83EC01FFA8CFC0CF1DB
:10445000FF3C1FFA8CFCA4F83EC0E6E73A4629462A
:104460002046FFF7BFFC08B120236365636D13B9D5
:10447000002600E00226012384F85130002384F84E
:104480005030304603B0BDE8F0830326F3E703263F
:10449000F1E70326EFE70326EDE70226F1E7704791
:1044A00010B584B0044602685168936803F0410077
:1044B000012867D013F0020F02D011F0800F68D1ED
:1044C00013F4B07F68D011F0200F65D013F0400FC7
:1044D0000FD094F85100C0B203285FD0606D40F057
:1044E0000400606500200090D06800909068009003
:1044F000009813F0200F0CD0606D40F00100606553
:104500000020029090680290106820F04000106037
:10451000029A13F4807F09D0636D43F0080363654A
:104520000023039323689B680393039B636D002B15
:1045300032D02268536823F0E0035360012384F8EB
:10454000513011F0030F31D02268536823F0030378
:104550005360E36C4BB1174A1A65E06CFDF7ACFE93
:1045600018B1636D43F040036365A36CA3B1114AB6
:104570001A65A06CFDF7A0FE70B1636D43F04003B7
:10458000636509E011F0400F94D0236C20469847F2
:1045900002E0636C2046984704B010BD00230193ED
:1045A000D368019393680193019BF5E72046FFF7D9
:1045B00076FFF1E7B945000808B5806B0023C38793
:1045C000C386FFF76CFF08BD90F851007047704735
:1045D00090F83D30DBB2012B2FD1022380F83D3023
:1045E0000268D36843F00103D3600368154A93421D
:1045F00018D0B3F1804F15D0A2F57C42934211D070
:1046000002F5806293420DD002F58062934209D098
:1046100002F59A32934205D01A6842F001021A60FC
:10462000002070479A6802F00702062A07D01A682D
:1046300042F001021A6000207047012070470020FC
:10464000704700BF000001407047704770477047D7
:1046500010B5044603681A6912F0020F11D0DA6827
:1046600012F0020F0DD06FF002021A6101230377DE
:1046700003689B6913F0030F70D0FFF7E6FF002378
:10468000237723681A6912F0040F12D0DA6812F047
:10469000040F0ED06FF004021A61022323772368FF
:1046A0009B6913F4407F5FD02046FFF7CEFF0023C5
:1046B000237723681A6912F0080F12D0DA6812F013
:1046C000080F0ED06FF008021A61042323772368C5
:1046D000DB6913F0030F4ED02046FFF7B6FF00232F
:1046E000237723681A6912F0100F12D0DA6812F0DB
:1046F000100F0ED06FF010021A6108232377236881
:10470000DB6913F4407F3DD02046FFF79EFF002376
:10471000237723681A6912F0010F03D0DA6812F0C8
:10472000010F36D123681A6912F0800F03D0DA68BE
:1047300012F0800F34D123681A6912F0400F03D0B1
:10474000DA6812F0400F32D123681A6912F0200F94
:1047500003D0DA6812F0200F30D110BDFFF774FFDC
:104760002046FFF773FF8AE72046FFF76DFF2046DC
:10477000FFF76CFF9BE72046FFF766FF2046FFF739
:1047800065FFACE72046FFF75FFF2046FFF75EFFBF
:10479000BDE76FF001021A612046FBF76FFFC1E72A
:1047A0006FF080021A61204600F08BF8C3E76FF0CB
:1047B00040021A612046FFF74AFFC5E76FF020026A
:1047C0001A61204600F07CF8C7E700000368254A1C
:1047D00090420ED0B0F1804F0BD0A2F57C429042B7
:1047E00007D002F58062904203D002F580629042C9
:1047F00003D123F070034A6813431A4A90421AD037
:10480000B0F1804F17D0A2F57C42904213D002F550
:10481000806290420FD002F5806290420BD002F588
:104820009A32904207D002F58062904203D002F59E
:104830008062904203D123F44073CA68134323F08B
:1048400080034A69134303608B68C3620B68836209
:10485000044B984202D00123436170470B69036304
:10486000F9E700BF0000014040B310B5044690F8DE
:104870003D30F3B1022384F83D30214651F8040B5A
:10488000FFF7A4FF012384F8463084F83E3084F813
:104890003F3084F8403084F8413084F8423084F866
:1048A000433084F8443084F8453084F83D300020AB
:1048B00010BD80F83C30FFF78AFEDBE7012070472F
:1048C00070477047034AD2F8883043F47003C2F847
:1048D0008830704700ED00E000F1080343604FF0BE
:1048E000FF328260C36003610023036070470023CE
:1048F0000361704743684B609A688A6051609960B1
:104900000861036801330360704730B40D68B5F186
:10491000FF3F11D000F108031C465B681A68AA42E9
:10492000FAD963684B6099608C60616008610368C4
:104930000133036030BC70470469F2E703694168E2
:1049400082688A60416851605A68824206D00022BB
:1049500002611A68013A1A601868704782685A60E2
:10496000F5E710B5044601F04DFDA26BE36B9A42EA
:1049700004D0002401F068FD204610BD0124F9E7B1
:1049800010B5044601F03EFDA36B23B9012401F0EC
:104990005BFD204610BD0024F9E770B504461546BE
:1049A000866B026C5AB903681BB100200136A663FE
:1049B00070BD806801F014F80023A360F6E76DB9BC
:1049C000406801F0C1FE226C636813446360A26812
:1049D000934219D3236863602846E7E7C06801F073
:1049E000B3FE226C5142E3689B1AE3602268934253
:1049F00002D2A3680B44E360022D01D00020D5E76A
:104A000026B1013E0020D1E72846CFE70020CDE7C0
:104A10000346026C6AB110B50846D9681144D960E2
:104A20009C68A14201D31968D960D96801F08CFE55
:104A300010BD704738B5054601F0E4FC95F84540D7
:104A400064B201E0013C64B2002C0ADD6B6A43B140
:104A500005F1240000F01AFF0028F3D000F0AAFFAF
:104A6000F0E7FF2385F8453001F0EEFC01F0CAFCC9
:104A700095F8444064B201E0013C64B2002C0ADDC8
:104A80002B6943B105F1100000F000FF0028F3D0BE
:104A900000F090FFF0E7FF2385F8443001F0D4FCEC
:104AA00038BD38B5E0B10D46044601F0ABFC2368D3
:104AB000E26B216C01FB0230A0600020A063636008
:104AC000013A02FB0133E360FF2384F8443084F8A9
:104AD0004530FDB9236963B901F0B6FC012038BD4A
:104AE0004FF0500383F31188BFF36F8FBFF34F8FE5
:104AF000FEE704F1100000F0C9FE0028ECD04FF0F2
:104B0000E0234FF08052C3F8042DBFF34F8FBFF363
:104B10006F8FE1E704F11000FFF7DEFE04F12400DF
:104B2000FFF7DAFED8E710B5034602980C4631B914
:104B30000060C36304640121FFF7B3FF10BD02608E
:104B4000F7E740B94FF0500383F31188BFF36F8F3D
:104B5000BFF34F8FFEE710B584B01C46844653B1B7
:104B600092B189B94FF0500383F31188BFF36F8F6F
:104B7000BFF34F8FFEE74FF0500383F31188BFF36D
:104B80006F8FBFF34F8FFEE76AB148230393039BF8
:104B9000482B13D04FF0500383F31188BFF36F8F6E
:104BA000BFF34F8FFEE70029EFD04FF0500383F3A0
:104BB0001188BFF36F8FBFF34F8FFEE7039B012375
:104BC00084F8463000949DF818306046FFF7ABFF3C
:104BD000204604B010BD40B94FF0500383F3118854
:104BE000BFF36F8FBFF34F8FFEE7F0B583B00D4675
:104BF0001446064601FB00F0483001F0DDFA074696
:104C000050B1002380F846300090234600F148025E
:104C100029463046FFF787FF384603B0F0BDF0B5B0
:104C200085B0019288B10F461D460446B1B1022DF0
:104C300020D1E36B012B1DD04FF0500383F311887B
:104C4000BFF36F8FBFF34F8FFEE74FF0500383F337
:104C50001188BFF36F8FBFF34F8FFEE7036C002BFC
:104C6000E5D04FF0500383F31188BFF36F8FBFF38C
:104C70004F8FFEE700F0A4FE064658B9019B002BBB
:104C800048D04FF0500383F31188BFF36F8FBFF309
:104C90004F8FFEE700263DE02A4639462046FFF7C3
:104CA0007CFE636A7BB948B14FF0E0234FF080523D
:104CB000C3F8042DBFF34F8FBFF36F8F01F0C4FB18
:104CC000012005B0F0BD04F1240000F0DFFD002854
:104CD000F4D04FF0E0234FF08052C3F8042DBFF31F
:104CE0004F8FBFF36F8FE9E701F0AEFB0020E8E7DD
:104CF00002A800F011FE012619E0002384F84430D8
:104D000021E0002384F8453023E02046FFF792FE9F
:104D100000F09AFC01F076FBA26BE36B9A42BBD3E6
:104D2000022DB9D0019B002BDED0002EE0D001F087
:104D30008BFB00F0EFFB01F065FB94F8442052B2CE
:104D4000B2F1FF3FD9D094F8452052B2B2F1FF3F03
:104D5000D7D001F079FB01A902A800F0E9FDD8B98C
:104D60002046FFF7FEFD0028CFD0019904F1100086
:104D700000F058FD2046FFF75DFE00F065FC0028BE
:104D8000C8D14FF0E0234FF08052C3F8042DBFF399
:104D90004F8FBFF36F8FBDE72046FFF74BFE00F04C
:104DA00053FC00208DE748B108B500218160016007
:104DB000C1600B460A46FFF732FF08BD704710B5C9
:104DC000024600210120FFF706FF0446FFF7EBFF34
:104DD000204610BD2DE9F84390B10F4616461C46FB
:104DE0000546B1B1022C20D1EB6B012B1DD04FF049
:104DF000500383F31188BFF36F8FBFF34F8FFEE72C
:104E00004FF0500383F31188BFF36F8FBFF34F8FC1
:104E1000FEE7036C002BE5D04FF0500383F31188BD
:104E2000BFF36F8FBFF34F8FFEE701F011FCEFF37D
:104E300011884FF0500383F31188BFF36F8FBFF3D6
:104E40004F8FAA6BEB6B9A4206D3022C04D0002042
:104E500088F31188BDE8F88395F845904FFA89F9F1
:104E6000AB6B224639462846FFF797FDB9F1FF3F65
:104E700006D009F101035BB285F845300120E7E770
:104E80006B6A0BB90120E3E705F1240000F0FEFC9A
:104E900018B126B101203060DAE70120D8E70120FF
:104EA000D6E7F0B585B0019290B10F460446C1B186
:104EB00000F086FD064600BB019B002B5ED04FF044
:104EC000500383F31188BFF36F8FBFF34F8FFEE75B
:104ED0004FF0500383F31188BFF36F8FBFF34F8FF1
:104EE000FEE7036C002BE3D04FF0500383F31188EF
:104EF000BFF36F8FBFF34F8FFEE700263EE03946CA
:104F00002046FFF785FD013DA563236923B901F024
:104F10009BFA012005B0F0BD04F1100000F0B6FCD2
:104F20000028F4D04FF0E0234FF08052C3F8042D56
:104F3000BFF34F8FBFF36F8FE9E701F085FA0020D1
:104F4000E8E702A800F0E8FC012621E0002384F84D
:104F5000443029E0002384F845302BE02046FFF759
:104F600069FD00F071FB09E02046FFF763FD00F0EA
:104F70006BFB2046FFF704FD00283FD101F042FA09
:104F8000A56B002DBBD1019B002BD6D0002ED8D015
:104F900001F05AFA00F0BEFA01F034FA94F8443005
:104FA0005BB2B3F1FF3FD1D094F845305BB2B3F1BF
:104FB000FF3FCFD001F048FA01A902A800F0B8FCE9
:104FC0000028D1D12046FFF7DBFC0028C6D001998C
:104FD00004F1240000F026FC2046FFF72BFD00F032
:104FE00033FB0028CAD14FF0E0234FF08052C3F8C2
:104FF000042DBFF34F8FBFF36F8FBFE7002089E70A
:105000000023072B0CD8074A52F833200AB101338A
:10501000F7E7044A42F8331002EBC30250607047CE
:10502000704700BF1C0C002070B504460D461646A4
:1050300001F0E8F994F844305BB2B3F1FF3F0DD0D2
:1050400094F845305BB2B3F1FF3F0BD001F0FCF9AF
:10505000A36B5BB12046FFF7EDFC70BD002384F825
:105060004430EDE7002384F84530EFE73246294627
:1050700004F1240000F0EEFBECE70000084B1B6895
:105080001B6823B9074B4FF0FF321A607047044B7F
:105090001B68DB68DB685A68024B1A60704700BF08
:1050A000600C0020340D00202DE9F047074698469B
:1050B000089DDDF824900A9C266B02F18042013A9B
:1050C00006EB820626F00706C1B308464FF0000C37
:1050D000BCF10F0F09D810F80C2004EB0C0383F877
:1050E000342012B10CF1010CF2E7002384F84330B4
:1050F000062D00D90625E56265644FF0000AC4F864
:1051000048A0201DFFF7F3FB04F11800FFF7EFFBA9
:105110002461C5F10705A5616462C4F84CA084F858
:1051200050A042463946304601F040F92060B9F1BE
:10513000000F01D0C9F80040BDE8F087002384F8D3
:105140003430D5E738B5002407E004EB840293003F
:105150000E481844FFF7C0FB0134062CF5D90C4D5E
:105160002846FFF7B9FB0B4C2046FFF7B5FB0A4872
:10517000FFF7B2FB0948FFF7AFFB0948FFF7ACFBAD
:10518000084B1D60084B1C6038BD00BF680C002038
:10519000080D00201C0D0020400D00206C0D00208B
:1051A000580D0020600C0020640C002010B504464F
:1051B00001F028F9214A136801331360204B1B6862
:1051C0005BB1204B1B686BB91D4B1B68DA6AE36A45
:1051D0009A4207D81A4B1C6004E0194B1C601368F4
:1051E000012B28D0184A136801331360E06A0123A9
:1051F0008340164A11680B43136000EB8000211DA9
:10520000134B03EB8000FFF775FB01F01DF90D4B0D
:105210001B687BB10A4B1B68DA6AE36A9A4209D2BF
:105220004FF0E0234FF08052C3F8042DBFF34F8FAF
:10523000BFF36F8F10BDFFF785FFD3E7F40C00209D
:105240005C0C0020540D0020000D0020040D0020F7
:10525000680C002010B5044690F8513063B1012B62
:1052600011D0022B0ED04FF0500383F31188BFF3FF
:105270006F8FBFF34F8FFEE7006B01F01BF82046E6
:1052800001F018F810BD01F015F8FBE70F4B1B6893
:10529000D3B110B501F0B6F80D4BDB68DC68201D0A
:1052A000FFF74CFB0B4A1368013B1360074A136876
:1052B000013B136001F0C8F82046FFF7CBFF034B1A
:1052C0001B68002BE6D110BD704700BFF80C002012
:1052D0006C0D0020F40C002008B5FFF7D7FF074B3A
:1052E0001B68012BF9D94FF0E0234FF08052C3F82F
:1052F000042DBFF34F8FBFF36F8FEEE7680C0020D4
:1053000070B504460D461D4B1E681D4B18680430D1
:10531000FFF714FB48B91A4B1B68DB6A01229A405D
:1053200018490B6823EA02030B60B4F1FF3F0DD06C
:105330003444134B1B685C60A64210D9124B1868AA
:105340000F4B19680431FFF7E0FA70BD002DEFD064
:105350000B4B196804310D48FFF7CCFAF5E70C4BFD
:105360001868074B19680431FFF7CFFA094B1B681F
:10537000A342EAD9074B1C60E7E700BF800D00207D
:105380005C0C0020040D0020640C0020580D00204F
:10539000600C0020340D002030B587B00B9C7CB130
:1053A0000C9DB5B154250495049D542D1AD04FF091
:1053B000500383F31188BFF36F8FBFF34F8FFEE766
:1053C0004FF0500383F31188BFF36F8FBFF34F8FFC
:1053D000FEE74FF0500383F31188BFF36F8FBFF3E5
:1053E0004F8FFEE7049D0C9D2C63022485F85140ED
:1053F00000240394029505AC01940A9C0094FFF7E5
:1054000053FE0C98FFF7D2FE059807B030BD2DE98A
:10541000F04385B00746884614461E46900000F0CB
:10542000CBFE00B38146542000F0C6FE0546B0B165
:10543000C0F83090E5B1002385F851300393029510
:105440000D9B01930C9B0093334622464146384600
:10545000FFF72AFE2846FFF7A9FE012005E048468F
:1054600000F028FFE6E74FF0FF3005B0BDE8F0831D
:105470004FF0FF30F9E7000010B588B00024059424
:10548000069407AA06A905A8FCF75AF8059B0293FB
:10549000069B019300942346079A18491848FFF782
:1054A0007BFF184B186040B100F084FB012806D048
:1054B000B0F1FF3F18D008B010BD0020F6E74FF064
:1054C000500383F31188BFF36F8FBFF34F8F0E4BE1
:1054D0004FF0FF321A600D4B01221A600C4B002274
:1054E0001A6001F029F8E6E74FF0500383F31188C2
:1054F000BFF36F8FBFF34F8FFEE700BF949C000890
:10550000D9520008300D0020340D0020540D002029
:10551000800D0020024A136801331360704700BFFA
:10552000FC0C0020014B1868704700BF800D002064
:10553000F8B53A4B1B68002B69D1394B1D68013512
:105540001D60C5B9374B1B681B6843B14FF0500352
:1055500083F31188BFF36F8FBFF34F8FFEE7314A9C
:105560001168314B186810601960304A13680133B4
:105570001360FFF783FD2E4B1B68AB423DD900271C
:105580002C4B1B68DB6A03EB83039A002A4B9B5866
:10559000012B00D90127294B1B68002B3CD0012788
:1055A0003AE001271F4B1B681B6843B31D4B1B6868
:1055B000DB68DC6863689D4226D3261D3046FFF712
:1055C000BDF9A36A1BB104F11800FFF7B7F9E36A4C
:1055D00001229A401A49086802430A6003EB8303D8
:1055E0009A00314614481044FFF784F9E26A114BDF
:1055F0001B68DB6A9A42D4D2D4E70027D2E70C4B6F
:105600004FF0FF321A60BBE7094A1360B8E70D4A52
:1056100013680133136000273846F8BDFC0C0020E6
:10562000800D0020600C0020640C0020380D00204C
:10563000340D00205C0C0020680C0020840D00203C
:10564000040D00203C0D002038B5354B1B6843B9D4
:105650004FF0500383F31188BFF36F8FBFF34F8F69
:10566000FEE700F0CFFE2E4B1A68013A1A601B6865
:10567000002B4FD12B4B1B680BB900244BE00024AF
:10568000294B1B681BB3284BDB68DC6804F118004E
:10569000FFF754F9251D2846FFF750F9E06A01236A
:1056A0008340224A11680B43136000EB80002946B7
:1056B0001F4B03EB8000FFF71DF9E26A1D4B1B68CF
:1056C000DB6A9A42DCD31C4B01221A60D8E70CB18A
:1056D000FFF7D4FC194B1C6884B9174B1C68D4B174
:1056E0004FF0E0234FF08052C3F8042DBFF34F8FEB
:1056F000BFF36F8F01240EE0013C07D0FFF718FFC6
:105700000028F9D00C4B01221A60F5E70B4B002260
:105710001A60E2E7002400F097FE204638BD00BF83
:10572000FC0C0020F40C0020400D0020040D002093
:10573000680C00205C0C0020840D00203C0D002033
:1057400010B5A8B10446104B1B6843B14FF050038D
:1057500083F31188BFF36F8FBFF34F8FFEE7FFF71F
:10576000D9FE00212046FFF7CBFDFFF76DFF48B9BA
:105770004FF0E0234FF08052C3F8042DBFF34F8F5A
:10578000BFF36F8F10BD00BFFC0C0020204B1B68C7
:105790001BB1204B01221A6070471E4B00221A6079
:1057A0001D4B1B68B3FA83F3DBB2C3F11F0303EB9A
:1057B00083018A0019498A5842B94FF0500383F394
:1057C0001188BFF36F8FBFF34F8FFEE7134903EBD1
:1057D000830082000A4450684068506003EB830CE9
:1057E0004FEA8C0208321144884209D003EB83034C
:1057F0009A000A4B13445B68DA68094B1A607047D9
:10580000406862469100054A0A445060EEE700BFD6
:10581000FC0C0020840D0020040D0020680C0020EA
:105820005C0C002058B110B50C46094A11681831BB
:10583000FFF76BF801212046FFF762FD10BD4FF026
:10584000500383F31188BFF36F8FBFF34F8FFEE7D1
:105850005C0C002038B570B10D4614460A4A116838
:105860001831FFF747F80CB14FF0FF3521462846B5
:10587000FFF746FD38BD4FF0500383F31188BFF3A7
:105880006F8FBFF34F8FFEE75C0C002038B5C36805
:10589000DC6824B304F118052846FFF74FF8184BCD
:1058A0001B682BBB251D2846FFF748F8E06A01233B
:1058B0008340144A11680B43136000EB80002946B3
:1058C000114B03EB8000FFF715F8E26A0F4B1B68E2
:1058D000DB6A9A4211D901200D4B186038BD4FF098
:1058E000500383F31188BFF36F8FBFF34F8FFEE731
:1058F00029460848FEF7FEFFE7E70020EEE700BF75
:10590000FC0C0020040D0020680C00205C0C002022
:10591000840D0020400D0020034B1B680360034BE7
:105920001B684360704700BF380D0020800D0020C9
:10593000F8B5C8B10C460546F9B100F063FD1B4B44
:1059400019686B68C81A2268B2F1FF3F26D0184E5A
:1059500036682F68B74201D08B4224D9824215D8CD
:105960000023236001241AE04FF0500383F31188D1
:10597000BFF36F8FBFF34F8FFEE74FF0500383F3FA
:105980001188BFF36F8FBFF34F8FFEE75B1A13448D
:1059900023602846FFF7C0FF002400E0002400F049
:1059A00053FD2046F8BD0124F9E700BF800D00201B
:1059B000380D0020014B01221A607047840D002031
:1059C000054B1B6833B1054B1B680BB100207047BA
:1059D0000220704701207047540D0020FC0C00206D
:1059E00000284BD038B50446264B1B68834208D0AC
:1059F0004FF0500383F31188BFF36F8FBFF34F8FC6
:105A0000FEE7836C43B94FF0500383F31188BFF373
:105A10006F8FBFF34F8FFEE7013B8364C16A426C17
:105A200091422DD00BB1002038BD051D2846FEF750
:105A300085FF68B9E36A03EB8302920012498A5832
:105A400032B901229A4011490B6823EA02030B6024
:105A5000606CE062C0F10703A361012404FA00F363
:105A60000A4A11680B43136000EB80002946064B7D
:105A700003EB8000FEF73EFF2046D5E7002070478D
:105A80000020D1E75C0C0020680C0020040D0020F1
:105A9000064B1A6813682BB90123036023B9D36836
:105AA000186870470023F8E700207047880D002031
:105AB00008B54160006191420CD8D21A83699A42BC
:105AC00001D3012008BD011D094B1868FEF71DFF19
:105AD0000020F7E79A4201D2994206D2011D054BF8
